:10000000783A002051440000819400003D440000F3
:100010003D4400003D4400003D4400003D440000DC
:10002000000000000000000000000000BD450000CE
:100030003D44000000000000554500003D44000024
:100040005147000051470000514700005147000050
:100050005147000051470000514700005147000040
:100060005147000051470000514700005147000030
:100070005147000051470000514700005147000020
:100080005147000051470000514700005147000010
:100090005147000051470000514700005147000000
:1000A00051470000514700005147000051470000F0
:1000B00051470000514700005147000051470000E0
:1000C00051470000514700005147000051470000D0
:1000D00051470000514700005147000051470000C0
:1000E00051470000514700005147000051470000B0
:1000F00051470000514700005147000051470000A0
:10010000514700005147000051470000514700008F
:10011000514700005147000051470000514700007F
:10012000514700005147000051470000514700006F
:10013000514700005147000051470000514700005F
:10014000514700005147000051470000514700004F
:040150005147000013
:1001580081F0004102E000BF83F0004330B54FEA70
:1001680041044FEA430594EA050F08BF90EA020FDD
:100178001FBF54EA000C55EA020C7FEA645C7FEA70
:10018800655C00F0E2804FEA5454D4EB5555B8BF93
:100198006D420CDD2C4480EA020281EA030382EA04
:1001A800000083EA010180EA020281EA0303362D96
:1001B80088BF30BD11F0004F4FEA01314FF4801C69
:1001C8004CEA113102D0404261EB410113F0004F7B
:1001D8004FEA03334CEA133302D0524263EB430332
:1001E80094EA050F00F0A780A4F10104D5F1200ED0
:1001F8000DDB02FA0EFC22FA05F2801841F100012B
:1002080003FA0EF2801843FA05F359410EE0A5F1FE
:1002180020050EF1200E012A03FA0EFC28BF4CF02F
:10022800020C43FA05F3C01851EBE37101F00045E5
:1002380007D54FF0000EDCF1000C7EEB00006EEBF2
:100248000101B1F5801F1BD3B1F5001F0CD349087C
:100258005FEA30004FEA3C0C04F101044FEA4452D3
:1002680012F5800F80F09A80BCF1004F08BF5FEA5A
:10027800500C50F1000041EB045141EA050130BD3A
:100288005FEA4C0C404141EB0101013C28BFB1F54C
:10029800801FE9D291F0000F04BF01460020B1FA97
:1002A80081F308BF2033A3F10B03B3F120020CDA6A
:1002B8000C3208DD02F1140CC2F10C0201FA0CF048
:1002C80021FA02F10CE002F11402D8BFC2F1200CAD
:1002D80001FA02F120FA0CFCDCBF41EA0C01904063
:1002E800E41AA2BF01EB0451294330BD6FEA0404AC
:1002F8001F3C1CDA0C340EDC04F11404C4F1200297
:1003080020FA04F001FA02F340EA030021FA04F3A8
:1003180045EA030130BDC4F10C04C4F1200220FAFF
:1003280002F001FA04F340EA0300294630BD21FA3D
:1003380004F0294630BD94F0000F83F4801306BF03
:1003480081F480110134013D4EE77FEA645C18BFF7
:100358007FEA655C29D094EA050F08BF90EA020F8E
:1003680005D054EA000C04BF1946104630BD91EA86
:10037800030F1EBF0021002030BD5FEA545C05D189
:100388004000494128BF41F0004130BD14F58004C8
:100398003CBF01F5801130BD01F0004545F0FE413C
:1003A80041F470014FF0000030BD7FEA645C1ABF71
:1003B800194610467FEA655C1CBF0B46024650EAA8
:1003C800013406BF52EA033591EA030F41F40021D4
:1003D80030BD00BF90F0000F04BF0021704730B55A
:1003E8004FF4806404F132044FF000054FF000012F
:1003F80050E700BF90F0000F04BF0021704730B5F0
:100408004FF4806404F1320410F0004548BF4042C4
:100418004FF000013EE700BF42004FEAE2014FEA19
:1004280031014FEA02701FBF12F07F4393F07F4FF4
:1004380081F06051704732F07F4208BF704793F0F7
:100448007F4F04BF41F40021704730B54FF460740A
:1004580001F0004521F000411CE700BF50EA01020D
:1004680008BF704730B54FF000050AE050EA0102B6
:1004780008BF704730B511F0004502D5404261EB26
:1004880041014FF4806404F132045FEA915C3FF467
:10049800D8AE4FF003025FEADC0C18BF03325FEA04
:1004A800DC0C18BF033202EBDC02C2F1200300FAB5
:1004B80003FC20FA02F001FA03FE40EA0E0021FADA
:1004C80002F11444BDE600BF70B54FF0FF0C4CF4C8
:1004D800E06C1CEA11541DBF1CEA135594EA0C0F7A
:1004E80095EA0C0F00F0DEF82C4481EA030621EAB5
:1004F8004C5123EA4C5350EA013518BF52EA0335F0
:1005080041F4801143F4801338D0A0FB02CE4FF0A1
:100518000005E1FB02E506F00042E0FB03E54FF0D1
:100528000006E1FB03569CF0000F18BF4EF0010EC9
:10053800A4F1FF04B6F5007F64F5407404D25FEAC5
:100548004E0E6D4146EB060642EAC62141EA555178
:100558004FEAC52040EA5E504FEACE2EB4F1FD0CBA
:1005680088BFBCF5E06F1ED8BEF1004F08BF5FEA38
:10057800500E50F1000041EB045170BD06F00046EA
:1005880046EA010140EA020081EA0301B4EB5C0497
:10059800C2BFD4EB0C0541EA045170BD41F480118F
:1005A8004FF0000E013C00F3AB8014F1360FDEBFB4
:1005B800002001F0004170BDC4F10004203C35DA90
:1005C8000C341BDC04F11404C4F1200500FA05F313
:1005D80020FA04F001FA05F240EA020001F00042B4
:1005E80021F0004110EBD37021FA04F642EB06012A
:1005F8005EEA430E08BF20EAD37070BDC4F10C0454
:10060800C4F1200500FA04F320FA05F001FA04F217
:1006180040EA020001F0004110EBD37041F1000103
:100628005EEA430E08BF20EAD37070BDC4F120050E
:1006380000FA05F24EEA020E20FA04F301FA05F276
:1006480043EA020321FA04F001F0004121FA04F21E
:1006580020EA020000EBD3705EEA430E08BF20EAEE
:10066800D37070BD94F0000F0FD101F00046400028
:1006780041EB010111F4801F08BF013CF7D041EAAA
:10068800060195F0000F18BF704703F000465200AE
:1006980043EB030313F4801F08BF013DF7D043EA7F
:1006A8000603704794EA0C0F0CEA135518BF95EA35
:1006B8000C0F0CD050EA410618BF52EA4306D1D1BC
:1006C80081EA030101F000414FF0000070BD50EADB
:1006D800410606BF1046194652EA430619D094EA65
:1006E8000C0F02D150EA013613D195EA0C0F05D14F
:1006F80052EA03361CBF104619460AD181EA0301A3
:1007080001F0004141F0FE4141F470014FF000005A
:1007180070BD41F0FE4141F4780170BD70B54FF0F5
:10072800FF0C4CF4E06C1CEA11541DBF1CEA135575
:1007380094EA0C0F95EA0C0F00F0A7F8A4EB050457
:1007480081EA030E52EA03354FEA013100F088804E
:100758004FEA03334FF0805545EA131343EA126317
:100768004FEA022245EA111545EA10654FEA0026CC
:100778000EF000419D4208BF964244F1FD0404F585
:10078800407402D25B084FEA3202B61A65EB0305E1
:100798005B084FEA32024FF480104FF4002CB6EB9E
:1007A800020E75EB030E22BFB61A754640EA0C001E
:1007B8005B084FEA3202B6EB020E75EB030E22BF5E
:1007C800B61A754640EA5C005B084FEA3202B6EB9F
:1007D800020E75EB030E22BFB61A754640EA9C005E
:1007E8005B084FEA3202B6EB020E75EB030E22BF2E
:1007F800B61A754640EADC0055EA060E18D04FEAEC
:10080800051545EA16754FEA06164FEAC30343EA8B
:1008180052734FEAC2025FEA1C1CC0D111F4801F58
:100828000BD141EA00014FF000004FF0004CB6E751
:1008380011F4801F04BF01430020B4F1FD0C88BFF0
:10084800BCF5E06F3FF6AFAEB5EB030C04BFB6EBFB
:10085800020C5FEA500C50F1000041EB045170BDEE
:100868000EF0004E4EEA113114EB5C04C2BFD4EB1B
:100878000C0541EA045170BD41F480114FF0000E9F
:10088800013C90E645EA060E8DE60CEA135594EA1B
:100898000C0F08BF95EA0C0F3FF43BAF94EA0C0F1E
:1008A8000AD150EA01347FF434AF95EA0C0F7FF493
:1008B80025AF104619462CE795EA0C0F06D152EAE7
:1008C80003353FF4FDAE1046194622E750EA4106CB
:1008D80018BF52EA43067FF4C5AE50EA41047FF4DC
:1008E8000DAF52EA43057FF4EBAE12E74FF0FF3C41
:1008F80006E000BF4FF0010C02E000BF4FF0010C12
:100908004DF804CD4FEA410C7FEA6C5C4FEA430C8A
:1009180018BF7FEA6C5C1BD001B050EA410C0CBFD9
:1009280052EA430C91EA030F02BF90EA020F00203B
:10093800704710F1000F91EA030F58BF994208BFA2
:1009480090422CBFD8176FEAE37040F0010070475F
:100958004FEA410C7FEA6C5C02D150EA013C07D1B6
:100968004FEA430C7FEA6C5CD6D152EA033CD3D001
:100978005DF8040B704700BF8446104662468C46FB
:100988001946634600E000BF01B5FFF7B7FF00282E
:1009980048BF10F1000F01BD4DF808EDFFF7F4FF57
:1009A8000CBF012000205DF808FB00BF4DF808EDE2
:1009B800FFF7EAFF34BF012000205DF808FB00BF05
:1009C8004DF808EDFFF7E0FF94BF012000205DF827
:1009D80008FB00BF4DF808EDFFF7CEFF94BF0120DC
:1009E80000205DF808FB00BF4DF808EDFFF7C4FFD5
:1009F80034BF012000205DF808FB00BF4FEA410228
:100A0800B2F1E04324BFB3F5001CDCF1FE5C0DD964
:100A180001F0004C4FEAC0024CEA5070B2F1004FAE
:100A280040EB830008BF20F00100704711F0804FB1
:100A380021D113F13872BCBF01F00040704741F476
:100A480080114FEA5252C2F11802C2F1200C10FA7A
:100A58000CF320FA02F018BF40F001004FEAC1235E
:100A68004FEAD32303FA0CFC40EA0C0023FA02F302
:100A78004FEA4303CCE77FEA625307D150EA0133D8
:100A88001EBF4FF0FE4040F44000704701F00040A8
:100A980040F0FE4040F40000704700BF80F0004086
:100AA80002E000BF81F0004142001FBF5FEA41033E
:100AB80092EA030F7FEA226C7FEA236C6AD04FEA3E
:100AC8001262D2EB1363C1BFD21841404840414083
:100AD800B8BF5B42192B88BF704710F0004F40F435
:100AE800000020F07F4018BF404211F0004F41F451
:100AF800000121F07F4118BF494292EA030F3FD01D
:100B0800A2F1010241FA03FC10EB0C00C3F120032F
:100B180001FA03F100F0004302D5494260EB4000BE
:100B2800B0F5000F13D3B0F1807F06D340084FEA29
:100B3800310102F10102FE2A51D2B1F1004F40EB1E
:100B4800C25008BF20F0010040EA03007047490086
:100B580040EB0000013A28BFB0F5000FEDD2B0FA23
:100B680080FCACF1080CB2EB0C0200FA0CF0AABF46
:100B780000EBC25052421843BCBFD04018437047E4
:100B880092F0000F81F4000106BF80F400000132EA
:100B9800013BB5E74FEA41037FEA226C18BF7FEAC1
:100BA800236C21D092EA030F04D092F0000F08BF03
:100BB8000846704790EA010F1CBF0020704712F0EA
:100BC8007F4F04D1400028BF40F00040704712F129
:100BD80000723CBF00F50000704700F0004343F08E
:100BE800FE4040F4000070477FEA226216BF0846C4
:100BF8007FEA23630146420206BF5FEA412390EA87
:100C0800010F40F4800070474FF0000304E000BF7C
:100C180010F0004348BF40425FEA000C08BF70472D
:100C280043F0964301464FF000001CE050EA0102F1
:100C380008BF70474FF000030AE000BF50EA010206
:100C480008BF704711F0004302D5404261EB4101F3
:100C58005FEA010C02BF84460146002043F0B64318
:100C680008BFA3F18053A3F50003BCFA8CF2083A3D
:100C7800A3EBC25310DB01FA02FC634400FA02FC46
:100C8800C2F12002BCF1004F20FA02F243EB02004D
:100C980008BF20F00100704702F1200201FA02FCAF
:100CA800C2F1200250EA4C0021FA02F243EB0200A2
:100CB80008BF20EADC7070474FF0FF0C1CEAD052E6
:100CC8001EBF1CEAD15392EA0C0F93EA0C0F6FD0A7
:100CD8001A4480EA010C400218BF5FEA41211ED085
:100CE8004FF0006343EA501043EA5111A0FB013171
:100CF8000CF00040B1F5000F3EBF490041EAD37146
:100D08005B0040EA010062F17F02FD2A1DD8B3F1C1
:100D1800004F40EBC25008BF20F00100704790F030
:100D2800000F0CF0004C08BF49024CEA502040EA82
:100D380051207F3AC2BFD2F1FF0340EAC250704748
:100D480040F400004FF00003013A5DDC12F1190F86
:100D5800DCBF00F000407047C2F10002410021FAF8
:100D680002F1C2F1200200FA02FC5FEA310040F110
:100D7800000053EA4C0308BF20EADC70704792F089
:100D8800000F00F0004C02BF400010F4000F013AC1
:100D9800F9D040EA0C0093F0000F01F0004C02BFBC
:100DA800490011F4000F013BF9D041EA0C018FE72B
:100DB8000CEAD15392EA0C0F18BF93EA0C0F0AD031
:100DC80030F0004C18BF31F0004CD8D180EA010057
:100DD80000F00040704790F0000F17BF90F0004FF0
:100DE800084691F0000F91F0004F14D092EA0C0FD2
:100DF80001D142020FD193EA0C0F03D14B0218BF65
:100E0800084608D180EA010000F0004040F0FE40AA
:100E180040F40000704740F0FE4040F44000704746
:100E28004FF0FF0C1CEAD0521EBF1CEAD15392EAC5
:100E38000C0F93EA0C0F69D0A2EB030280EA010CB5
:100E480049024FEA402037D04FF0805343EA11114E
:100E580043EA10130CF000408B4238BF5B0042F1AC
:100E68007D024FF4000C8B4224BF5B1A40EA0C0051
:100E7800B3EB510F24BFA3EB510340EA5C00B3EB83
:100E8800910F24BFA3EB910340EA9C00B3EBD10F71
:100E980024BFA3EBD10340EADC001B0118BF5FEAC3
:100EA8001C1CE0D1FD2A3FF650AF8B4240EBC250EC
:100EB80008BF20F0010070470CF0004C4CEA5020AD
:100EC8007F32C2BFD2F1FF0340EAC250704740F4FC
:100ED80000004FF00003013A37E792F0000F00F0EE
:100EE800004C02BF400010F4000F013AF9D040EA6C
:100EF8000C0093F0000F01F0004C02BF490011F400
:100F0800000F013BF9D041EA0C0195E70CEAD153F7
:100F180092EA0C0F08D142027FF47DAF93EA0C0FDE
:100F28007FF470AF084676E793EA0C0F04D14B02C2
:100F38003FF44CAF08466EE730F0004C18BF31F074
:100F4800004CCAD130F000427FF45CAF31F000436E
:100F58007FF43CAF5FE700BF4FF0FF3C06E000BF07
:100F68004FF0010C02E000BF4FF0010C4DF804CD2A
:100F78004FEA40024FEA41037FEA226C18BF7FEA3A
:100F8800236C11D001B052EA530C18BF90EA010F3C
:100F980058BFB2EB030088BFC81738BF6FEAE170CB
:100FA80018BF40F0010070477FEA226C02D15FEA67
:100FB800402C05D17FEA236CE4D15FEA412CE1D0D3
:100FC8005DF8040B704700BF844608466146FFE79A
:100FD8000FB5FFF7C9FF002848BF10F1000F0FBD7C
:100FE8004DF808EDFFF7F4FF0CBF012000205DF875
:100FF80008FB00BF4DF808EDFFF7EAFF34BF0120FA
:1010080000205DF808FB00BF4DF808EDFFF7E0FF92
:1010180094BF012000205DF808FB00BF4DF808EDE3
:10102800FFF7D2FF94BF012000205DF808FB00BF46
:101038004DF808EDFFF7C8FF34BF012000205DF828
:1010480008FB00BF42000ED2B2F1FE4F0BD34FF0A7
:101058009E03B3EB126209D44FEA002343F0004326
:1010680023FA02F070474FF00000704712F1610F49
:1010780001D1420202D14FF0FF3070474FF000001B
:10108800704700BF53B94AB9002908BF00281CBFE0
:101098004FF0FF314FF0FF3000F00CB8ADF1080C05
:1010A8006DE904CE00F008F8DDF804E0DDE902237C
:1010B80004B07047704700BF2DE9F04786468C465C
:1010C8000846089E154674461946002B40F0C18014
:1010D8008542B2FA82F245D94AB1C2F1200300FA38
:1010E80002FC954094402EFA03F343EA0C0C4FEAB5
:1010F800154EA8B2230CBCFBFEF80EFB18CC08FB5F
:1011080000F943EA0C43994528D9EB1808F1FF3751
:1011180004D2994502D9A8F102072B44A3EB09038D
:10112800A4B2B3FBFEFC0EFB1C330CFB00F044EA3C
:101138000344A04214D92C190CF1FF3304D2A04265
:1011480002D9ACF102032C44241A43EA07401EB129
:10115800D440002334607360BDE8F0874746DDE77C
:101168006346F1E792BB431B01214FEA154EAFB22C
:10117800200CB3FBFEFC0EFB1C330CFB07F840EA0B
:101188000343984561D9EB180CF1FF3004D2984518
:1011980002D9ACF102002B44A3EB0803A4B2B3FBC1
:1011A800FEFC0EFB1C330CFB07F744EA0344A74282
:1011B8004DD92C190CF1FF3304D2A74202D9ACF156
:1011C80002032C44E41B43EA0040C0E7C2F12003B9
:1011D8009540944020FA03F12EFA03F34FEA154E96
:1011E8009040AFB20343B1FBFEFC0EFB1C10190C80
:1011F8000CFB07F841EA0041884522D969180CF12F
:10120800FF3004D2884502D9ACF102002944A1EB91
:1012180008019BB2B1FBFEFC0EFB1C110CFB07F78F
:1012280043EA01439F420ED9EB180CF1FF3104D277
:101238009F4202D9ACF102012B44DB1B41EA004179
:1012480093E76046E3E76146F7E76046A4E763464D
:10125800B8E7834206D916B9002108467CE7C6E9F3
:1012680000E0F9E7B3FA83F78FB9834201D37245F7
:1012780008D8BEEB020460EB030301209C461EB9AC
:10128800002169E73846FAE7C6E9004CF8E7C7F1F4
:10129800200CBB400EFA07F522FA0CF42EFA0CF1DA
:1012A800BA401C4320FA0CF3B8404FEA14490143F2
:1012B8001FFA84FEB3FBF9F809FB18300B0C08FB86
:1012C8000EFA43EA00439A4540D9E31808F1FF3083
:1012D80004D29A4502D9A8F102002344A3EB0A03D9
:1012E80089B2B3FBF9F809FB183308FB0EFE41EA93
:1012F80003418E452CD9611808F1FF3304D28E457D
:1013080002D9A8F10203214443EA0040A1EB0E01EF
:10131800A0FB02984145CE46434602D306D14D452F
:1013280004D20138B9EB020E68EB0403002EA7D0F3
:10133800B5EB0E0261EB030101FA0CFC22FA07F38C
:10134800F9404CEA0303C6E9003199E74046C5E78E
:101358004346D9E7000000002DE9F0430646CDB02A
:101368000A200F4607F07FFE0A2800F245824FF058
:10137800010E4FF08073CDE903E30023904C03A8DE
:10138800059307F0F7FC237D012B03D094F8B433C1
:10139800002B3ED1236AA26D329394F851304FF05E
:1013A800050C3D9394F8503036920A223C93012361
:1013B8000025CDE9382C626D4193E36D3492A26922
:1013C8003E93236E3192E26E3F9394F864302F92ED
:1013D80094F868208DF80031636B012A30938DF8FA
:1013E800DC50339540F0FD81DFF8D881E567A8F13E
:1013F8002809636F9D42C0F0E8810023E367D4F8B1
:101408009030C4F88830D4F89430C4F88C30002375
:1014180023750021022007F0A2FC01238DF8283053
:101428000223CDE90B330D93636A0AA80E9307F0E4
:101438006BFC4FF0FF3007F0F3FD94F8B4331BB1A9
:101448002378012B40F08D81002E00F0D881002FE9
:1014580000F0D58100253946304601F0C3FC012053
:1014680001F0E0FC584B06A80693013B07938DF862
:101478002150ADF822508DF8245007F000FA236C63
:1014880005203393636C4FF4C0463493A36C8DF8F6
:101498001C513593A36D439546930B23CDE94830F2
:1014A800636D2F9544934FF44063CDE930634FF457
:1014B800807332930223369394F86830ADF8DC5089
:1014C800012B40F095814149E36EA1F11C00E567CD
:1014D800C4F8B033C4F8803001F02EFED4F8800090
:1014E800A16901F0D3FF3A493E90E06BFFF798FC01
:1014F8003849FFF7E1FB4FF07C51FFF7D5FAFFF7CA
:10150800A1FD00263F902FA8CDE9406607F0B6FA66
:101518001E23CDE91336304B4FF0020815931F23D5
:10152800ADF8583043F2E0331C9340F20113012721
:101538004FF003090FA8ADF87430CDE90F66CDE977
:101548001166CDE91886CDE91A66179607F024FBCF
:10155800E36C1EA8209394F85130CDE91E772293AE
:1015680094F85030CDE927662193E36DCDE92397B0
:101578002993236ECDE92C662A9394F86430ADF84C
:1015880094708DF8AC308DF898702E9607F0A6FB05
:101598003946124807F041F9304607F071FC4FF020
:1015A800014001F009FC02A901A801F02FFC054641
:1015B800304601F037FC002D40F0038110E000BFF9
:1015C800000000209000002001010100840000209C
:1015D8000000484400E0FF4400018B06604E110003
:1015E800029A60680199C4F8C023C4F8BC03C4F81F
:1015F800C813C4F8B87307F0FEFB236E216A34934E
:10160800E36DA069434407FA03F3309394F851302B
:101618003395329394F85030CDF8BC903193FFF75E
:10162800FFFB0FA936902FA801F0C8FC384601F03F
:10163800F9FB402007F024FC4FF47A6001F0BCFB72
:1016480010224FF48063CDE91E234FF481731EA846
:101658002193CDF8808007F067F93946384607F0BE
:10166800DCFA39464FF4814007F0D7F84FF4487058
:1016780001F0A2FB39464FF4014007F0CEF80F986D
:1016880020F0404001F098FB29464CF2801007F00A
:10169800C4F80621072007F0C0FA39464FF4814004
:1016A80007F0BBF84FF4487001F086FB39464FF459
:1016B800014007F0B2F80F9820F0404001F07CFBA1
:1016C80029464CF2801007F0A8F84FF4C0414FF4B7
:1016D8004063CDE91F134FF480731EA821931E9514
:1016E80007F022F9284607F0CBFB07F0AFFC06A964
:1016F80002A801F08BFB0546304601F093FB01F090
:101708009BFBC4F8E8030A30FEF764FE0022404B56
:10171800FEF7DAFE3CA3D3E90023FEF7D5FE024626
:101728000B4600203B49FEF7F9FFFFF767F9A16A6E
:10173800C4F8EC030646FFF75DFC00B1A662002D75
:101748003FD1D4E9EF030299069A1844C4F8CC5360
:10175800C4F8D003C4F8DC13C4F8D42307F04BFB57
:10176800257000232C4884F8C43307F058FB012364
:1017780003A88DF8103007F0FDFAD4F8B80307F085
:1017880031FB4FF40041012007F04FFC0028F8D04E
:1017980000250126214884F8D85307F040FB03A808
:1017A8008DF8106007F0E6FA07F093FC0321A06BB0
:1017B80007F05FF8082142F25C3001F08BFD84F8F5
:1017C800B46328464DB0BDE8F08341462FA801F028
:1017D80093FE48462FA901F0AFFC013508F108082F
:1017E80007E6236B0E492FA82F9301F085FE0EE61E
:1017F800206BC4F8B00373E66FF00805E1E76FF0FB
:101808000105DEE7AFF300808DEDB5A0F7C6B03E69
:101818000000B03F0000F03FB8030020CC030020D8
:1018280088000020000000002DE9F84F1746904678
:10183800994623F000427B42DFF8E4A104460D46B6
:101848003B4342EAD373534509D8464221F000434B
:101858008E468346064343EAD676564508D942461D
:101868004B4620462946FEF779FC04460D4616E00D
:1018780009F1404606F580163E4303D1BDE8F84F0E
:1018880000F0DEBE4FEAA97653EA0B0B06F002061B
:1018980046EAD17617D1022E05D0032E0AD020466B
:1018A8002946BDE8F88F48A3D3E9002348A1D1E928
:1018B8000001D8E744A3D3E9002347A1D1E90001F7
:1018C800FEF74AFCD1E717430DD1BEF1000F3EA346
:1018D800D3E9002303DA42A1D1E90001F0E742A1EC
:1018E800D1E90001BFE7524524D1934218D1022E15
:1018F80035A3D3E900230BD0032E0DD0012E03D03E
:101908003BA1D1E90001AEE73BA1D1E90001D7E74E
:101918003BA1D1E90001A6E73BA1D1E90001CFE74E
:10192800022EC0D0032EC5D0012E4FF0000448D09F
:101938000025B4E75345C8D09B1AB3F1747F4FEA2A
:1019480023521ADB32A3D3E9002327A1D1E90001EE
:10195800FEF704FC04460D46012E21D0022E23D0AA
:10196800002E9CD0204629462BA3D3E90023FEF75E
:10197800F3FB17A3D3E90023A2E7B9F1000F01DABB
:101988003C320ADB42464B4620462946FEF7C6FE55
:1019980021F0004100F054FEDCE700240025DBE7DD
:1019A80005F100431D467AE71BA3D3E9002320462F
:1019B8002946FEF7D1FB02460B4605A1D1E90001F5
:1019C8007EE74FF000456AE759F3F8C21F6EA5019C
:1019D800182D4454FB210940182D4454FB2109C0FB
:1019E800182D4454FB21F9BF182D4454FB21F93F0D
:1019F800182D4454FB21E93F182D4454FB21E9BF1D
:101A0800D221337F7CD90240D221337F7CD902C0D6
:101A1800075C143326A6913C075C143326A6A13C28
:101A28000000F07F00000000B1F5801F2DE9F843A9
:101A380004460D460B4622DA21F00042024304D147
:101A48000120BDE8F84306F0F1BD002903DABDE83E
:101A5800F84306F0F7BD00222F4BFEF735FD6FF077
:101A6800350204460D460B462C498B4209DD2246B9
:101A78002B4620462946FEF771FBBDE8F883002275
:101A8800F2E71815C3F31308A0F2FF3010444FEA29
:101A9800D07900EBD070FEF7ADFCC9F57F73064630
:101AA8000F460333204648EA0355294600F060FFF5
:101AB800804689463046394611A3D3E90023FEF70C
:101AC80003FD04460D46404649460FA3D3E90023CB
:101AD800FEF7FAFC02460B4620462946FEF73EFB77
:101AE80004460D463046394609A3D3E90023FEF7DC
:101AF800EBFC02460B4620462946BCE7AFF30080C4
:101B0800362BF111F3FE593D0EE526157BCBDB3F55
:101B180000609F501344D33F00005043FFFFEF7F06
:101B28002DE9F04F91B00D460446CDE90023DDE9DB
:101B3800007B2BF0004252EA070111D1031885F40B
:101B4800002252419942864B934180F0D180204631
:101B58002946DDE90023FEF701FB04460D4618E09F
:101B680025F000487F4BA946844698451DD815D1D5
:101B78000028ECD14245EAD826D1002FE7D17A4B8C
:101B8800984540F2B880BBF1000FC0F21E85DDE930
:101B980000452046294611B0BDE8F08F9A4204D886
:101BA800C64612D1002F00F09C8009F1404909F582
:101BB800801959EA0C09CAD1FA198BF400235B4140
:101BC8009145674A9A41C0E7C646B9F1000F2BDA3A
:101BD800664B9A422DD9002F00F0BA800226204683
:101BE80025F00041BCF1000F00F0A9824FEAD9733B
:101BF80003F1FF3A5AEA060C00F0BB82B2F1844FB7
:101C080040F2CF805A4CA242574A40F2D6829045C1
:101C180000F2C982BBF1000F80F2C982002011B026
:101C2800BDE8F04F06F0F6BC002F00F081800026DA
:101C3800D5E74D4B9A421AD8002FF8D1BBF1804F07
:101C48007DD04C4B3E469B45C9D1204625F00041EE
:101C5800BCF1000F40F09D80424B984540F0B9849C
:101C6800012E04460D4694D101F1004591E7131564
:101C7800A3F2FF33142B1DDDC3F1340327FA03F657
:101C880006FA03F3BB4228D106F00106C6F10206A4
:101C9800002FA4D1BBF1804FA1D1374B98459ED8D6
:101CA800364B98456ED922462B4620462946FEF7E4
:101CB8000BFC52E7002F40F03B82C3F1140342FAB9
:101CC80003F606FA03F393422D4B1DD19A421DD019
:101CD80006F00106C6F10206DCE7002FA7D13E4652
:101CE800D8E708F1404303F5801303437FF447AF77
:101CF8000024234D4DE7BBF1000F80F26684DDE937
:101D0800004303F1004544E79A42E8D1BBF1000FD4
:101D1800BFF63FAF0022002320462946FEF73CFECF
:101D280078B14FEAD97011B0BDE8F04F06F07EBC2B
:101D3800134B9A42EAD0BBF1804F40F0EF813E4608
:101D4800ABE722462B4600200D49FEF7E7FC04E7E7
:101D5800BBF1804F02D0074B022674E702269CE7AE
:101D68000000F0FF0000F07FFFFFEF3FFFFF3F4361
:101D78000000F0430000E03FFFFFEF5F0000501E4F
:101D88000000F03F5CEA080C204625F0004100F016
:101D980028844FEAD97303F1FF3A56EA0A0300F0A0
:101DA800E881C74B002209EA03032BB9C54BFEF7AC
:101DB8008BFB6FF034028E464FEA2E53CEF3130E90
:101DC800A3F2FF334EF07F55134445F440150C93AE
:101DD800BD4B9E4508DDBD4B9E4540F3A8820C9B3C
:101DE800A5F5801501330C930024E30029466D10F6
:101DF8000D93B74B45F0005503EBC40305F50025DB
:101E0800D3E90023CDE90A01CDE90823FEF7A4F9B7
:101E180080468946DDE90A23DDE90801FEF79EF9D7
:101E280002460B460020AB49FEF778FC02460B46FB
:101E3800CDE90E0140464946FEF746FBCDE90601CD
:101E4800DDE90623CDE9042300230493DDE9042317
:101E5800CDE9022305EB844300221D46144629469A
:101E68002046DDE90223FEF72FFB02460B464046DB
:101E78004946FEF771F98046894620462946DDE93C
:101E88000823FEF769F902460B46DDE90A01FEF769
:101E980063F9DDE90223FEF717FB02460B464046CD
:101EA8004946FEF759F9DDE90E23FEF70DFBDDE99A
:101EB8000623CDE9080110461946FEF705FB8046C2
:101EC80089466DA3D3E90023FEF7FEFA6CA3D3E994
:101ED8000023FEF743F942464B46FEF7F5FA6AA39C
:101EE800D3E90023FEF73AF942464B46FEF7ECFAEF
:101EF80067A3D3E90023FEF731F942464B46FEF7C4
:101F0800E3FA65A3D3E90023FEF728F942464B46D6
:101F1800FEF7DAFA62A3D3E90023FEF71FF90446B5
:101F28000D4642464B4640464946FEF7CDFA024624
:101F38000B4620462946FEF7C7FA04460D46DDE95A
:101F48000223DDE90601FEF709F9DDE90823FEF7BA
:101F5800BBFA22462B46FEF701F904460D46DDE999
:101F6800022310461946FEF7AFFA02460B46CDE9A2
:101F78000A230022584BFEF7F1F822462B46FEF7BB
:101F8800EDF8002089468046DDE90223FEF79CFA39
:101F98000022514BCDE9020140464946FEF7DCF8E4
:101FA800DDE90A23FEF7D8F802460B462046294603
:101FB800FEF7D2F8DDE90623FEF786FA04460D4659
:101FC80040464946DDE90823FEF77EFA02460B46FD
:101FD80020462946FEF7C2F804460D4602460B463F
:101FE800DDE90201FEF7BAF80020894680462EA3F3
:101FF800D3E90023FEF768FADDE90223CDE90601FB
:1020080040464946FEF7A8F802460B4620462946B0
:10201800FEF7A2F826A3D3E90023FEF755FA0446F3
:102028000D464046494624A3D3E90023FEF74CFA5F
:1020380002460B4620462946FEF790F80D9A274B94
:102048001344D3E90023FEF789F8CDE908010C9879
:10205800FEF7D0F90D9A224B04460D461344D3E9F6
:102068000023DDE90601CDE90223DDE90823FEF7B7
:1020780075F837E0AFF30080EF4E454A287ECA3F37
:1020880065DBC9934A86CD3F01411DA96074D13FE4
:102098004D268F515555D53FFFAB6FDBB66DDB3FF6
:1020A800033333333333E33F000000E009C7EE3F27
:1020B800FD033ADC09C7EE3FF5015B14E02F3EBE95
:1020C8000000F07F000040438E98030079B60B00B3
:1020D800E8B100000000F03F00000840C8B100006F
:1020E800D8B10000DDE90223FEF738F822462B4676
:1020F800FEF734F8002022462B4680468946FEF734
:102108002BF8DDE90223FEF727F8DDE90623FEF7C1
:1021180023F802460B46DDE90801B9E0B04B9B45C0
:102128002ED12046294611B0BDE8F04F06F03AB945
:10213800BCF1000F1DD1204625F00041664629F06C
:10214800404CA84B9C451DD1BBF1000F05DA024657
:102158000B460020A349FEF7E1FAB9F1000FBFF6DC
:10216800FCAC08F1404808F5801858EA06087FF4E6
:1021780077AD2046294611B0BDE8F04F06F062BAA7
:102188003E462CE5B8F1000F7FF430ADBBF1000FEF
:1021980080F22782B9F1000F03DA731E58425841C2
:1021A800C1E54046BFE5BBF1000F3FF737AD002062
:1021B80011B0BDE8F04F08F0F6BC904505D2BBF170
:1021C800000F03EA0600F3DA29E5864A904506D9A6
:1021D800BBF1000F03EA06003FF721ADE8E7002254
:1021E800804BFDF7B9FF04460D4673A3D3E90023DE
:1021F800FEF76AF972A3D3E90023CDE9020120466C
:102208002946FEF761F90022774BCDE90401204603
:102218002946FEF759F902460B466BA1D1E90001A0
:10222800FDF79AFF22462B46FEF74EF902460B466B
:1022380000206B49FDF790FF8046894622462B46D1
:1022480020462946FEF740F902460B4640464946D5
:10225800FEF73AF95EA3D3E90023FEF735F9024603
:102268000B46DDE90401FDF777FF02460B460446FD
:102278000D46DDE90201FDF771FF00208946804621
:10228800DDE90223FDF768FF02460B462046294692
:10229800013EFDF761FF0022044656EA0A064FF0A8
:1022A80000060D4618BF4F4BB24608BF4F4BDDE93D
:1022B8000001CDE902235B463246FDF74DFF424659
:1022C8004B46FEF701F9DDE90023CDE9040120467C
:1022D8002946FEF7F9F802460B46DDE90401FDF749
:1022E8003DFF5B463246CDE9000140464946FEF7D0
:1022F800EBF80B46024680468946DDE90001FDF70A
:102308002DFF3B4B04460D4699428B4631DD01F1CA
:102318003F4303F5E00303430BD000220023DDE92C
:102328000201FEF743FB801B18BF012077E401245C
:102338005BE529A3D3E90023DDE90001FDF70EFFE2
:1023480006460F4642464B4620462946FDF704FFFF
:1023580002460B4630463946FEF746FB30B30022AC
:102368000023DDE90201FEF721FB003818BF012038
:1023780055E421F000431F4CA3423FD91E4B0B44A8
:10238800034309D000220023DDE90201FEF70EFB1A
:10239800003818BF01200BE742464B46FDF7DCFE2C
:1023A800DDE90023FEF716FB0028EBD140F20943D4
:1023B80028E000BFAFF30080000000604715F73F3A
:1023C80044DF5DF80BAE543E555555555555D53F30
:1023D800FE822B654715F73FFE822B654715973C14
:1023E8000000E03F0000F03F0000D03F0000F0BFD9
:1023F800FFFF8F40FFCB904000346F3F8C4A9342E1
:1024080025D91B15A3F2FE334FF4801A8948BBF176
:10241800000F4AFA03FA4FF00002DA44CAF30A51ED
:10242800A1F2FF3140FA01F0C1F1140100EA0A03F8
:10243800CAF3130A40464AF4801A4AFA01FA49468E
:10244800B8BFCAF1000AFDF787FE80468946002416
:1024580040464946DDE90023FDF780FE0D4620464B
:1024680063A3D3E90023FEF72FF8424606460F463A
:102478004B4620462946FDF76FFE02460B46DDE92E
:102488000001FDF769FE5CA3D3E90023FEF71CF801
:10249800804689462046294659A3D3E90023FEF7FA
:1024A80013F802460B4640464946FDF757FE0446D8
:1024B8000D4602460B4630463946FDF74FFE32467A
:1024C800804689463B46FDF747FE02460B462046B6
:1024D8002946FDF741FE424606460F464B46404612
:1024E8004946FDF7F1FF04460D4647A3D3E900230B
:1024F800FDF7EAFF46A3D3E90023FDF72DFE2246A8
:102508002B46FDF7E1FF44A3D3E90023FDF726FEA0
:1025180022462B46FDF7D8FF41A3D3E90023FDF758
:102528001BFE22462B46FDF7CFFF3FA3D3E900232E
:10253800FDF714FE22462B46FDF7C6FF02460B4662
:1025480040464946FDF708FE04460D4602460B463E
:1025580040464946FDF7B8FF00224FF08043CDE9D9
:10256800000120462946FDF7F7FD02460B46DDE946
:102578000001FEF7D3F8324604460D463B46404676
:102588004946FDF7A1FF32463B46FDF7E7FD024607
:102598000B4620462946FDF7DFFD42464B46FDF730
:1025A800DBFD02460B4600202349FDF7D5FD01EB74
:1025B8000A54B4F5801F06DA524605F0ADFFDDE98E
:1025C8000223FFF774BB2146F9E700240025FFF733
:1025D800E0BA194B98453FF4C4ADB8F1000F7FF449
:1025E800D8AB012E7FF4B9AAFFF7D3BAAFF30080B6
:1025F80000000000432EE63FEF39FAFE422EE63F88
:10260800396CA80C615C20BED0A4BE726937663EE6
:10261800F16BD2C541BDBB3E2CDE25AF6A56113FDA
:1026280093BDBE166CC1663F3E5555555555C53FC1
:102638000000E03F0000F0FF0000F03F0000000055
:102648002DE9F84FC04A21F0004304460D46934255
:102658008B4620D9BD4A934201D80CD158B12246A5
:102668002B4620462946FDF779FD04460D462046AF
:102678002946BDE8F88FBBF1000F95A3D3E90023E5
:1026880003DD95A1D1E90001EDE795A1D1E90001AC
:10269800FDF762FDE9E7AE4A934211D8A2F1DE7276
:1026A80093420AD890A3D3E90023FDF757FD0022EF
:1026B800A84BFEF799F90028D9D14FF0FF3A27E047
:1026C800A54A064621F00047934200F2B880A2F5D9
:1026D8005022934200F29B8002463B4639464FF017
:1026E800000AFDF73BFD00229A4BFDF735FD044635
:1026F8000D4600224FF0804330463946FDF72EFD47
:1027080002460B4620462946FEF708F804460D46C1
:1027180022462B4620462946FDF7D6FE02460B46A2
:1027280080468946FDF7D0FE06460F4670A3D3E9DA
:102738000023FDF7C9FE70A3D3E90023FDF70EFDC2
:1027480032463B46FDF7C0FE6DA3D3E90023FDF7F3
:1027580005FD32463B46FDF7B7FE6BA3D3E90023E0
:10276800FDF7FCFC32463B46FDF7AEFE68A3D3E915
:102778000023FDF7F3FC32463B46FDF7A5FE66A3B2
:10278800D3E90023FDF7EAFC42464B46FDF79CFEE1
:10279800804689463046394661A3D3E90023FDF7D0
:1027A80093FE61A3D3E90023FDF7D6FC32463B46EE
:1027B800FDF78AFE5EA3D3E90023FDF7CDFC324680
:1027C8003B46FDF781FE5CA3D3E90023FDF7C4FC7B
:1027D80032463B46FDF778FE59A3D3E90023FDF7BF
:1027E800BBFC32463B46FDF76FFE02460B464046B1
:1027F8004946FDF7B3FC22462B46FDF765FEBAF1C4
:10280800FF3F02460B4644D12046294640E70022B6
:10281800504B39464FF0010AFDF79EFC04460D4621
:1028280000224C4B30463946FDF798FC02460B46D1
:1028380020462946FDF772FF04460D4668E7474AD9
:1028480093421BD20022464B39464FF0020AFDF74D
:1028580083FC002204460D46414B30463946FDF7BD
:1028680033FE00223B4BFDF779FC02460B4620461F
:102878002946FDF753FF04460D4649E702463B4605
:1028880000203849FDF74AFF4FF0030A04460D4679
:102898003EE7354B354E03EBCA0306EBCA06D3E9D0
:1028A8000023FDF759FC22462B46FDF755FC02464E
:1028B8000B46D6E90001FDF74FFCBBF1000F0446BB
:1028C8000D46BFBF024601F1004314461D46CEE641
:1028D800075C143326A6913C182D4454FB21F93F7C
:1028E800182D4454FB21F9BF9C7500883CE4377EC1
:1028F80011DA22E33AAD903FEB0D76244B7BA93FEA
:10290800513DD0A0660DB13F6E204CC5CD45B73FB7
:10291800FF8300922449C23F0D5555555555D53F63
:102928002F6C6A2C44B4A2BF9AFDDE522DDEAD3F57
:102938006D9A74AFF2B0B33F711623FEC671BC3FF7
:10294800C4EB98999999C93FFFFF0F440000F07FA5
:10295800FFFFDB3F0000F03FFFFFF23F0080034036
:102968000000F83F0000F0BFF8B1000018B2000006
:10297800B1F5801F2DE9F04F074687B088460D4610
:1029880025DA21F00043034305D1012007B0BDE853
:10299800F04F05F04BBE002904DA07B0BDE8F04F50
:1029A80005F050BE0022C64BFDF78EFD88460D4649
:1029B80007466FF03501C34885420ADD3A4643466B
:1029C80038464146FDF7CAFB07B0BDE8F08F002145
:1029D800F1E72C15C5F3130500223846A4F2FF349D
:1029E8000C4405F5152101F6647101F4801686F092
:1029F8007F5104EB165481F4401141EA050319464E
:102A0800B14BFDF7A9FBAB1C82468B46C3F31303FE
:102A18000022022B53DC0023FDF7BEFFD0B1002CAF
:102A280000F020812046FDF7E5FC06460F4690A3FE
:102A3800D3E90023FDF748FD04460D4630463946E4
:102A48008DA3D3E90023FDF73FFD02460B46204640
:102A58002946B7E78AA3D3E9002350465946FDF72C
:102A680033FD02460B4600209849FDF775FB0646E4
:102A78000F4652465B4650465946FDF725FD02462D
:102A88000B4630463946FDF71FFD06460F4614B97A
:102A980032463B46A0E02046FDF7ACFC804689461E
:102AA80073A3D3E90023FDF70FFD04460D46404606
:102AB800494671A3D3E90023FDF706FDA5E04FF0D1
:102AC8008043A5F5C226FDF749FB02460B46504652
:102AD8005946C5F5D725FDF721FEA6F27A465135A8
:102AE800CDE9000120463543FDF784FCDDE90023EC
:102AF800CDE9020110461946FDF7E6FC02460B46F1
:102B0800CDE90423FDF7E0FC804689465EA3D3E9BE
:102B18000023FDF7D9FC5EA3D3E90023FDF71EFBD4
:102B280042464B46FDF7D0FC5BA3D3E90023FDF7F3
:102B380015FB42464B46FDF7C7FC59A3D3E90023D2
:102B4800FDF70CFBDDE90423FDF7BEFC56A3D3E932
:102B58000023CDE9040140464946FDF7B5FC54A3DE
:102B6800D3E90023FDF7FAFA42464B46FDF7ACFCE1
:102B780051A3D3E90023FDF7F1FA42464B46FDF78E
:102B8800A3FC02460B46DDE90401FDF7E7FA002D38
:102B98008046894648DD00224C4B50465946FDF791
:102BA80093FC52465B46FDF78FFC02460B460646F1
:102BB8000F4640464946FDF7D1FADDE90023FDF707
:102BC80083FC8046894664B902460B46304639463E
:102BD800FDF7C2FA02460B4650465946FDF7BCFAC5
:102BE800F2E623A3D3E90023DDE90201FDF76CFC3B
:102BF80004460D4620A3D3E90023DDE90201FDF7D1
:102C080063FC42464B46FDF7A9FA02460B4630469E
:102C18003946FDF7A1FA52465B46FDF79DFA024692
:102C28000B4620462946D9E702460B4650465946E8
:102C3800FDF792FADDE90023FDF746FC06460F464C
:102C4800002C3FF425AF0AA3D3E90023DDE90201F4
:102C5800FDF73AFC04460D4607A3D3E90023DDE956
:102C6800020129E700200021AEE600BFAFF3008093
:102C78000000E0FE422EE63F763C7935EF39EA3D2A
:102C8800555555555555D53F44523EDF12F1C23F73
:102C9800DE03CB966446C73F599322942449D23F1A
:102CA800935555555555E53F9FC678D0099AC33F6A
:102CB800AF788E1DC571CC3F04FA97999999D93F81
:102CC80000005043FFFFEF7F0000F03F0000E03FAF
:102CD80013B5194806F0E2FA00F0A6FE044620BB38
:102CE80000F078FE322005F0B6FC00F07BFE3220C2
:102CF80005F0B1FC114806F0D1FA00F05FFB10486E
:102D080006F0CCFA01A800F0E5FD21462046FEF7C2
:102D180023FB0C4806F0C2FA0021084600F0E4FD47
:102D28004FF47A7005F097FCF6E7074806F0B6FA14
:102D3800002002B010BD00BFA0B40000BAB400006B
:102D4800C7B40000DDB40000ACB4000030B50A4BD5
:102D5800C0F38700D3E9032400239A4202D16FF01D
:102D6800060005E014F82350854202D100200B60CC
:102D780030BD0133F1E700BF6808002010B50D4BE6
:102D8800DC685A6922445C6894420ED91A69800842
:102D9800141F1C6102F8040C1A69106861F31F20E3
:102DA80010605A6901325A6110BD6FF003029A61CE
:102DB800FAE700BF6808002010B5094BD9685A69BE
:102DC8005C680A44944295BF6FF003029A689A615E
:102DD80042F8210082BFDA680132DA6010BD00BF14
:102DE8006808002001290DD90022074BC3E901100A
:102DF80001F180410139C3E9052200EB8100186126
:102E0800DA601A70704700BF68080020044B08B1E8
:102E18009A68026009B1DA680A609869704700BF69
:102E280068080020034B18B100220120DA609A617B
:102E38001870704768080020002010B50A4B9A687F
:102E4800596902EB81018A4200D110BD52F8043B56
:102E5800002B4FEA937401DA0130F4E7E407FBD45E
:102E680023F040431844EEE76808002030B5C368F3
:102E78000446012B0D4687B020D10368022B33D1BD
:102E88000522234B18681B7902908DF80C30214BD2
:102E980018681B7904908DF814300DF10703207918
:102EA80002A905F0E8FB78B301209DF80730183334
:102EB8006B4413F8083C2B7007B030BD23BB036884
:102EC800022BDDD1144B1A889B78ADF808208DF8B9
:102ED8000A30124B1A889B78ADF810208DF8123002
:102EE80003220DF10703DAE70D4B062218689B88C9
:102EF8000290ADF80C300B4B18689B880490ADF825
:102F080014300DF10703CAE700202870D4E700BF8A
:102F1800E8B40000EEB40000F4B40000F8B4000017
:102F2800FCB4000003B5000030B5C3680446012BAB
:102F38000D4687B01CD10368022B28D140F6073311
:102F4800ADF8083040F20A530222ADF810300DF106
:102F58000703207902A905F08EFB40B301209DF8F4
:102F6800073018336B4413F8083C2B7007B030BD9A
:102F7800EBB90268022AE1D140F60933ADF808300E
:102F880040F60F23ADF810300DF10703E1E7094BC8
:102F9800062218689B880290ADF80C30064B18681A
:102FA8009B880490ADF814300DF10703D1E7002099
:102FB8002870DBE70AB5000011B50000F0B58446BB
:102FC80000240F469BB05B4D0DAE0FCD0FC60FCD45
:102FD8000FC60FCD0FC655F8043B0294336003AEFD
:102FE80095E80F0086E80F003C60644614B3DCF8EF
:102FF8000C300B2B1ED8DCF80820022A1AD8DCF873
:103008001010032916D8DCF80000042810D8DFE8CF
:1030180000F00313296A40001420DCF804305843F8
:10302800FDF7F2FDE169FDF747FEFEF70BF80290A8
:10303800029B3B601BB0F0BD1423DCF8040058432E
:103048001AAB03EB820252F85C3C28305843143028
:10305800FDF7DAFDE169FDF72FFE4FF07C51FDF732
:1030680023FDE2E71AA901EB8303DCF8042053F8F7
:10307800343C604602FB033301220133CCE90023D0
:1030880002A9FFF79BFF02232360029B0F330293E1
:10309800CEE79CF8181007A80A910DF10601CDE9B2
:1030A8000723FFF7E3FE054618B19DF80650013DDA
:1030B800EDB20DF1070107A8FFF736FF20B19DF823
:1030C8000730013B2B44DDB20223236063682046AE
:1030D8002B44636002A9FFF771FF04232360636830
:1030E8005B1B6360A4E7DCF81430032B09D8DFE826
:1030F80003F00F0D021600232360204602A9FFF7F4
:103108005DFF03232360029B1933C0E70123F3E724
:103118009CF81930002B0CBF04230223ECE7012391
:103128001944CCF80030DCF804308B40CCF804307B
:10313800E3E700BFA0AF00002DE9F84F8468C76837
:103148004568037C06468B46D0F8148021462846FD
:1031580007F1FF3A002B66D0FDF74CFFC0B308F12A
:103168000108B84508BF4FF000082946C6F8148082
:103178002046FDF755FEFDF74FF9FEF755FC0646CC
:103188000F464046FDF726F932463B46FDF79CF9C7
:10319800064650460F46FDF71DF902460B463046D7
:1031A8003946FDF7BBFA02460B4600204849FEF7B0
:1031B800B7FC06460F462846FDF72EF932463B4631
:1031C800FDF782F9FDF71AFCCBF80000BDE8F88F8F
:1031D80008F1FF30B84228BF50467061FDF7FAF891
:1031E80006460F4628462146FDF71AFEFDF714F954
:1031F800FEF71AFC804650468946FDF7EBF8024672
:103208000B4640464946FDF789FA32463B46FDF7EC
:103218005BF902460B4600202D49FEF781FC064665
:103228000F462046C8E7FDF7E5FE60B308F1010048
:10323800B84208BF00207061FDF7CCF806460F467B
:1032480020462946FDF72EFCFDF7E6F802460B4618
:1032580030463946FDF738F9064650460F46FDF721
:10326800B9F802460B4630463946FDF757FA064686
:103278000F462846FDF7D0F802460B463046394639
:10328800FCF76CFF9EE708F1FF30B84228BF5046B4
:103298007061FDF79FF806460F4628462146FDF760
:1032A80001FCFDF7B9F802460B4630463946FDF7F2
:1032B8000BF9064650460F46FDF78CF802460B46BA
:1032C80030463946FDF72AFA06460F462046D1E72A
:1032D80000002440F7B5274F04463B780E46012BE3
:1032E80026D1B0F5085F04D36FF00403BB6103B0C7
:1032F800F0BD01A9FFF72AFDA50505F0FE4526F05A
:103308007F431D4345F0004568B9019A3B6953F86E
:10331800221066F31F2143F82210284603B0BDE8A7
:10332800F040FFF749BD31462046FFF727FDF4E797
:1033380000F040FB202005F0C9F9204605F0A8F967
:1033480000F040FB00F036FB2D2005F0BFF942F2FB
:103358001403A4F58054A4B29C4207D8304605F063
:10336800A7F903B0BDE8F04000F02CBBB0B205F0FF
:103378008FF9F6E76808002037B50F4D04462B781B
:10338800012B14D101A9FFF7E1FC48B1204605F053
:10339800A8F901462046FFF7F1FC084603B030BD06
:1033A8002B69019A53F82210C1F31721F5E703B0EE
:1033B800BDE8304005F095B96808002030B5002414
:1033C8009DB070221449684607F066FB134B6D46A2
:1033D800C3E90544DC601C7000F0F4FA69682888C9
:1033E8000134FFF777FF0E2C05F10805F6D140F2FE
:1033F8000440FFF7C1FFA0F5AA43013B012B04D805
:103408000122074B1A701DB030BDB0F5AA4FFAD192
:103418000022034BF6E700BF4CB00000680800200C
:103428001C1100200A29FFB405460B4627D802299B
:1034380009D90831C90011431DB342F2F40004B0A0
:10344800F0BCFFF747BF6E460F4C04F1080C374637
:1034580020686168083403C764453E46F7D1206890
:10346800A1793860A088042AB880B97107D803EB1D
:10347800830310336B44134413F8101CDAE7F82164
:10348800D9E742F2F800DAE7BCB0000070B50D46A3
:10349800174B06461B780021012B28460CBF1E241B
:1034A8001A24FDF79DFD08BB0120A4F12001C4F1F9
:1034B800200320FA03F300FA01F11943A040FDF7B5
:1034C800BDFB3146FDF7F8FB2946FDF7A9FC4FF097
:1034D8007C51FDF7E9FAFDF7B5FD1A2C054B18BF2D
:1034E8006FF07F43984228BF184670BD0020FCE764
:1034F8001C110020FFFF0F002DE9F047D4B00DF19B
:10350800440845463A4C84460F460FCC0FC50FCCAD
:1035180026460FC556F8043B0DF12C092B604D4685
:103528000FCE0FC596E803001C3485E803000FCCC6
:103538001AAD0FC50FCC0FC594E80F00644685E897
:103548000F00002C00F0B581DCF804600021304643
:10355800FDF746FD002840F0A981002F00F0A98161
:103568002449E068FDF764FD6369B0F1000A18BFFB
:103578004FF0010A082B38D1636AA5690A2B09D0D4
:10358800A26A54A901EB830359F8222053F8E83CB6
:1035980013441D443046FCF73FFF0022164BFCF74E
:1035A80093FF804628468946FCF714FF02460B46DF
:1035B80040464946FDF7B2F8FDF720FA0F4905469F
:1035C800FDF722FD0646E8B128460C49FDF728FC20
:1035D8000B49FDF771FB0146FDF766FAFDF732FD71
:1035E8000126451C6D08B14624E058F82350D1E760
:1035F800CCB000000050C34B008096400000204231
:1036080000E0FF442846AC49FDF7FEFC814600284F
:1036180000F01E812846A849FDF702FCA749FDF7DE
:103628004BFB0146FDF740FAFDF70CFD4FF0010991
:10363800451C6D0843F20C00FFF79EFE0122022193
:103648008046104605F0D4FC00219D4805F0E5F8B9
:1036580000239C4A07A8CDE907238DF82530ADF84B
:1036680026308DF8283005F00AF9CDE93B9604F1AB
:1036780010034BAA04F1300C164618685968083331
:1036880003C663453246F7D118684FF4007C40F60C
:1036980002134FF0070E3060CDE939C3022301262B
:1036A800CDE93DE340F20113A1682068ADF8FC3094
:1036B800CDE93766FFF7EAFE40F2FF739D4294BFFB
:1036C800479547930025469037A84FF01409CDE950
:1036D800485505F0D3F9242308212FA8CDE9263928
:1036E800289605F025F803232B938AEA06032C93E2
:1036F800A36BE06B2A93636B216C299331AB03C3F3
:10370800606CADF8B460186026A8CDE934558DF822
:10371800B860369505F0E2FA31466B4805F07DF859
:1037280031464FF4814005F078F8192005F0CDFCBA
:1037380031464FF4014005F070F80221012005F0F0
:1037480074FC0028F9D000214CF2801005F065F8CF
:10375800022005F065FC42F27800FFF70DFE0190AB
:10376800814642F27C00FFF707FE012102900646DF
:10377800084605F052FA01214FF4814005F04DF852
:10378800192005F0A2FC01214FF4014005F045F88D
:103798000221012005F049FC0028F9D000214CF253
:1037A800801005F03AF8022005F03AFC42F2780061
:1037B800FFF7E2FD0546039042F27C00FFF7DCFDCF
:1037C80019F4003F1CBF6FEA89326FEA9232034650
:1037D800049018BF0192B00342BF6FEA86366FEAC1
:1037E80096360296A90342BF6FEA85356FEA95358A
:1037F80003959A0342BF6FEA83336FEA93330493C6
:10380800039B05AD5B420393029B01AA5B422846DA
:1038180003A9029304F090FF666828683146FDF713
:103828004BFA314628606868FDF746FAA36C686071
:103838009BBB95E8030087E8030018F0020203D158
:103848000221012005F0D4FB002054B0BDE8F08728
:1038580028461E49FDF7D8FB064678B128461B497D
:10386800FDF7DEFA1549FDF727FA0146FDF71CF9C1
:10387800FDF7E8FB451C01266D08DBE628461449E0
:10388800FDF7CEFA0D49FDF717FA0146FDF70CF9D9
:10389800FDF7D8FB451C6D08A5E6284604F096FF01
:1038A8003860284604F0A8FF7860C6E76FF001008A
:1038B800CBE76FF00200C8E70000484300E0FF4490
:1038C800E0FF390001010100400E11000000A04393
:1038D8000000C84418B1034B0360002070476FF024
:1038E800010070470000002070B596B0042821D868
:1038F800DFE800F00326323743000A2005F0B3FB67
:103908000A2851D82A4C94F8B433B3B101260025BB
:10391800A16AE069CDE904558DF85460FDF780FA95
:10392800FDF790FB03380D9004A8119605F0ADFA49
:10393800C4F8E453002016B070BD6FF06300FAE7D6
:103948000A2005F090FB0A282ED8002005F03CFB41
:10395800002005F039FBEDE70122154B83F8E02341
:10396800E8E70029E6D0124B93F86820012A0CBF3B
:10397800D3F8B0331B6B0B60DCE700210120FFF7A5
:10398800B3FF0D220021684607F093F8684604F05B
:1039980076FF3C22002104A807F08BF804A805F064
:1039A800FBF805F053FBC5E76FF00800C3E700BF5D
:1039B8000000002000220C21014805F076BB00BF62
:1039C80054AC000001220C21014805F06EBB00BF79
:1039D80054AC000000220721014805F066BB00BF77
:1039E80074AC000001220721014805F05EBB00BF4E
:1039F80074AC0000012310B588B0CDE90002CDE910
:103A0800021202AACDE90623CDF810D00593044886
:103A18000449836804AA1C6806ABA04708B010BD17
:103A2800B4AC000038B2000008B5104806F0CAFE71
:103A380028B90F4805F032FC4FF0FF3008BD0D489B
:103A480006F0C0FE08B90C48F4E70C4806F0BAFEC8
:103A580008B90B48EEE70C21084805F017FB0548A4
:103A6800072105F013FB0020E8E700BFB4AC000015
:103A780018B5000074AC000027B5000054AC000075
:103A880037B50000014B1B68184700BFF003002042
:103A9800014B1860704700BFF003002030B585B0B7
:103AA80004460D4610220021684607F002F802235A
:103AB8008DF80230044B2A4621466846019304F0EB
:103AC80017FA05B030BD00BF8D3A000080B5054635
:103AD8000E461746984603F0F9FD034607F06CF8C2
:103AE8000446DFF81890424649F800303946304617
:103AF800A84754F8090000F013FD00BF08000000B3
:103B08002DE9F047058B04462807904611D4022971
:103B180005F0070540F0CC80204605F0CCFB78B1D5
:103B28000138218B042811D8DFE800F0C2106D8518
:103B3800950001290CBF45F0100545F020052583A7
:103B480088F31188BFF36F8FBDE8F08701F0070A8B
:103B5800AA4500F0A5800027B9463E46A368002B79
:103B680000F0BC8041F00801218388F31188BFF37D
:103B78006F8FA168002900F0BA800D68002900F055
:103B8800B680334652462046D1F80480C047002DFF
:103B980076D02B6829461D46F0E701F007035A1F27
:103BA800012A1BD8002221F00701062B276889B2B9
:103BB800C4E9002209D13B4603E0628B01326283EB
:103BC8001B68002BF9D141F002012046218305F042
:103BD80072FB00287AD041F0200176E0042B0AD14C
:103BE80021F0070189B22046218305F064FB10B15A
:103BF80041F020012183218B01F0070AAA454FD00B
:103C08000027B946AAE7236921F0070141F0060118
:103C1800062DD3F8009021832DD1B9F1000F3FD0A4
:103C280041F00801218388F31188BFF36F8F204684
:103C38003949C84729E021F00701236941F0040107
:103C480089B2042DD3F804902183E6D000274FF0E1
:103C5800040A3E4682E721F00701236941F0050185
:103C680089B2052DD3F808902183D6D000274FF0CC
:103C7800050A3E4672E700274FF0060A3E466DE702
:103C88002B4687E7B9F1000FD1D1EFF31188202334
:103C980083F31288BFF36F8F238B23F008032383EA
:103CA800258BEA062ED525F01003238305F007059A
:103CB8006669218B002EBFF670AF00232768C4E920
:103CC800003321F0070141F001012183218B4FF0DE
:103CD800000901F0070AAA457FF440AF002F9CD0E5
:103CE80041F00801218388F31188BFF36F8F002FFB
:103CF800C8D03D68394633465246204605F007FB92
:103D08002F46F4E7AB067FF51BAF25F0200323838E
:103D180005F0070500E700BF43930000014B03606F
:103D2800002070474CB2000008B5044805F0B6FA08
:103D3800BDE80840024805F0B1BA00BF47B5000029
:103D48007CB50000014803F091BF00BF4CB20000F1
:103D580038B5044618B90F4B0F485B689847616837
:103D6800B1F5683F10D0B1F5680F0DD00B4DA942E1
:103D78000AD011F46861206807D00146084806F0A7
:103D88005FFD00232360656038BD142206F091FEB4
:103D9800F9E700BF5C050020AAB500002C5F5CA90C
:103DA800840D002008B560B34368B3F5683F0ED0B2
:103DB800B3F5680F18D0144A934220D000684FF02A
:103DC800FF324FF0FF3303F027F858B115E0012216
:103DD8000368D3E8EF1F002903D1C3E8E02F0028C8
:103DE800F7D10AD1002008BD0368084A1B7803F5FB
:103DF800807352F82330002BF4D00548F3E70548C8
:103E0800F1E76FF4E040EEE72C5F5CA90000035097
:103E1800E98FFFFFEA8FFFFF08B520B34368B3F5CA
:103E2800683F09D0B3F5680F13D0114A93421DD0EB
:103E3800006803F069F814E000220368D3E8EF1F74
:103E4800012903D1C3E8E02F0028F7D109D0094898
:103E580008BD00210368084A1B7803F5807342F8FF
:103E680023100020F4E76FF4E040F1E70348EFE7A0
:103E78002C5F5CA9E98FFFFF00000350EA8FFFFF6A
:103E880010B5044618B91D4B1D485B689847636810
:103E9800B3F5683F2FD0B3F5680F2CD0194A934279
:103EA80019D1236803BB4FF0FF324FF0FF3321468F
:103EB800154802F083FF08B923681BB90F4B134854
:103EC8005B68984714220021206806F0F2FD4FF441
:103ED8006863636008E0B3F5683F0DD83A2B03D0F8
:103EE80040F6BA629342DED1206806F0F4FC6368BB
:103EF80043F03A03636010BD054AF3E75C05002010
:103F0800AAB500002C5F5CA9840D0020D0B5000084
:103F18003A00003A08B5064940231422054806F03D
:103F280081FCBDE808400449044803F011BF00BF04
:103F380084080020840D002054B2000068B20000FC
:103F480008B50348034A0021121A05F08DFA08BD86
:103F58001806002034110020074808B5074A084908
:103F6800121A05F083FABDE808400648064A0749D0
:103F7800121A05F07BBA00BF0000002018060020C6
:103F8800C4BA00000000002000000020C4BA0000ED
:103F980038B505460C4699B1D1E901230F4809689F
:103FA80005F07CF9D4E90423E1680D4805F076F9B9
:103FB800E1690C4805F072F9A1690B4805F06EF942
:103FC800012D05D1EFF305810848103905F066F990
:103FD80021462846BDE8384002F0ACBDFDB50000DA
:103FE8002DB600005DB600006DB600009CB600005E
:103FF80030BFFFF7FDBF00BF2DE9F04105460B4E6E
:10400800DFF82C80324606EB0807CC1B204609490E
:1040180006F042FDA01942460021083C06F049FD81
:10402800C5F8A44007F10800BDE8F08100000000D1
:104038000400000094AF0000054B5A699B689A423F
:104048001FBF044A536843F080535360704700BF52
:10405800140F002000ED00E010B5204C204805F0BA
:104068001DF9A36A990137D51E4805F017F91E20D6
:10407800A36ADA0103D51C4805F010F91F20174C74
:10408800A36ADB0203D5194805F008F90220A36AE0
:104098001C0303D5164805F001F921200F4CA36A2B
:1040A800590303D5134805F0F9F82220A36A9A03A7
:1040B80003D5114805F0F2F82320084CA36ADB0366
:1040C80003D50E4805F0EAF82420A36A6FEA0343F3
:1040D8006FEA1343A36210BD1D20C9E700ED00E09D
:1040E800B0B60000C9B60000DDB60000F8B60000A2
:1040F80023B7000042B7000068B7000083B700008C
:1041080070B5244C064624480D4605F0C7F8A36A46
:10411800D90435D5214805F0C1F81720A36A1A0536
:1041280003D51F4805F0BAF818201A4CA36A9B0556
:104138000FD51C4805F0B2F8A16BA36A180407D57F
:10414800194805F0ABF81EB1A36A23F40043A36233
:104158001920104CA36A590503D5144805F09EF898
:104168001A20A36ADA050DD5114805F097F81B2027
:10417800084A936A43F47F43936200232B7070BD0F
:104188001620CBE7A36A9B04F2D50A4805F086F807
:104198001C20EDE700ED00E0AFB70000C6B7000057
:1041A800D8B70000ECB7000006B800001CB8000043
:1041B80038B8000051B8000070B5264C06462648AD
:1041C8000D4605F06BF8A36AD80640D5234805F0DC
:1041D80065F81120A36A190703D5214805F05EF890
:1041E80012201C4CA36A9A070FD51E4805F056F8F2
:1041F800616BA36A1B0607D51B4805F04FF81EB173
:10420800A36A23F08003A3621320124CA36ADE077B
:1042180003D5164805F042F81420A36A9C0603D576
:10422800134805F03BF815200A4B9A6AD10658BF87
:104238009A6A9A6A920642BF5A6A22F400525A62ED
:104248009A6A42F0FF029A6200232B7070BD102018
:10425800C0E700BF00ED00E081B8000098B800009A
:10426800D8B70000CCB80000E5B80000FCB80000E2
:1042780051B800002DE9F0415B4B04465F6800250A
:104288008AB0C7F3080685F31188BFF36F8F02F071
:104298007F43B3F17F4F06D102F00C03082B13D1F3
:1042A800524804F0FBFF00252C464FF00008F31E8F
:1042B8008DF80780092B00F28580DFE803F00A7982
:1042C8007D7583838383838110074CBF0C4601254A
:1042D800EBE74748444E04F0E1FF8DF80780F36AA6
:1042E8009A0704D5434804F0D9FF00232FE0F36A66
:1042F800002B01DA4048F6E7F36A5B00F5D53F4842
:1043080004F0CCFF7369A26943F480737361BFF34F
:104318004F8FBFF36F8F736932F8022C23F48073C9
:104328007361BFF34F8FBFF36F8F4DF602739A42DD
:1043380008D0B36ADBB24BB301200DF10701FFF7D8
:104348003BFF33E021682E4804F0A8FF23689DF85E
:104358000720C2B902AE04F120073246206861681E
:10436800083403C2BC421646F7D1099AB5B3C2F362
:10437800080121B96FEA52226FEA422209921846CF
:1043880002A9FFF705FE0AB0BDE8F081B36A13F48D
:104398007F4F05D001200DF10701FFF7B1FE05E0C1
:1043A800B36AB3F5803FA0D3FFF756FE0346CEE7C6
:1043B80000200DF10701C2E700200DF10701ECE72D
:1043C800104890E7104B17F4F87F1049104818BFB1
:1043D8001946A6F1100204F061FF86E722F4FF7285
:1043E80022F00102CAE700BF00ED00E04AB9000070
:1043F80076B900008EB90000B0B90000BFB900005E
:10440800DFB90000FCB9000031B900001CB9000098
:1044180021BA0000064B5A6942F010025A615A69E3
:1044280042F480625A615A6922F008025A61704760
:1044380000ED00E0EFF30880EFF3098101B5724663
:10444800FFF718FF01BD00BF002080F31488BFF3F9
:104458006F8F002080F30A8880F30B88104880F360
:10446800088800200F49087001F020FD00200E493F
:104478000860BFF34F8F00F02DF8202080F31188DB
:104488000A484FF40061401880F30988EFF314805C
:104498000221084380F31488BFF36F8F00F0F0F80F
:1044A800783A00203211002094ED00E03811002005
:1044B800002318460649D1F89020C2F307229342F8
:1044C80000DB7047C1F89830C1F8A0000133F6E767
:1044D80000ED00E010B572B6002484F31388FFF7EE
:1044E800E7FF23464FF0FF300C4A03F12001013368
:1044F800102B42F82100F8D100234FF0FF30074A73
:1045080003F160010133102B42F82100F8D162B6A3
:10451800BFF34F8FBFF36F8F10BD00BF00E100E006
:10452800084B9B6883420BD1EFF3058343B1064BDD
:104538005A6842F080525A605A6A22F400425A621B
:1045480003F0CAB8140F002000ED00E016498A688D
:104558004FF030001044EFF3098C80E8F01F202062
:1045680080F31288BFF36F8F104F4FF000664A69CF
:104578008A603E60D2F8A4000D4C2060D2F8A800F2
:104588000023C2F8A83080F3118802F1300090E8C7
:10459800F01F8CF3098802F1000004B504F077FFDE
:1045A800BDE8044070470000140F002004ED00E04F
:1045B800A00D00201EF0040F0CBFEFF30880EFF3EE
:1045C8000980816911F8021C0229FFD001B57246E1
:1045D80004F04EFF01BD00BF40B2002807DB0123F5
:1045E8004109034A00F01F00834042F82130704718
:1045F80000E100E040B200280CDB01220649430933
:1046080000F01F008240203341F82320BFF34F8F72
:10461800BFF36F8F704700BF00E100E0054B420910
:1046280053F82220012300F01F0003FA00F0104085
:10463800704700BF00E100E040B2002801F101012D
:10464800ACBF00F16040064B4FEA4111C9B2ABBFA5
:1046580000F5614000F00F0080F80013195470470E
:1046680014ED00E0044B054A23F07F039360BFF389
:104678004F8FBFF36F8F70470000000000ED00E020
:1046880008B5FFF7EFFF074AD2F8883023F4700324
:10469800C2F88830FFF754FCFFF75EFC00F048F8DA
:1046A80002F012FB00ED00E042F8203C009B0B49B1
:1046B80042F81C3C019B21F0010142F8183C029B86
:1046C80042F8081C42F8143C4FF0807342F8043C4E
:1046D8000023203A0265C0F8A8307047D53A000098
:1046E80000B50E4B15469860D0F8A4200C4B0E462A
:1046F8001A60D0F8943083F30B882C4686F3098827
:104708000020044B98472046002100220023024C39
:1047180020470000A7940000D53A0000140F00209D
:10472800A00D00201022014B1A61704700ED00E037
:10473800002320210348C2180133452B82F80013B7
:10474800F9D1704700E100E008B5EFF30583064AA8
:10475800103B02EBC30152F8330049688847BDE8B3
:104768000840FFF769BC00BFD4AC00001FB5094C76
:10477800094A23460121094800F0FAF80023039367
:10478800074B0121E41A01A80193029400F0FAF8FA
:1047980004B010BD000007200000002078B200001F
:1047A8001806002010B50C7A0B6804F01F0223F0DD
:1047B8001F031A43CB68640923F01F03054943EA22
:1047C800440343F00103C1F89800C1F89C20C1F8E4
:1047D800A03010BD00ED00E010B5074BD3F89030C5
:1047E800C3F30723013B984202D8FFF7DBFF10BD54
:1047F8006FF01500FBE700BF00ED00E02DE9F04F7A
:104808000F46144606464FF000084D4D85B0B84592
:1048180080F29280D6F80490B9F1000F36D0B9F141
:104828001F0F40F2878019F01F0F40F08380D6F8E1
:1048380000A01AF01F0F7DD1504604F06CFE83468D
:1048480009EB0A00013804F066FE834572D11BF1BA
:10485800160F6FD05C456DDDC5F898B0D5F89C1083
:10486800C5F898B0D5F8A03021F01F0143F01F0A11
:10487800D6E900321A44994202F1FF391ED1CA45DD
:1048880008D131465FFA8BF004F04EFE08F10108BA
:104898000C36BCE73146C5F898B0D5F89C3022F004
:1048A8001F0203F01F031343C5F89C30E0B204F065
:1048B8003BFE10F1160F3DD0441CE7E7C5F898B051
:1048C800D5F8A020013B23F01F0302F01F02134379
:1048D800CA453146E0B2C5F8A030E8D004F024FE5D
:1048E80010F1160F26D0C5F898B0D5F89C209DF881
:1048F80008300AF1FF3A62F304038DF80830D5F85E
:10490800A0309DF808205B0863F347128DF8082053
:10491800D6E900321344009323F01F035344A3EB5A
:104928000903013023F01F036946C0B20393FFF760
:1049380053FFBEE76FF01504204605B0BDE8F08FC1
:1049480000ED00E00522044BC3F89420BFF34F8F1D
:10495800BFF36F8F704700BF00ED00E0BFF35F8FBC
:104968000022024BC3F89420704700BF00ED00E01E
:1049780010B5034C2278FFF741FF207010BD00BF2F
:104988001D1100202DE9F74F294D8A4606464FF0A4
:104998000008AB46274FD0451BDAD6F80490B9F18A
:1049A800000F3FD031680846019104F0B4FD019929
:1049B800044609EB0100013804F0ADFD84424FF0D4
:1049C80014021D4B08D002FB08F36FF015024BF8D8
:1049D800032003B0BDE8F08F14F1160F2C60F8D057
:1049E8001978A142F5DD02FB08B0C7F89840C7F86E
:1049F8009840D7F89C4000F10801007B64F304005C
:104A08000871D7F8A0000C79400860F347140C71BE
:104A1800D7F89C1021F01F016960D7F8A01021F089
:104A28001F01296108F1010814350C36B3E700BFEE
:104A3800A40D002000ED00E01D110020F0B5414953
:104A4800414CD1F890302568C3F307239D4287B0C5
:104A580075D80020FFF782FF3C4BC1F8C030854273
:104A680016D13B4C01A82570FFF758F900250646DA
:104A7800384FAE4213D1002023783249D1F8902024
:104A8800C2F30722934254DBFFF75CFF00202FE0BC
:104A9800616801EB0011FFF785FE0130DFE701993E
:104AA800280101EB0513DA683A40B2F5001F21D05E
:104AB800B2F5800F2BD0B2F5801F38D15A689B68A9
:104AC8000958013B22F01F0003440120844623F0CB
:104AD8001F0340EA4C10CDE902218DF8100002A90D
:104AE80020780593FFF778FE00281DDA6FF015008F
:104AF80007B0F0BD5A689B680958013B22F01F00B7
:104B080003444FF0020C012023F01F03E1E75A6829
:104B18009B680958013B22F01F0003444FF0000C2A
:104B2800062023F01F03D4E72378013323700135CF
:104B38009FE7C1F89830C1F8A00001339EE74FF015
:104B4800FF30D5E700ED00E084B20000AAFF440082
:104B58001D1100200000F0FF08B5024B1B689847A4
:104B6800002008BDB80D0020034B044A1860937854
:104B780043F0020393707047B80D0020140400201E
:104B880008B50649064821F00701C1F1005202F5AF
:104B9800E02204F029FB002008BD00BF7F3A002076
:104BA800BC0D0020054B03EB8000D0F8003223F049
:104BB800E04343F04053C0F800327047002584506A
:104BC800052370B5144D154E2C780134B4FBF3F35E
:104BD80003EB8303E41A05F0ABF8114A137823B109
:104BE80056F82430C01A072814D94FF05023D3F8A8
:104BF800141141B10021C3F81411D3F814312C70E9
:104C08000CB9012313702C7805F092F846F82400AB
:104C1800012070BD0020FCE71F110020C80D0020F6
:104C28001E110020012208B50B4B0C49C3F80025C2
:104C380002230020C1F8D036FFF7B4FF1046FFF773
:104C4800B1FFC1F80427C1F80429C1F8002BBDE859
:104C5800084000F099B800BF001000500040005014
:104C680007B54FF480620B4B0B49C3F8B8254FF4D6
:104C780000620A48C3F83C250DF1070205F09FF8C9
:104C8800002803DB9DF8070001F006FA03B05DF881
:104C980004FB00BF00A002502CA0025028A1025023
:104CA80048B1054B054A1B68B3FBF2F35843044B64
:104CB80043F00103184770474405002040420F00A5
:104CC800C0B10000002170B5104C114D114E000705
:104CD80014F8013B03F01F025B090FD0012B0FD121
:104CE800334603EB8203D3F80022013122F0E0427D
:104CF80002430429C3F80022EAD170BD2B46F0E72D
:104D08000023803253F82230FFDE00BF48BA00008B
:104D180000258450002884502DE9F04106460120E2
:104D28000D46FFF7CFFF4FF47F03D3F83021D3F8B8
:104D38003431072A20D1023B032B02D8114AD35C15
:104D4800D3B14FF050244FF0010800270520C4F8D4
:104D58001886C4F8147604F0FDFF4046C4F814869B
:104D680004F0F8FFC4F81476C4F8187630462B46D9
:104D7800BDE8F041002118474FF050230022C3F846
:104D88001426F3E744BA00000149024804F0E2BAE5
:104D9800ACB20000DC0D002008B54FF0FF323F2315
:104DA8000348C0E9002301F063F9002008BD00BFF3
:104DB800F80D0020084B70B5C31A0D4607499B1023
:104DC800044659434022064804F0E6FB2B460146B8
:104DD8002046BDE870401847140E0020B76DDBB6BA
:104DE80034AC0000402373B50B4C0093041B0B46F6
:104DF8000D460A49A41061430646094A094804F0C9
:104E0800F7FB011E05DA30462B4602B0BDE87040BC
:104E1800184702B070BD00BF140E0020B76DDBB696
:104E28006396000034AC00002DE9F0470022012110
:104E380007460520FFF700FC124801F04DF904462B
:104E4800D0B901F07DF925464FF01C0A4FF00C0847
:104E5800DFF834903E6949460AFB056004F07AFAA7
:104E6800031E0CDB012308FB05661D44042DB367F4
:104E7800F0D12046BDE8F0876FF00404F9E71C463E
:104E8800F7E700BFC14F0000B8B200001FB500220D
:104E98000123CDE902236B46084ACDF800D0CDF8AE
:104EA80004D004F0D3FB002805DB4FF48042002334
:104EB800684602F0ADF805B05DF804FB8D96000079
:104EC80010B5EFF31184202383F31288BFF36F8F9B
:104ED800074A136823F00201DB07116002D401209E
:104EE80004F090FF84F31188BFF36F8F10BD00BFEB
:104EF800B40E00200C22104B014602FB00330020A8
:104F080030B4D3E91C521867EFF31180202484F3DE
:104F18001288BFF36F8F9C6F04F0C00444F0020442
:104F28009C6780F31188BFF36F8F1DB12B4630BC8F
:104F38000248184730BC7047140E002034AC0000FB
:104F480010B4EFF31182202383F31288BFF36F8F1D
:104F58001748016841F002040460C80707D482F3C7
:104F68001188BFF36F8F012010BC04F03CBF4FF0D5
:104F78005021D1F80C04D1F80C14C907EFD5EFF380
:104F8800118083F31288BFF36F8F0A498B6F03F088
:104F9800C00343F002038B6780F31188BFF36F8F60
:104FA80082F31188BFF36F8F002010BCFFF7A2BFF8
:104FB800B40E0020140E0020092813D8DFE800F0F2
:104FC80005101212121212120E0C074B986F10F0E5
:104FD800070007D1FFF78EBF0220FBE70320F9E7A0
:104FE8000120F7E7704700BF140E00202DE9F041BB
:104FF800012207463649D1E8EF3FC1E8E02F0028F3
:10500800F9D133B9334934484B60CB608A6004F036
:10501800B4F97B1E012B2BD8012F07D14FF0502359
:10502800D3F81C3403F00303022B21D005F05AFCFB
:105038000546F8B9294B1B78E3B14FF050230222FB
:105048000646C3F808234FF05024DFF89480D4F8BC
:105058001824D4F81834D20315D503F00303022B0F
:1050680001D0012F0FD16DB386F31188BFF36F8F75
:10507800BDE8F081EFF31186202383F31288BFF394
:105088006F8F0125DFE7C5B1304604F028FAD4F860
:105098001835DBB2012BDAD1D4F80421002AD6D096
:1050A8000022C4F80421D4F804210222C4F81825E7
:1050B8002022C8F88021A360C9E70021212005F03B
:1050C80081FCE4E74FF050230222C3F80423CFE722
:1050D800100E0020000E0020300E0020321100209B
:1050E80000E100E008B5074805F06CFB38B1064858
:1050F800FFF73AFD0448FEF7CBFC002008BD6FF02F
:105108001200FBE794AC0000155100000A2838B5DE
:105118000446074D04D1AB680D2128465B689847C3
:10512800AB6803485B68E1B29847204638BD00BFCA
:1051380094AC0000F0B545681646A8682A7C01F0D2
:105148001F0487B044EA4214002868D0B6F5001F4F
:1051580004D1214605F09EF9002051E00020B6F563
:10516800800F01AA0190506037D1B3F1007F14BFBE
:10517800052304238DF804300023CDE90423039389
:10518800EB680DF1030723FA01F111F0010139D1A0
:10519800B6F1A07F36D104F01F03620903F1800342
:1051A80026D0012A3ED1214A52F82330DB0729D4E0
:1051B8003A462146A86805F000F916301AD0029739
:1051C8002146A86803AA04F0C4FF002818DB0122BE
:1051D8002146A86805F00CF9BEE7B3F1C06F05D009
:1051E800B3F1007F14BF01230223C3E70323C1E700
:1051F8000F4AD9E73946A86801F0C8F90028DEDA6D
:1052080007B0F0BD3A462146A86805F0D6F8002850
:10521800D6D19DF80310A86801F0AEF9D0E76FF079
:105228008500EDE751F82330FFDE00BF00288450E9
:10523800002584504209034670B502D0012A17D0D0
:1052480070BD0D4E326951680029F9D0012503F06F
:105258001F030C689D400029F2D08A682A4002D0BA
:1052680030464B6898472CB1236821461C46F2E724
:10527800024EE7E72346F8E774AC000054AC0000A0
:1052880038B54568A86890B105F0AAF8014670B924
:10529800A86801F03FF9044658B902460649A868CB
:1052A80005F088F8224605210D20FFF7C5F90020F2
:1052B80038BD6FF00400FBE73D5200002DE9F043D4
:1052C80040F206364768D00648BF4FF0030C3B7CD7
:1052D80002EA060658BFC2F3401C87B001F01F055A
:1052E800B6F5837F144645EA43158DF803C044D0CC
:1052F8000DD8062E16D005D8A6B1022E3FD06FF0D5
:10530800150037E0B6F5807FF9D101260AE040F2B2
:105318000222964235D0B6F5407F34D0B6F5007FEC
:10532800EDD102260123220303FA01F12DD57B6872
:105338009960B86880BB05F01F036D092AD0012D5C
:1053480073D13C4A02EB830284F48033D2F8001212
:10535800C3F30043C4F3404444EA430421F47061B6
:1053680044EA8C0421F00F0144EA06230B43C2F8F7
:105378000032002007B0BDE8F0830726D2E70426F4
:10538800D0E70526CEE70326CCE7630344BF7B6856
:10539800D960CEE7284AD5E729460DF1020205F083
:1053A8000CF814F4403F80460CD12946B86805F043
:1053B8001DF8B8F1000FDCD19DF80210B86801F0B3
:1053C800DBF8D6E74FF0000901ABCDE90199CDE94B
:1053D8000439CDF80C902946B86803AA04F0B9FE40
:1053E8004845C6DB14F4003314D09DF8033084F428
:1053F8008034C4F300448DF80E308DF80C608DF8BD
:105408000D404B462946B86803AA04F05AFF002805
:10541800CFDAAEE7CDE904330DF103030393294650
:10542800B86803AA04F095FEF1E7803350F82330FA
:10543800FFDE00BF0028845000258450036803F075
:105448001F025B09026004D0012B034818BF00202B
:1054580070470248704700BF0028845000258450D8
:105468002DE9F04F1546824640F2FF19DFF8B0B13A
:1054780085B000EB8108D04503D1002005B0BDE818
:10548800F08FDAF80030C3F3C3210829C3F3080406
:1054980000F2C080634A4C45515C4FEA136311D057
:1054A800222B1DD94E2B40F0B880C5F81445012693
:1054B80003A80394FFF7C2FF039B06FA03F3836074
:1054C800374654E0222B09D94E2B40F0A6804FF0E6
:1054D800FF33C5F814350AF1040ACCE74FF0FF345E
:1054E800222B00F29A80DFE803F012171E362127DC
:1054F800369898989839639898989898989898981A
:105508006B76797C9898987F86898C8F9200C5F8FD
:105518000C45631CCBD1DEE7C5F81445631CDAD013
:105528000026002723E0C5F80845F2E7601CC5F807
:105538000845D0D0002604E0621CC5F80C45CAD046
:105548000126012703A80394FFF778FF039B07FAB6
:1055580003F3C3600BE0C5F81045DFE7C5F808455D
:105568000029DBD1671CB6D0002606213746DAF8B9
:105578000030039403F40040002803A81CBF012650
:1055880000270193FFF75AFF039C019B00EB84005F
:10559800D0F80042C3F3412C0B0243EA8C033B438F
:1055A80004EA0B04234343EA4603C0F8003292E7B7
:1055B800C5F80C450029D5D0661C8CD000267FE79D
:1055C800C5F86045601CDAF8003084D0C3F30043A6
:1055D800002BB5D06BE7C5F86445F3E7C5F8684517
:1055E800F0E7C5F86C45EDE7C5F82445621C3FF4C3
:1055F80072AF012695E7C5F828458AE7C5F8304512
:10560800F4E7C5F83445F1E7C5F83845EEE7C5F8DD
:105618003C457EE76FF0150030E76FF085002DE719
:10562800F0F0FCFF6FBA00002DE9F04104460D468A
:10563800476805F057F94FF0200888B9264B1B78C2
:1056480073B16426606804F0A0F8F0B9012004F092
:1056580081FB013EF6D10021212005F0B3F9F0E7E6
:10566800EFF31186314688F31288BFF36F8F6068B5
:1056780004F08BF8A8B986F31188BFF36F8FEFE7B2
:1056880086F31188BFF36F8FE5E7EFF31186314694
:1056980088F31288BFF36F8F606804F076F80028EB
:1056A800EED0FB6900201D706368FA691B68C3F8B7
:1056B80044250122C3F84825C3F82001D3F8204126
:1056C800C3F85801D3F858019A6081F31188BFF3E1
:1056D8006F8FBDE8F08100BF321100202DE9F04F37
:1056E8009A4643688DB000938B88074604699804EE
:1056F800894693462CD44FF0FF324FF0FF3304F124
:10570800380001F085FCC4F82C90D7F810807D682B
:1057180098F88530D5F800C023B1D8F828309945D5
:1057280000F0AA80B9F804E01EF4006F17D06FF0FB
:105738008505A36A13B19B889B0405D40023E36203
:1057480004F1380001F030FC28460DB0BDE8F08FB8
:10575800236C002BCFD1E36A9942CCD1D5E71EF058
:10576800090F02D06FF01505E3E7CEF34513082BB8
:10577800F8D1D9F800300193019A9E4B9A42F1D999
:105788009D4B9C4507D94FF05022D2F8582512F06E
:10579800030F18BF9C4602AE04350FCD0FC60FCDC0
:1057A8000FC6019B95E80300634528BF63469C46E6
:1057B800924B86E803009C451BD28F4B9C4518D220
:1057C8008F4B9C4515D28F4B9C4500F2CF808E4B5A
:1057D8009C4500F2CD808D4B9C4500F2CB808C4BD4
:1057E8009C4500F2C9808B498B4B8C4A8C4588BFFD
:1057F80013461EF0020F07930EF0040300F0BE805C
:10580800002B14BF032302238DF82030CEF300139E
:105818008DF82130D8F80030D3F80835591C14D049
:105828001EF0020F03F01F004FF001024FEA53135E
:10583800CEF3400140F0A880002B00F0A3809342F3
:1058480040F0D380764B8240DA6098F885302BB1EF
:10585800404601F037F9002388F885303B4640463A
:10586800704A02A904F0A1FE051EFFF662AF0123EB
:10587800C8F8289088F88530012384F88430009B84
:10588800D96B4A1C02D0986B04F01EFABBF1000FCA
:1058980040F08380C4F85CB00023236604F17002F2
:1058A80004F1600104F15C0004F031F8E066BAF13B
:1058B800000F7BD1C4F864A00023A36604F178022A
:1058C80004F1680104F1640004F021F8002504F1F2
:1058D80028062A4601216067A565304604F05FF86E
:1058E800384604F00DF92A462B46206E834265D1CE
:1058F80000231946A56EA94267D19A4238BF1A46B5
:105908004FF4FA534FF0000803FB02F5A36A4FF473
:10591800004C1B684146B5FBF3F540F2E730C8354B
:105928004FF47A720023E5FB0C01FBF7ABFB04F1A3
:10593800480602460B46304601F06AFB024618B993
:10594800A56D15F1740F47D12046C4F8808001F089
:10595800B9F86FF07301384684F8858004F0BEF812
:10596800304601F07BFB6FF07305E2E62E4B40E713
:105978002E4B3EE72E4B3CE72E4B3AE7003B18BF39
:10598800012341E72C4B5EE72BB1012B2FD1244B90
:1059980082409A6059E7284BFAE7DBF80030E36564
:1059A800002B3FF479AFDBF8043076E7DAF8003003
:1059B8006366002B80D0DAF804307EE7E16D01EBF6
:1059C800C301496801330A4490E7606E00EBC100E7
:1059D8004068013103448EE7002D3FF4AAAE3869D0
:1059E8001146283003F0DBFFA3E6C960FFDE002381
:1059F8009B60FBE747E801000024F4000048E80149
:105A080000127A00FF083D007F841E003F420F000D
:105A18001FA107008FD0030048E8010090D00300C1
:105A280000288450C99B000000093D0080841E00A6
:105A380040420F0020A107000025845000F01F02FB
:105A480040090DD001280DD1094B03EB8203D3F88F
:105A58000002084A024042EA8102C3F80022704765
:105A6800054BF2E70023803253F82230FFDE00BFF7
:105A780000288450F0F0FCFF002584500123834067
:105A880070B5DC430B4AD2E8EF1F01EA0405C2E80F
:105A9800E65F002EF7D14FF4803282400648C0F806
:105AA8000823BFF35F8FBFF36F8F0B4214BF012032
:105AB800002070BDE00E00200050015070B40E4967
:105AC80022F07F46D1E90034D01AC31844F100040B
:105AD800C1E90034A6F50013B3F5400F09D2074B0E
