:10000000204300201945000011950000054500001F
:1000100005450000054500000545000005450000B8
:100020000000000000000000000000008546000005
:1000300005450000000000001D46000005450000C9
:10004000194800001948000019480000194800002C
:10005000194800001948000019480000194800001C
:10006000194800001948000019480000194800000C
:1000700019480000194800001948000019480000FC
:1000800019480000194800001948000019480000EC
:1000900019480000194800001948000019480000DC
:1000A00019480000194800001948000019480000CC
:1000B00019480000194800001948000019480000BC
:1000C00019480000194800001948000019480000AC
:1000D000194800001948000019480000194800009C
:1000E000194800001948000019480000194800008C
:1000F000194800001948000019480000194800007C
:10010000194800001948000019480000194800006B
:10011000194800001948000019480000194800005B
:10012000194800001948000019480000194800004B
:10013000194800001948000019480000194800003B
:10014000194800001948000019480000194800002B
:04015000194800004A
:1001580081F0004102E000BF83F0004330B54FEA70
:1001680041044FEA430594EA050F08BF90EA020FDD
:100178001FBF54EA000C55EA020C7FEA645C7FEA70
:10018800655C00F0E2804FEA5454D4EB5555B8BF93
:100198006D420CDD2C4480EA020281EA030382EA04
:1001A800000083EA010180EA020281EA0303362D96
:1001B80088BF30BD11F0004F4FEA01314FF4801C69
:1001C8004CEA113102D0404261EB410113F0004F7B
:1001D8004FEA03334CEA133302D0524263EB430332
:1001E80094EA050F00F0A780A4F10104D5F1200ED0
:1001F8000DDB02FA0EFC22FA05F2801841F100012B
:1002080003FA0EF2801843FA05F359410EE0A5F1FE
:1002180020050EF1200E012A03FA0EFC28BF4CF02F
:10022800020C43FA05F3C01851EBE37101F00045E5
:1002380007D54FF0000EDCF1000C7EEB00006EEBF2
:100248000101B1F5801F1BD3B1F5001F0CD349087C
:100258005FEA30004FEA3C0C04F101044FEA4452D3
:1002680012F5800F80F09A80BCF1004F08BF5FEA5A
:10027800500C50F1000041EB045141EA050130BD3A
:100288005FEA4C0C404141EB0101013C28BFB1F54C
:10029800801FE9D291F0000F04BF01460020B1FA97
:1002A80081F308BF2033A3F10B03B3F120020CDA6A
:1002B8000C3208DD02F1140CC2F10C0201FA0CF048
:1002C80021FA02F10CE002F11402D8BFC2F1200CAD
:1002D80001FA02F120FA0CFCDCBF41EA0C01904063
:1002E800E41AA2BF01EB0451294330BD6FEA0404AC
:1002F8001F3C1CDA0C340EDC04F11404C4F1200297
:1003080020FA04F001FA02F340EA030021FA04F3A8
:1003180045EA030130BDC4F10C04C4F1200220FAFF
:1003280002F001FA04F340EA0300294630BD21FA3D
:1003380004F0294630BD94F0000F83F4801306BF03
:1003480081F480110134013D4EE77FEA645C18BFF7
:100358007FEA655C29D094EA050F08BF90EA020F8E
:1003680005D054EA000C04BF1946104630BD91EA86
:10037800030F1EBF0021002030BD5FEA545C05D189
:100388004000494128BF41F0004130BD14F58004C8
:100398003CBF01F5801130BD01F0004545F0FE413C
:1003A80041F470014FF0000030BD7FEA645C1ABF71
:1003B800194610467FEA655C1CBF0B46024650EAA8
:1003C800013406BF52EA033591EA030F41F40021D4
:1003D80030BD00BF90F0000F04BF0021704730B55A
:1003E8004FF4806404F132044FF000054FF000012F
:1003F80050E700BF90F0000F04BF0021704730B5F0
:100408004FF4806404F1320410F0004548BF4042C4
:100418004FF000013EE700BF42004FEAE2014FEA19
:1004280031014FEA02701FBF12F07F4393F07F4FF4
:1004380081F06051704732F07F4208BF704793F0F7
:100448007F4F04BF41F40021704730B54FF460740A
:1004580001F0004521F000411CE700BF50EA01020D
:1004680008BF704730B54FF000050AE050EA0102B6
:1004780008BF704730B511F0004502D5404261EB26
:1004880041014FF4806404F132045FEA915C3FF467
:10049800D8AE4FF003025FEADC0C18BF03325FEA04
:1004A800DC0C18BF033202EBDC02C2F1200300FAB5
:1004B80003FC20FA02F001FA03FE40EA0E0021FADA
:1004C80002F11444BDE600BF70B54FF0FF0C4CF4C8
:1004D800E06C1CEA11541DBF1CEA135594EA0C0F7A
:1004E80095EA0C0F00F0DEF82C4481EA030621EAB5
:1004F8004C5123EA4C5350EA013518BF52EA0335F0
:1005080041F4801143F4801338D0A0FB02CE4FF0A1
:100518000005E1FB02E506F00042E0FB03E54FF0D1
:100528000006E1FB03569CF0000F18BF4EF0010EC9
:10053800A4F1FF04B6F5007F64F5407404D25FEAC5
:100548004E0E6D4146EB060642EAC62141EA555178
:100558004FEAC52040EA5E504FEACE2EB4F1FD0CBA
:1005680088BFBCF5E06F1ED8BEF1004F08BF5FEA38
:10057800500E50F1000041EB045170BD06F00046EA
:1005880046EA010140EA020081EA0301B4EB5C0497
:10059800C2BFD4EB0C0541EA045170BD41F480118F
:1005A8004FF0000E013C00F3AB8014F1360FDEBFB4
:1005B800002001F0004170BDC4F10004203C35DA90
:1005C8000C341BDC04F11404C4F1200500FA05F313
:1005D80020FA04F001FA05F240EA020001F00042B4
:1005E80021F0004110EBD37021FA04F642EB06012A
:1005F8005EEA430E08BF20EAD37070BDC4F10C0454
:10060800C4F1200500FA04F320FA05F001FA04F217
:1006180040EA020001F0004110EBD37041F1000103
:100628005EEA430E08BF20EAD37070BDC4F120050E
:1006380000FA05F24EEA020E20FA04F301FA05F276
:1006480043EA020321FA04F001F0004121FA04F21E
:1006580020EA020000EBD3705EEA430E08BF20EAEE
:10066800D37070BD94F0000F0FD101F00046400028
:1006780041EB010111F4801F08BF013CF7D041EAAA
:10068800060195F0000F18BF704703F000465200AE
:1006980043EB030313F4801F08BF013DF7D043EA7F
:1006A8000603704794EA0C0F0CEA135518BF95EA35
:1006B8000C0F0CD050EA410618BF52EA4306D1D1BC
:1006C80081EA030101F000414FF0000070BD50EADB
:1006D800410606BF1046194652EA430619D094EA65
:1006E8000C0F02D150EA013613D195EA0C0F05D14F
:1006F80052EA03361CBF104619460AD181EA0301A3
:1007080001F0004141F0FE4141F470014FF000005A
:1007180070BD41F0FE4141F4780170BD70B54FF0F5
:10072800FF0C4CF4E06C1CEA11541DBF1CEA135575
:1007380094EA0C0F95EA0C0F00F0A7F8A4EB050457
:1007480081EA030E52EA03354FEA013100F088804E
:100758004FEA03334FF0805545EA131343EA126317
:100768004FEA022245EA111545EA10654FEA0026CC
:100778000EF000419D4208BF964244F1FD0404F585
:10078800407402D25B084FEA3202B61A65EB0305E1
:100798005B084FEA32024FF480104FF4002CB6EB9E
:1007A800020E75EB030E22BFB61A754640EA0C001E
:1007B8005B084FEA3202B6EB020E75EB030E22BF5E
:1007C800B61A754640EA5C005B084FEA3202B6EB9F
:1007D800020E75EB030E22BFB61A754640EA9C005E
:1007E8005B084FEA3202B6EB020E75EB030E22BF2E
:1007F800B61A754640EADC0055EA060E18D04FEAEC
:10080800051545EA16754FEA06164FEAC30343EA8B
:1008180052734FEAC2025FEA1C1CC0D111F4801F58
:100828000BD141EA00014FF000004FF0004CB6E751
:1008380011F4801F04BF01430020B4F1FD0C88BFF0
:10084800BCF5E06F3FF6AFAEB5EB030C04BFB6EBFB
:10085800020C5FEA500C50F1000041EB045170BDEE
:100868000EF0004E4EEA113114EB5C04C2BFD4EB1B
:100878000C0541EA045170BD41F480114FF0000E9F
:10088800013C90E645EA060E8DE60CEA135594EA1B
:100898000C0F08BF95EA0C0F3FF43BAF94EA0C0F1E
:1008A8000AD150EA01347FF434AF95EA0C0F7FF493
:1008B80025AF104619462CE795EA0C0F06D152EAE7
:1008C80003353FF4FDAE1046194622E750EA4106CB
:1008D80018BF52EA43067FF4C5AE50EA41047FF4DC
:1008E8000DAF52EA43057FF4EBAE12E74FF0FF3C41
:1008F80006E000BF4FF0010C02E000BF4FF0010C12
:100908004DF804CD4FEA410C7FEA6C5C4FEA430C8A
:1009180018BF7FEA6C5C1BD001B050EA410C0CBFD9
:1009280052EA430C91EA030F02BF90EA020F00203B
:10093800704710F1000F91EA030F58BF994208BFA2
:1009480090422CBFD8176FEAE37040F0010070475F
:100958004FEA410C7FEA6C5C02D150EA013C07D1B6
:100968004FEA430C7FEA6C5CD6D152EA033CD3D001
:100978005DF8040B704700BF8446104662468C46FB
:100988001946634600E000BF01B5FFF7B7FF00282E
:1009980048BF10F1000F01BD4DF808EDFFF7F4FF57
:1009A8000CBF012000205DF808FB00BF4DF808EDE2
:1009B800FFF7EAFF34BF012000205DF808FB00BF05
:1009C8004DF808EDFFF7E0FF94BF012000205DF827
:1009D80008FB00BF4DF808EDFFF7CEFF94BF0120DC
:1009E80000205DF808FB00BF4DF808EDFFF7C4FFD5
:1009F80034BF012000205DF808FB00BF4FEA410228
:100A0800B2F1E04324BFB3F5001CDCF1FE5C0DD964
:100A180001F0004C4FEAC0024CEA5070B2F1004FAE
:100A280040EB830008BF20F00100704711F0804FB1
:100A380021D113F13872BCBF01F00040704741F476
:100A480080114FEA5252C2F11802C2F1200C10FA7A
:100A58000CF320FA02F018BF40F001004FEAC1235E
:100A68004FEAD32303FA0CFC40EA0C0023FA02F302
:100A78004FEA4303CCE77FEA625307D150EA0133D8
:100A88001EBF4FF0FE4040F44000704701F00040A8
:100A980040F0FE4040F40000704700BF80F0004086
:100AA80002E000BF81F0004142001FBF5FEA41033E
:100AB80092EA030F7FEA226C7FEA236C6AD04FEA3E
:100AC8001262D2EB1363C1BFD21841404840414083
:100AD800B8BF5B42192B88BF704710F0004F40F435
:100AE800000020F07F4018BF404211F0004F41F451
:100AF800000121F07F4118BF494292EA030F3FD01D
:100B0800A2F1010241FA03FC10EB0C00C3F120032F
:100B180001FA03F100F0004302D5494260EB4000BE
:100B2800B0F5000F13D3B0F1807F06D340084FEA29
:100B3800310102F10102FE2A51D2B1F1004F40EB1E
:100B4800C25008BF20F0010040EA03007047490086
:100B580040EB0000013A28BFB0F5000FEDD2B0FA23
:100B680080FCACF1080CB2EB0C0200FA0CF0AABF46
:100B780000EBC25052421843BCBFD04018437047E4
:100B880092F0000F81F4000106BF80F400000132EA
:100B9800013BB5E74FEA41037FEA226C18BF7FEAC1
:100BA800236C21D092EA030F04D092F0000F08BF03
:100BB8000846704790EA010F1CBF0020704712F0EA
:100BC8007F4F04D1400028BF40F00040704712F129
:100BD80000723CBF00F50000704700F0004343F08E
:100BE800FE4040F4000070477FEA226216BF0846C4
:100BF8007FEA23630146420206BF5FEA412390EA87
:100C0800010F40F4800070474FF0000304E000BF7C
:100C180010F0004348BF40425FEA000C08BF70472D
:100C280043F0964301464FF000001CE050EA0102F1
:100C380008BF70474FF000030AE000BF50EA010206
:100C480008BF704711F0004302D5404261EB4101F3
:100C58005FEA010C02BF84460146002043F0B64318
:100C680008BFA3F18053A3F50003BCFA8CF2083A3D
:100C7800A3EBC25310DB01FA02FC634400FA02FC46
:100C8800C2F12002BCF1004F20FA02F243EB02004D
:100C980008BF20F00100704702F1200201FA02FCAF
:100CA800C2F1200250EA4C0021FA02F243EB0200A2
:100CB80008BF20EADC7070474FF0FF0C1CEAD052E6
:100CC8001EBF1CEAD15392EA0C0F93EA0C0F6FD0A7
:100CD8001A4480EA010C400218BF5FEA41211ED085
:100CE8004FF0006343EA501043EA5111A0FB013171
:100CF8000CF00040B1F5000F3EBF490041EAD37146
:100D08005B0040EA010062F17F02FD2A1DD8B3F1C1
:100D1800004F40EBC25008BF20F00100704790F030
:100D2800000F0CF0004C08BF49024CEA502040EA82
:100D380051207F3AC2BFD2F1FF0340EAC250704748
:100D480040F400004FF00003013A5DDC12F1190F86
:100D5800DCBF00F000407047C2F10002410021FAF8
:100D680002F1C2F1200200FA02FC5FEA310040F110
:100D7800000053EA4C0308BF20EADC70704792F089
:100D8800000F00F0004C02BF400010F4000F013AC1
:100D9800F9D040EA0C0093F0000F01F0004C02BFBC
:100DA800490011F4000F013BF9D041EA0C018FE72B
:100DB8000CEAD15392EA0C0F18BF93EA0C0F0AD031
:100DC80030F0004C18BF31F0004CD8D180EA010057
:100DD80000F00040704790F0000F17BF90F0004FF0
:100DE800084691F0000F91F0004F14D092EA0C0FD2
:100DF80001D142020FD193EA0C0F03D14B0218BF65
:100E0800084608D180EA010000F0004040F0FE40AA
:100E180040F40000704740F0FE4040F44000704746
:100E28004FF0FF0C1CEAD0521EBF1CEAD15392EAC5
:100E38000C0F93EA0C0F69D0A2EB030280EA010CB5
:100E480049024FEA402037D04FF0805343EA11114E
:100E580043EA10130CF000408B4238BF5B0042F1AC
:100E68007D024FF4000C8B4224BF5B1A40EA0C0051
:100E7800B3EB510F24BFA3EB510340EA5C00B3EB83
:100E8800910F24BFA3EB910340EA9C00B3EBD10F71
:100E980024BFA3EBD10340EADC001B0118BF5FEAC3
:100EA8001C1CE0D1FD2A3FF650AF8B4240EBC250EC
:100EB80008BF20F0010070470CF0004C4CEA5020AD
:100EC8007F32C2BFD2F1FF0340EAC250704740F4FC
:100ED80000004FF00003013A37E792F0000F00F0EE
:100EE800004C02BF400010F4000F013AF9D040EA6C
:100EF8000C0093F0000F01F0004C02BF490011F400
:100F0800000F013BF9D041EA0C0195E70CEAD153F7
:100F180092EA0C0F08D142027FF47DAF93EA0C0FDE
:100F28007FF470AF084676E793EA0C0F04D14B02C2
:100F38003FF44CAF08466EE730F0004C18BF31F074
:100F4800004CCAD130F000427FF45CAF31F000436E
:100F58007FF43CAF5FE700BF4FF0FF3C06E000BF07
:100F68004FF0010C02E000BF4FF0010C4DF804CD2A
:100F78004FEA40024FEA41037FEA226C18BF7FEA3A
:100F8800236C11D001B052EA530C18BF90EA010F3C
:100F980058BFB2EB030088BFC81738BF6FEAE170CB
:100FA80018BF40F0010070477FEA226C02D15FEA67
:100FB800402C05D17FEA236CE4D15FEA412CE1D0D3
:100FC8005DF8040B704700BF844608466146FFE79A
:100FD8000FB5FFF7C9FF002848BF10F1000F0FBD7C
:100FE8004DF808EDFFF7F4FF0CBF012000205DF875
:100FF80008FB00BF4DF808EDFFF7EAFF34BF0120FA
:1010080000205DF808FB00BF4DF808EDFFF7E0FF92
:1010180094BF012000205DF808FB00BF4DF808EDE3
:10102800FFF7D2FF94BF012000205DF808FB00BF46
:101038004DF808EDFFF7C8FF34BF012000205DF828
:1010480008FB00BF4FEA4002B2F1FE4F0FD34FF04A
:101058009E03B3EB12620DD94FEA002343F000431D
:1010680010F0004F23FA02F018BF404270474FF0CB
:101078000000704712F1610F01D1420205D110F052
:10108800004008BF6FF0004070474FF00000704705
:1010980042000ED2B2F1FE4F0BD34FF09E03B3EBDA
:1010A800126209D44FEA002343F0004323FA02F006
:1010B80070474FF00000704712F1610F01D14202F2
:1010C80002D14FF0FF3070474FF00000704700BF6B
:1010D80053B94AB9002908BF00281CBF4FF0FF3197
:1010E8004FF0FF3000F00CB8ADF1080C6DE904CEFC
:1010F80000F008F8DDF804E0DDE9022304B07047E9
:10110800704700BF2DE9F04786468C460846089E82
:10111800154674461946002B40F0C1808542B2FA44
:1011280082F245D94AB1C2F1200300FA02FC954087
:1011380094402EFA03F343EA0C0C4FEA154EA8B27A
:10114800230CBCFBFEF80EFB18CC08FB00F943EAA5
:101158000C43994528D9EB1808F1FF3704D2994573
:1011680002D9A8F102072B44A3EB0903A4B2B3FBED
:10117800FEFC0EFB1C330CFB00F044EA0344A042C7
:1011880014D92C190CF1FF3304D2A04202D9ACF1C6
:1011980002032C44241A43EA07401EB1D44000231A
:1011A80034607360BDE8F0874746DDE76346F1E7E2
:1011B80092BB431B01214FEA154EAFB2200CB3FB83
:1011C800FEFC0EFB1C330CFB07F840EA0343984572
:1011D80061D9EB180CF1FF3004D2984502D9ACF173
:1011E80002002B44A3EB0803A4B2B3FBFEFC0EFBE6
:1011F8001C330CFB07F744EA0344A7424DD92C19CA
:101208000CF1FF3304D2A74202D9ACF102032C44FB
:10121800E41B43EA0040C0E7C2F120039540944034
:1012280020FA03F12EFA03F34FEA154E9040AFB2BD
:101238000343B1FBFEFC0EFB1C10190C0CFB07F85A
:1012480041EA0041884522D969180CF1FF3004D2DF
:10125800884502D9ACF102002944A1EB08019BB2F0
:10126800B1FBFEFC0EFB1C110CFB07F743EA014324
:101278009F420ED9EB180CF1FF3104D29F4202D9DC
:10128800ACF102012B44DB1B41EA004193E76046C5
:10129800E3E76146F7E76046A4E76346B8E78342B9
:1012A80006D916B9002108467CE7C6E900E0F9E747
:1012B800B3FA83F78FB9834201D3724508D8BEEBDE
:1012C800020460EB030301209C461EB9002169E774
:1012D8003846FAE7C6E9004CF8E7C7F1200CBB40EE
:1012E8000EFA07F522FA0CF42EFA0CF1BA401C4358
:1012F80020FA0CF3B8404FEA144901431FFA84FE60
:10130800B3FBF9F809FB18300B0C08FB0EFA43EA9B
:1013180000439A4540D9E31808F1FF3004D29A45B2
:1013280002D9A8F102002344A3EB0A0389B2B3FB54
:10133800F9F809FB183308FB0EFE41EA03418E4514
:101348002CD9611808F1FF3304D28E4502D9A8F1CF
:101358000203214443EA0040A1EB0E01A0FB0298DE
:101368004145CE46434602D306D14D4504D2013805
:10137800B9EB020E68EB0403002EA7D0B5EB0E0202
:1013880061EB030101FA0CFC22FA07F3F9404CEA7D
:101398000303C6E9003199E74046C5E74346D9E764
:1013A8002DE9F0430646CDB00A200F4607F0A3FE0C
:1013B8000A2800F245824FF0010E4FF08073CDE904
:1013C80003E30023904C03A8059307F01BFD237D3E
:1013D800012B03D094F8B433002B3ED1236AA26DBD
:1013E800329394F851304FF0050C3D9394F85030F7
:1013F80036920A223C9301230025CDE9382C626DF0
:101408004193E36D3492A2693E93236E3192E26E6A
:101418003F9394F864302F9294F868208DF8003147
:10142800636B012A30938DF8DC50339540F0FD81D1
:10143800DFF8D881E567A8F12809636F9D42C0F0FD
:10144800E8810023E367D4F89030C4F88830D4F8F2
:101458009430C4F88C30002323750021022007F053
:10146800C6FC01238DF828300223CDE90B330D93F8
:10147800636A0AA80E9307F08FFC4FF0FF3007F05D
:1014880017FE94F8B4331BB12378012B40F08D81FB
:10149800002E00F0D881002F00F0D58100253946B4
:1014A800304601F0E3FC012001F000FD584B06A88E
:1014B8000693013B07938DF82150ADF822508DF823
:1014C800245007F024FA236C05203393636C4FF4FF
:1014D800C0463493A36C8DF81C513593A36D439586
:1014E80046930B23CDE94830636D2F9544934FF411
:1014F8004063CDE930634FF480733293022336930F
:1015080094F86830ADF8DC50012B40F095814149E2
:10151800E36EA1F11C00E567C4F8B033C4F880306D
:1015280001F04EFED4F88000A16901F0F3FF3A49BA
:101538003E90E06BFFF774FC3849FFF7BDFB4FF0B6
:101548007C51FFF7B1FAFFF7A3FD00263F902FA8C3
:10155800CDE9406607F0DAFA1E23CDE91336304BA1
:101568004FF0020815931F23ADF8583043F2E033CB
:101578001C9340F2011301274FF003090FA8ADF89F
:101588007430CDE90F66CDE91166CDE91886CDE94D
:101598001A66179607F048FBE36C1EA8209394F888
:1015A8005130CDE91E77229394F85030CDE9276663
:1015B8002193E36DCDE923972993236ECDE92C661A
:1015C8002A9394F86430ADF894708DF8AC308DF8A7
:1015D80098702E9607F0CAFB3946124807F065F94D
:1015E800304607F095FC4FF0014001F029FC02A9B4
:1015F80001A801F04FFC0546304601F057FC002DCC
:1016080040F0038110E000BF00000020900000209F
:1016180001010100840000200000484400E0FF446C
:1016280000018B06604E1100029A60680199C4F8A7
:10163800C023C4F8BC03C4F8C813C4F8B87307F0CF
:1016480022FC236E216A3493E36DA069434407FAB0
:1016580003F3309394F851303395329394F8503023
:10166800CDF8BC903193FFF7DBFB0FA936902FA87C
:1016780001F0E8FC384601F019FC402007F048FC6E
:101688004FF47A6001F0DCFB10224FF48063CDE95F
:101698001E234FF481731EA82193CDF8808007F094
:1016A8008BF93946384607F000FB39464FF481403C
:1016B80007F0FBF84FF4487001F0C2FB39464FF4CD
:1016C800014007F0F2F80F9820F0404001F0B8FB15
:1016D80029464CF2801007F0E8F80621072007F0A9
:1016E800E4FA39464FF4814007F0DFF84FF44870C8
:1016F80001F0A6FB39464FF4014007F0D6F80F98E1
:1017080020F0404001F09CFB29464CF2801007F085
:10171800CCF84FF4C0414FF44063CDE91F134FF4A8
:1017280080731EA821931E9507F046F9284607F0F6
:10173800EFFB07F0D3FC06A902A801F0ABFB0546B6
:10174800304601F0B3FB01F0BBFBC4F8E8030A30F4
:10175800FEF740FE0022404BFEF7B6FE3CA3D3E95D
:101768000023FEF7B1FE02460B4600203B49FEF778
:10177800D5FFFFF743F9A16AC4F8EC030646FFF763
:1017880039FC00B1A662002D3FD1D4E9EF030299DC
:10179800069A1844C4F8CC53C4F8D003C4F8DC1330
:1017A800C4F8D42307F06FFB257000232C4884F875
:1017B800C43307F07CFB012303A88DF8103007F031
:1017C80021FBD4F8B80307F055FB4FF40041012082
:1017D80007F073FC0028F8D000250126214884F87A
:1017E800D85307F064FB03A88DF8106007F00AFBD4
:1017F80007F0B7FC0321A06B07F083F8082142F239
:101808005C3001F0ABFD84F8B46328464DB0BDE808
:10181800F08341462FA801F0B3FE48462FA901F0F6
:10182800CFFC013508F1080807E6236B0E492FA8FD
:101838002F9301F0A5FE0EE6206BC4F8B00373E603
:101848006FF00805E1E76FF00105DEE7AFF3008010
:101858008DEDB5A0F7C6B03E0000B03F0000F03FE8
:10186800B8030020CC0300208800002000000000FE
:101878002DE9F84F17469046994623F000427B42DF
:10188800DFF8E4A104460D463B4342EAD3735345CF
:1018980009D8464221F000438E468346064343EA70
:1018A800D676564508D942464B4620462946FEF785
:1018B80055FC04460D4616E009F1404606F580162B
:1018C8003E4303D1BDE8F84F00F0DEBE4FEAA976EB
:1018D80053EA0B0B06F0020646EAD17617D1022E20
:1018E80005D0032E0AD020462946BDE8F88F48A324
:1018F800D3E9002348A1D1E90001D8E744A3D3E9FB
:10190800002347A1D1E90001FEF726FCD1E71743E0
:101918000DD1BEF1000F3EA3D3E9002303DA42A1A3
:10192800D1E90001F0E742A1D1E90001BFE7524542
:1019380024D1934218D1022E35A3D3E900230BD02A
:10194800032E0DD0012E03D03BA1D1E90001AEE753
:101958003BA1D1E90001D7E73BA1D1E90001A6E706
:101968003BA1D1E90001CFE7022EC0D0032EC5D09C
:10197800012E4FF0000448D00025B4E75345C8D0E5
:101988009B1AB3F1747F4FEA23521ADB32A3D3E9CF
:10199800002327A1D1E90001FEF7E0FB04460D462C
:1019A800012E21D0022E23D0002E9CD0204629467D
:1019B8002BA3D3E90023FEF7CFFB17A3D3E900231A
:1019C800A2E7B9F1000F01DA3C320ADB42464B4686
:1019D80020462946FEF7A2FE21F0004100F054FE01
:1019E800DCE700240025DBE705F100431D467AE724
:1019F8001BA3D3E9002320462946FEF7ADFB024688
:101A08000B4605A1D1E900017EE74FF000456AE7E2
:101A180059F3F8C21F6EA501182D4454FB21094043
:101A2800182D4454FB2109C0182D4454FB21F9BF3B
:101A3800182D4454FB21F93F182D4454FB21E93F4C
:101A4800182D4454FB21E9BFD221337F7CD90240B1
:101A5800D221337F7CD902C0075C143326A6913C7F
:101A6800075C143326A6A13C0000F07F00000000AC
:101A7800B1F5801F2DE9F84304460D460B4622DADE
:101A880021F00042024304D10120BDE8F84306F0EA
:101A980015BE002903DABDE8F84306F01BBE002294
:101AA8002F4BFEF711FD6FF0350204460D460B462D
:101AB8002C498B4209DD22462B4620462946FEF753
:101AC8004DFBBDE8F8830022F2E71815C3F31308AD
:101AD800A0F2FF3010444FEAD07900EBD070FEF747
:101AE80089FCC9F57F7306460F460333204648EA4A
:101AF8000355294600F060FF80468946304639463E
:101B080011A3D3E90023FEF7DFFC04460D46404647
:101B180049460FA3D3E90023FEF7D6FC02460B463D
:101B280020462946FEF71AFB04460D46304639463C
:101B380009A3D3E90023FEF7C7FC02460B4620465B
:101B48002946BCE7AFF30080362BF111F3FE593D6F
:101B58000EE526157BCBDB3F00609F501344D33F37
:101B680000005043FFFFEF7F2DE9F04F91B00D4685
:101B78000446CDE90023DDE9007B2BF0004252EA60
:101B8800070111D1031885F4002252419942864B6E
:101B9800934180F0D18020462946DDE90023FEF7F5
:101BA800DDFA04460D4618E025F000487F4BA946AB
:101BB800844698451DD815D10028ECD14245EAD86D
:101BC80026D1002FE7D17A4B984540F2B880BBF177
:101BD800000FC0F21E85DDE900452046294611B0F8
:101BE800BDE8F08F9A4204D8C64612D1002F00F003
:101BF8009C8009F1404909F5801959EA0C09CAD1B4
:101C0800FA198BF400235B419145674A9A41C0E772
:101C1800C646B9F1000F2BDA664B9A422DD9002F30
:101C280000F0BA800226204625F00041BCF1000FE2
:101C380000F0A9824FEAD97303F1FF3A5AEA060C79
:101C480000F0BB82B2F1844F40F2CF805A4CA242DE
:101C5800574A40F2D682904500F2C982BBF1000F84
:101C680080F2C982002011B0BDE8F04F06F01ABD1D
:101C7800002F00F081800026D5E74D4B9A421AD8F4
:101C8800002FF8D1BBF1804F7DD04C4B3E469B4591
:101C9800C9D1204625F00041BCF1000F40F09D80DD
:101CA800424B984540F0B984012E04460D4694D124
:101CB80001F1004591E71315A3F2FF33142B1DDD45
:101CC800C3F1340327FA03F606FA03F3BB4228D11B
:101CD80006F00106C6F10206002FA4D1BBF1804F21
:101CE800A1D1374B98459ED8364B98456ED9224698
:101CF8002B4620462946FEF7E7FB52E7002F40F027
:101D08003B82C3F1140342FA03F606FA03F3934243
:101D18002D4B1DD19A421DD006F00106C6F10206D0
:101D2800DCE7002FA7D13E46D8E708F1404303F58A
:101D3800801303437FF447AF0024234D4DE7BBF1E5
:101D4800000F80F26684DDE9004303F1004544E7B3
:101D58009A42E8D1BBF1000FBFF63FAF0022002343
:101D680020462946FEF718FE78B14FEAD97011B01F
:101D7800BDE8F04F06F0A2BC134B9A42EAD0BBF183
:101D8800804F40F0EF813E46ABE722462B460020CD
:101D98000D49FEF7C3FC04E7BBF1804F02D0074BA7
:101DA800022674E702269CE70000F0FF0000F07F9F
:101DB800FFFFEF3FFFFF3F430000F0430000E03F1D
:101DC800FFFFEF5F0000501E0000F03F5CEA080CC8
:101DD800204625F0004100F028844FEAD97303F12A
:101DE800FF3A56EA0A0300F0E881C74B002209EAE5
:101DF80003032BB9C54BFEF767FB6FF034028E4621
:101E08004FEA2E53CEF3130EA3F2FF334EF07F5555
:101E1800134445F440150C93BD4B9E4508DDBD4B5E
:101E28009E4540F3A8820C9BA5F5801501330C93C1
:101E38000024E30029466D100D93B74B45F000557B
:101E480003EBC40305F50025D3E90023CDE90A0116
:101E5800CDE90823FEF780F980468946DDE90A23A3
:101E6800DDE90801FEF77AF902460B460020AB4986
:101E7800FEF754FC02460B46CDE90E0140464946A2
:101E8800FEF722FBCDE90601DDE90623CDE90423AF
:101E980000230493DDE90423CDE9022305EB844301
:101EA80000221D46144629462046DDE90223FEF796
:101EB8000BFB02460B4640464946FEF74DF9804665
:101EC800894620462946DDE90823FEF745F90246FA
:101ED8000B46DDE90A01FEF73FF9DDE90223FEF7CB
:101EE800F3FA02460B4640464946FEF735F9DDE966
:101EF8000E23FEF7E9FADDE90623CDE908011046CD
:101F08001946FEF7E1FA804689466DA3D3E9002316
:101F1800FEF7DAFA6CA3D3E90023FEF71FF942466D
:101F28004B46FEF7D1FA6AA3D3E90023FEF716F968
:101F380042464B46FEF7C8FA67A3D3E90023FEF7EB
:101F48000DF942464B46FEF7BFFA65A3D3E90023D5
:101F5800FEF704F942464B46FEF7B6FA62A3D3E908
:101F68000023FEF7FBF804460D4642464B46404622
:101F78004946FEF7A9FA02460B4620462946FEF7CF
:101F8800A3FA04460D46DDE90223DDE90601FEF762
:101F9800E5F8DDE90823FEF797FA22462B46FEF717
:101FA800DDF804460D46DDE9022310461946FEF722
:101FB8008BFA02460B46CDE90A230022584BFEF75E
:101FC800CDF822462B46FEF7C9F800208946804600
:101FD800DDE90223FEF778FA0022514BCDE9020130
:101FE80040464946FEF7B8F8DDE90A23FEF7B4F89B
:101FF80002460B4620462946FEF7AEF8DDE90623E1
:10200800FEF762FA04460D4640464946DDE90823D4
:10201800FEF75AFA02460B4620462946FEF79EF876
:1020280004460D4602460B46DDE90201FEF796F826
:102038000020894680462EA3D3E90023FEF744FA00
:10204800DDE90223CDE9060140464946FEF784F85A
:1020580002460B4620462946FEF77EF826A3D3E91A
:102068000023FEF731FA04460D464046494624A3AC
:10207800D3E90023FEF728FA02460B4620462946F4
:10208800FEF76CF80D9A274B1344D3E90023FEF7AB
:1020980065F8CDE908010C98FEF7ACF90D9A224BCA
:1020A80004460D461344D3E90023DDE90601CDE9D2
:1020B8000223DDE90823FEF751F837E0AFF300808B
:1020C800EF4E454A287ECA3F65DBC9934A86CD3F15
:1020D80001411DA96074D13F4D268F515555D53FFB
:1020E800FFAB6FDBB66DDB3F033333333333E33F93
:1020F800000000E009C7EE3FFD033ADC09C7EE3FE8
:10210800F5015B14E02F3EBE0000F07F0000404365
:102118008E98030079B60B00A8B200000000F03FCB
:102128000000084088B2000098B20000DDE90223F0
:10213800FEF714F822462B46FEF710F80020224638
:102148002B4680468946FEF707F8DDE90223FEF7AD
:1021580003F8DDE90623FDF7FFFF02460B46DDE93C
:102168000801B9E0B04B9B452ED12046294611B055
:10217800BDE8F04F06F05EB9BCF1000F1DD1204656
:1021880025F00041664629F0404CA84B9C451DD1DE
:10219800BBF1000F05DA02460B460020A349FEF703
:1021A800BDFAB9F1000FBFF6FCAC08F1404808F5DC
:1021B800801858EA06087FF477AD2046294611B002
:1021C800BDE8F04F06F086BA3E462CE5B8F1000FA0
:1021D8007FF430ADBBF1000F80F22782B9F1000F18
:1021E80003DA731E58425841C1E54046BFE5BBF1CA
:1021F800000F3FF737AD002011B0BDE8F04F08F0F1
:102208001FBD904505D2BBF1000F03EA0600F3DAC3
:1022180029E5864A904506D9BBF1000F03EA060076
:102228003FF721ADE8E70022804BFDF795FF044614
:102238000D4673A3D3E90023FEF746F972A3D3E949
:102248000023CDE9020120462946FEF73DF9002288
:10225800774BCDE9040120462946FEF735F90246B9
:102268000B466BA1D1E90001FDF776FF22462B460C
:10227800FEF72AF902460B4600206B49FDF76CFF72
:102288008046894622462B4620462946FEF71CF9F9
:1022980002460B4640464946FEF716F95EA3D3E9C7
:1022A8000023FEF711F902460B46DDE90401FDF7AC
:1022B80053FF02460B4604460D46DDE90201FDF7D1
:1022C8004DFF002089468046DDE90223FDF744FFE3
:1022D80002460B4620462946013EFDF73DFF0022F7
:1022E800044656EA0A064FF000060D4618BF4F4B43
:1022F800B24608BF4F4BDDE90001CDE902235B463A
:102308003246FDF729FF42464B46FEF7DDF8DDE988
:102318000023CDE9040120462946FEF7D5F80246F8
:102328000B46DDE90401FDF719FF5B463246CDE9AE
:10233800000140464946FEF7C7F80B46024680466C
:102348008946DDE90001FDF709FF3B4B04460D46D0
:1023580099428B4631DD01F13F4303F5E003034326
:102368000BD000220023DDE90201FEF71FFB801BD2
:1023780018BF012077E401245BE529A3D3E90023F2
:10238800DDE90001FDF7EAFE06460F4642464B46E8
:1023980020462946FDF7E0FE02460B463046394600
:1023A800FEF722FB30B300220023DDE90201FEF72D
:1023B800FDFA003818BF012055E421F000431F4CF6
:1023C800A3423FD91E4B0B44034309D000220023EC
:1023D800DDE90201FEF7EAFA003818BF01200BE731
:1023E80042464B46FDF7B8FEDDE90023FEF7F2FA58
:1023F8000028EBD140F2094328E000BFAFF300808A
:10240800000000604715F73F44DF5DF80BAE543E0F
:10241800555555555555D53FFE822B654715F73F00
:10242800FE822B654715973C0000E03F0000F03F17
:102438000000D03F0000F0BFFFFF8F40FFCB90406F
:1024480000346F3F8C4A934225D91B15A3F2FE3303
:102458004FF4801A8948BBF1000F4AFA03FA4FF08B
:102468000002DA44CAF30A51A1F2FF3140FA01F03E
:10247800C1F1140100EA0A03CAF3130A40464AF4F8
:10248800801A4AFA01FA4946B8BFCAF1000AFDF7AC
:1024980063FE80468946002440464946DDE900231C
:1024A800FDF75CFE0D46204663A3D3E90023FEF743
:1024B8000BF8424606460F464B4620462946FDF78E
:1024C8004BFE02460B46DDE90001FDF745FE5CA325
:1024D800D3E90023FDF7F8FF8046894620462946C0
:1024E80059A3D3E90023FDF7EFFF02460B46404608
:1024F8004946FDF733FE04460D4602460B46304674
:102508003946FDF72BFE3246804689463B46FDF7A5
:1025180023FE02460B4620462946FDF71DFE42468D
:1025280006460F464B4640464946FDF7CDFF044652
:102538000D4647A3D3E90023FDF7C6FF46A3D3E919
:102548000023FDF709FE22462B46FDF7BDFF44A3F5
:10255800D3E90023FDF702FE22462B46FDF7B4FF20
:1025680041A3D3E90023FDF7F7FD22462B46FDF7EB
:10257800ABFF3FA3D3E90023FDF7F0FD22462B462E
:10258800FDF7A2FF02460B4640464946FDF7E4FD2B
:1025980004460D4602460B4640464946FDF794FF61
:1025A80000224FF08043CDE9000120462946FDF77F
:1025B800D3FD02460B46DDE90001FEF7AFF83246CF
:1025C80004460D463B4640464946FDF77DFF3246E8
:1025D8003B46FDF7C3FD02460B4620462946FDF75C
:1025E800BBFD42464B46FDF7B7FD02460B460020B1
:1025F8002349FDF7B1FD01EB0A54B4F5801F06DA53
:10260800524605F0D1FFDDE90223FFF774BB2146EE
:10261800F9E700240025FFF7E0BA194B98453FF485
:10262800C4ADB8F1000F7FF4D8AB012E7FF4B9AA7E
:10263800FFF7D3BAAFF3008000000000432EE63F57
:10264800EF39FAFE422EE63F396CA80C615C20BED9
:10265800D0A4BE726937663EF16BD2C541BDBB3EA0
:102668002CDE25AF6A56113F93BDBE166CC1663F7E
:102678003E5555555555C53F0000E03F0000F0FF59
:102688000000F03F000000002DE9F84FC04A21F09B
:10269800004304460D4693428B4620D9BD4A9342D7
:1026A80001D80CD158B122462B4620462946FDF7C1
:1026B80055FD04460D4620462946BDE8F88FBBF176
:1026C800000F95A3D3E9002303DD95A1D1E900010B
:1026D800EDE795A1D1E90001FDF73EFDE9E7AE4A36
:1026E800934211D8A2F1DE7293420AD890A3D3E99B
:1026F8000023FDF733FD0022A84BFEF775F90028EB
:10270800D9D14FF0FF3A27E0A54A064621F0004705
:10271800934200F2B880A2F55022934200F29B80C7
:1027280002463B4639464FF0000AFDF717FD0022E6
:102738009A4BFDF711FD04460D4600224FF08043E9
:1027480030463946FDF70AFD02460B462046294623
:10275800FDF7E4FF04460D4622462B46204629464F
:10276800FDF7B2FE02460B4680468946FDF7ACFEF1
:1027780006460F4670A3D3E90023FDF7A5FE70A314
:10278800D3E90023FDF7EAFC32463B46FDF79CFE01
:102798006DA3D3E90023FDF7E1FC32463B46FDF784
:1027A80093FE6BA3D3E90023FDF7D8FC32463B46E2
:1027B800FDF78AFE68A3D3E90023FDF7CFFC324674
:1027C8003B46FDF781FE66A3D3E90023FDF7C6FC6F
:1027D80042464B46FDF778FE8046894630463946E4
:1027E80061A3D3E90023FDF76FFE61A3D3E90023BA
:1027F800FDF7B2FC32463B46FDF766FE5EA3D3E921
:102808000023FDF7A9FC32463B46FDF75DFE5CA3BD
:10281800D3E90023FDF7A0FC32463B46FDF754FE02
:1028280059A3D3E90023FDF797FC32463B46FDF751
:102838004BFE02460B4640464946FDF78FFC2246B2
:102848002B46FDF741FEBAF1FF3F02460B4644D145
:102858002046294640E70022504B39464FF0010AEE
:10286800FDF77AFC04460D4600224C4B30463946AB
:10287800FDF774FC02460B4620462946FDF74EFF3D
:1028880004460D4668E7474A93421BD20022464B4E
:1028980039464FF0020AFDF75FFC002204460D4658
:1028A800414B30463946FDF70FFE00223B4BFDF702
:1028B80055FC02460B4620462946FDF72FFF0446E5
:1028C8000D4649E702463B4600203849FDF726FFFA
:1028D8004FF0030A04460D463EE7354B354E03EBF1
:1028E800CA0306EBCA06D3E90023FDF735FC2246E6
:1028F8002B46FDF731FC02460B46D6E90001FDF7F1
:102908002BFCBBF1000F04460D46BFBF024601F188
:10291800004314461D46CEE6075C143326A6913CB8
:10292800182D4454FB21F93F182D4454FB21F9BFBD
:102938009C7500883CE4377E11DA22E33AAD903F7B
:10294800EB0D76244B7BA93F513DD0A0660DB13FDE
:102958006E204CC5CD45B73FFF8300922449C23F46
:102968000D5555555555D53F2F6C6A2C44B4A2BF0B
:102978009AFDDE522DDEAD3F6D9A74AFF2B0B33FD3
:10298800711623FEC671BC3FC4EB98999999C93F4B
:10299800FFFF0F440000F07FFFFFDB3F0000F03F28
:1029A800FFFFF23F008003400000F83F0000F0BF47
:1029B800B8B20000D8B20000B1F5801F2DE9F04F81
:1029C800074687B088460D4625DA21F000430343C1
:1029D80005D1012007B0BDE8F04F05F06FBE002912
:1029E80004DA07B0BDE8F04F05F074BE0022C64B0C
:1029F800FDF76AFD88460D4607466FF03501C34866
:102A080085420ADD3A46434638464146FDF7A6FB6D
:102A180007B0BDE8F08F0021F1E72C15C5F31305C9
:102A280000223846A4F2FF340C4405F5152101F6BE
:102A3800647101F4801686F07F5104EB165481F41A
:102A4800401141EA05031946B14BFDF785FBAB1C64
:102A580082468B46C3F313030022022B53DC002368
:102A6800FDF79AFFD0B1002C00F020812046FDF739
:102A7800C1FC06460F4690A3D3E90023FDF724FDC9
:102A880004460D46304639468DA3D3E90023FDF7A9
:102A98001BFD02460B4620462946B7E78AA3D3E921
:102AA800002350465946FDF70FFD02460B4600200D
:102AB8009849FDF751FB06460F4652465B4650467D
:102AC8005946FDF701FD02460B4630463946FDF7EB
:102AD800FBFC06460F4614B932463B46A0E02046AA
:102AE800FDF788FC8046894673A3D3E90023FDF7E8
:102AF800EBFC04460D464046494671A3D3E9002342
:102B0800FDF7E2FCA5E04FF08043A5F5C226FDF7EE
:102B180025FB02460B4650465946C5F5D725FDF715
:102B2800FDFDA6F27A465135CDE900012046354330
:102B3800FDF760FCDDE90023CDE9020110461946E6
:102B4800FDF7C2FC02460B46CDE90423FDF7BCFCA9
:102B5800804689465EA3D3E90023FDF7B5FC5EA352
:102B6800D3E90023FDF7FAFA42464B46FDF7ACFCE1
:102B78005BA3D3E90023FDF7F1FA42464B46FDF784
:102B8800A3FC59A3D3E90023FDF7E8FADDE9042300
:102B9800FDF79AFC56A3D3E90023CDE9040140468A
:102BA8004946FDF791FC54A3D3E90023FDF7D6FA73
:102BB80042464B46FDF788FC51A3D3E90023FDF7B5
:102BC800CDFA42464B46FDF77FFC02460B46DDE94F
:102BD8000401FDF7C3FA002D8046894648DD00222E
:102BE8004C4B50465946FDF76FFC52465B46FDF785
:102BF8006BFC02460B4606460F4640464946FDF723
:102C0800ADFADDE90023FDF75FFC8046894664B92B
:102C180002460B4630463946FDF79EFA02460B46F9
:102C280050465946FDF798FAF2E623A3D3E9002364
:102C3800DDE90201FDF748FC04460D4620A3D3E96F
:102C48000023DDE90201FDF73FFC42464B46FDF754
:102C580085FA02460B4630463946FDF77DFA52465C
:102C68005B46FDF779FA02460B4620462946D9E726
:102C780002460B4650465946FDF76EFADDE9002339
:102C8800FDF722FC06460F46002C3FF425AF0AA3A9
:102C9800D3E90023DDE90201FDF716FC04460D46E1
:102CA80007A3D3E90023DDE9020129E70020002179
:102CB800AEE600BFAFF300800000E0FE422EE63F24
:102CC800763C7935EF39EA3D555555555555D53F3B
:102CD80044523EDF12F1C23FDE03CB966446C73F43
:102CE800599322942449D23F935555555555E53F5C
:102CF8009FC678D0099AC33FAF788E1DC571CC3F67
:102D080004FA97999999D93F00005043FFFFEF7F44
:102D18000000F03F0000E03F38B5254806F006FB0C
:102D280000F0E6FE00283DD1224806F0FFFA00F048
:102D3800A1FE322005F0D7FC00F0A4FE322005F0F9
:102D4800D2FC1D4806F0F2FA1C4C00F07BFB4FF455
:102D5800806000F055FB40F2044000F051FB204633
:102D680000F0FCFD164B186040B9236833B1186BAE
:102D7800FEF768F90146134806F0D8FA4FF40061E7
:102D88001148FEF70DFB0021084600F0F1FD0E4D3D
:102D98000E4C2046296806F0C9FA4FF4FA6005F08F
:102DA800A2FCF6E70A4806F0C1FA002038BD00BFC9
:102DB800D8B500000FB600002BB60000FC100020AC
:102DC800F81000203FB60000F808002052B60000B6
:102DD800ECB5000030B50A4BC0F38700D3E90324F3
:102DE80000239A4202D16FF0060005E014F8235040
:102DF800854202D100200B6030BD0133F1E700BFEE
:102E08000011002010B50D4BDC685A6922445C683B
:102E180094420ED91A698008141F1C6102F8040C28
:102E28001A69106861F31F2010605A6901325A61EB
:102E380010BD6FF003029A61FAE700BF001100208D
:102E480010B5094BD9685A695C680A44944295BF21
:102E58006FF003029A689A6142F8210082BFDA682B
:102E68000132DA6010BD00BF0011002001290DD920
:102E78000022074BC3E9011001F180410139C3E980
:102E8800052200EB81001861DA601A70704700BFF4
:102E980000110020044B08B19A68026009B1DA6891
:102EA8000A609869704700BF00110020034B18B1F1
:102EB80000220120DA609A61187070470011002022
:102EC800002010B50A4B9A68596902EB81018A42C1
:102ED80000D110BD52F8043B002B4FEA937401DA7D
:102EE8000130F4E7E407FBD423F040431844EEE74D
:102EF8000011002030B5C3680446012B0D4687B089
:102F080020D10368022B33D10522234B18681B7983
:102F180002908DF80C30214B18681B7904908DF8BD
:102F280014300DF10703207902A905F0ECFB78B302
:102F380001209DF8073018336B4413F8083C2B70B8
:102F480007B030BD23BB0368022BDDD1144B1A88B0
:102F58009B78ADF808208DF80A30124B1A889B78B8
:102F6800ADF810208DF8123003220DF10703DAE7CF
:102F78000D4B062218689B880290ADF80C300B4B5D
:102F880018689B880490ADF814300DF10703CAE760
:102F980000202870D4E700BF69B600006FB60000B3
:102FA80075B6000079B600007DB6000084B6000052
:102FB80030B5C3680446012B0D4687B01CD10368A1
:102FC800022B28D140F60733ADF8083040F20A53F7
:102FD8000222ADF810300DF10703207902A905F09F
:102FE80092FB40B301209DF8073018336B4413F867
:102FF800083C2B7007B030BDEBB90268022AE1D15A
:1030080040F60933ADF8083040F60F23ADF810301C
:103018000DF10703E1E7094B062218689B88029027
:10302800ADF80C30064B18689B880490ADF8143046
:103038000DF10703D1E700202870DBE78BB600000D
:1030480092B60000F0B5844600240F469BB05B4D55
:103058000DAE0FCD0FC60FCD0FC60FCD0FC655F84D
:10306800043B0294336003AE95E80F0086E80F0036
:103078003C60644614B3DCF80C300B2B1ED8DCF82B
:103088000820022A1AD8DCF81010032916D8DCF810
:103098000000042810D8DFE800F00313296A400074
:1030A8001420DCF804305843FDF7AEFDE169FDF764
:1030B80003FEFDF7EDFF0290029B3B601BB0F0BDE5
:1030C8001423DCF8040058431AAB03EB820252F8CD
:1030D8005C3C283058431430FDF796FDE169FDF754
:1030E800EBFD4FF07C51FDF7DFFCE2E71AA901EB9D
:1030F8008303DCF8042053F8343C604602FB0333B6
:1031080001220133CCE9002302A9FFF79BFF022328
:103118002360029B0F330293CEE79CF8181007A890
:103128000A910DF10601CDE90723FFF7E3FE0546F5
:1031380018B19DF80650013DEDB20DF1070107A841
:10314800FFF736FF20B19DF80730013B2B44DDB275
:1031580002232360636820462B44636002A9FFF7BB
:1031680071FF0423236063685B1B6360A4E7DCF8DA
:103178001430032B09D8DFE803F00F0D02160023E3
:103188002360204602A9FFF75DFF03232360029B0B
:103198001933C0E70123F3E79CF81930002B0CBF63
:1031A80004230223ECE701231944CCF80030DCF8AF
:1031B80004308B40CCF80430E3E700BF60B0000077
:1031C8002DE9F84F8468C7684568037C06468B4636
:1031D800D0F814802146284607F1FF3A002B66D024
:1031E800FDF708FFC0B308F10108B84508BF4FF064
:1031F80000082946C6F814802046FDF711FEFDF7A1
:103208000BF9FEF735FC06460F464046FDF7E2F897
:1032180032463B46FDF758F9064650460F46FDF73D
:10322800D9F802460B4630463946FDF777FA02468A
:103238000B4600204849FEF797FC06460F462846ED
:10324800FDF7EAF832463B46FDF73EF9FDF7D6FBB7
:10325800CBF80000BDE8F88F08F1FF30B84228BF6E
:1032680050467061FDF7B6F806460F4628462146D7
:10327800FDF7D6FDFDF7D0F8FEF7FAFB804650467D
:103288008946FDF7A7F802460B4640464946FDF732
:1032980045FA32463B46FDF717F902460B46002031
:1032A8002D49FEF761FC06460F462046C8E7FDF7A4
:1032B800A1FE60B308F10100B84208BF00207061A8
:1032C800FDF788F806460F4620462946FDF7EAFB33
:1032D800FDF7A2F802460B4630463946FDF7F4F8EA
:1032E800064650460F46FDF775F802460B4630462F
:1032F8003946FDF713FA06460F462846FDF78CF8BF
:1033080002460B4630463946FCF728FF9EE708F18F
:10331800FF30B84228BF50467061FDF75BF806469B
:103328000F4628462146FDF7BDFBFDF775F8024616
:103338000B4630463946FDF7C7F8064650460F4655
:10334800FDF748F802460B4630463946FDF7E6F9E0
:1033580006460F462046D1E700002440F7B5274F20
:1033680004463B780E46012B26D1B0F5085F04D3FE
:103378006FF00403BB6103B0F0BD01A9FFF72AFD9C
:10338800A50505F0FE4526F07F431D4345F00045A1
:1033980068B9019A3B6953F8221066F31F2143F874
:1033A8002210284603B0BDE8F040FFF749BD31467A
:1033B8002046FFF727FDF4E700F04CFB202005F03E
:1033C800CDF9204605F0ACF900F04CFB00F042FBCB
:1033D8002D2005F0C3F942F21403A4F58054A4B2D9
:1033E8009C4207D8304605F0ABF903B0BDE8F04081
:1033F80000F038BBB0B205F093F9F6E700110020F1
:1034080037B50F4D04462B78012B14D101A9FFF7CE
:10341800E1FC48B1204605F0ACF901462046FFF72B
:10342800F1FC084603B030BD2B69019A53F822100D
:10343800C1F31721F5E703B0BDE8304005F099B9AD
:103448000011002030B500249DB070221449684650
:1034580007F06FFB134B6D46C3E90544DC601C7035
:1034680000F000FB696828880134FFF777FF0E2C0D
:1034780005F10805F6D140F20440FFF7C1FFA0F5B9
:10348800AA43013B012B04D80122074B1A701DB037
:1034980030BDB0F5AA4FFAD10022034BF6E700BFC2
:1034A8000CB1000000110020B41900200A29FFB453
:1034B80005460B4627D8022909D90831C900114306
:1034C8001DB342F2F40004B0F0BCFFF747BF6E46EC
:1034D8000F4C04F1080C374620686168083403C7AC
:1034E80064453E46F7D12068A1793860A088042A4F
:1034F800B880B97107D803EB830310336B441344C6
:1035080013F8101CDAE7F821D9E742F2F800DAE7F5
:103518007CB1000070B50D46174B06461B7800219C
:10352800012B28460CBF1E241A24FDF759FD08BBA1
:103538000120A4F12001C4F1200320FA03F300FACA
:1035480001F11943A040FDF779FB3146FDF7B4FBC3
:103558002946FDF765FC4FF07C51FDF7A5FAFDF70C
:1035680097FD1A2C054B18BF6FF07F43984228BF70
:10357800184670BD0020FCE7B4190020FFFF0F00BB
:103588002DE9F047D4B00DF1440845463A4C84463D
:103598000F460FCC0FC50FCC26460FC556F8043B77
:1035A8000DF12C092B604D460FCE0FC596E8030090
:1035B8001C3485E803000FCC1AAD0FC50FCC0FC51E
:1035C80094E80F00644685E80F00002C00F0B581F0
:1035D800DCF8046000213046FDF702FD002840F0C9
:1035E800A981002F00F0A9812449E068FDF720FD9A
:1035F8006369B0F1000A18BF4FF0010A082B38D1EF
:10360800636AA5690A2B09D0A26A54A901EB83034E
:1036180059F8222053F8E83C13441D443046FCF77F
:10362800FBFE0022164BFCF74FFF804628468946D2
:10363800FCF7D0FE02460B4640464946FDF76EF8B9
:10364800FDF7DCF90F490546FDF7DEFC0646E8B153
:1036580028460C49FDF7E4FB0B49FDF72DFB014615
:10366800FDF722FAFDF714FD0126451C6D08B14649
:1036780024E058F82350D1E78CB100000050C34B28
:10368800008096400000204200E0FF442846AC49F4
:10369800FDF7BAFC8146002800F01E812846A8499B
:1036A800FDF7BEFBA749FDF707FB0146FDF7FCF94F
:1036B800FDF7EEFC4FF00109451C6D0843F20C00C4
:1036C800FFF79EFE012202218046104605F0D8FC35
:1036D80000219D4805F0E9F800239C4A07A8CDE998
:1036E80007238DF82530ADF826308DF8283005F001
:1036F8000EF9CDE93B9604F110034BAA04F1300C06
:10370800164618685968083303C663453246F7D128
:1037180018684FF4007C40F602134FF0070E306033
:10372800CDE939C302230126CDE93DE340F2011377
:10373800A1682068ADF8FC30CDE93766FFF7EAFEEE
:1037480040F2FF739D4294BF4795479300254690EA
:1037580037A84FF01409CDE9485505F0D7F92423C7
:1037680008212FA8CDE92639289605F029F8032342
:103778002B938AEA06032C93A36BE06B2A93636B63
:10378800216C299331AB03C3606CADF8B460186049
:1037980026A8CDE934558DF8B860369505F0E6FAD7
:1037A80031466B4805F081F831464FF4814005F009
:1037B8007CF8192005F0D1FC31464FF4014005F0A2
:1037C80074F80221012005F078FC0028F9D00021C6
:1037D8004CF2801005F069F8022005F069FC42F20D
:1037E8007800FFF70DFE0190814642F27C00FFF75A
:1037F80007FE012102900646084605F056FA012107
:103808004FF4814005F051F8192005F0A6FC01217C
:103818004FF4014005F049F80221012005F04DFC64
:103828000028F9D000214CF2801005F03EF8022063
:1038380005F03EFC42F27800FFF7E2FD05460390F2
:1038480042F27C00FFF7DCFD19F4003F1CBF6FEA71
:1038580089326FEA92320346049018BF0192B0038E
:1038680042BF6FEA86366FEA96360296A90342BFD0
:103878006FEA85356FEA953503959A0342BF6FEA7B
:1038880083336FEA93330493039B05AD5B42039341
:10389800029B01AA5B42284603A9029304F094FF05
:1038A800666828683146FDF707FA31462860686877
:1038B800FDF702FAA36C68609BBB95E8030087E8F4
:1038C800030018F0020203D10221012005F0D8FB01
:1038D800002054B0BDE8F08728461E49FDF794FB48
:1038E800064678B128461B49FDF79AFA1549FDF7AF
:1038F800E3F90146FDF7D8F8FDF7CAFB451C012698
:103908006D08DBE628461449FDF78AFA0D49FDF7EC
:10391800D3F90146FDF7C8F8FDF7BAFB451C6D0859
:10392800A5E6284604F09AFF3860284604F0ACFF64
:103938007860C6E76FF00100CBE76FF00200C8E7D8
:103948000000484300E0FF44E0FF390001010100A6
:10395800400E11000000A0430000C84418B1034BFA
:103968000360002070476FF00100704700000020DE
:1039780070B596B0042821D8DFE800F00326323766
:1039880043000A2005F0B7FB0A2851D82A4C94F8BE
:10399800B433B3B101260025A16AE069CDE9045525
:1039A8008DF85460FDF73CFAFDF772FB03380D9073
:1039B80004A8119605F0B1FAC4F8E453002016B033
:1039C80070BD6FF06300FAE70A2005F094FB0A283F
:1039D8002ED8002005F040FB002005F03DFBEDE768
:1039E8000122154B83F8E023E8E70029E6D0124BC3
:1039F80093F86820012A0CBFD3F8B0331B6B0B6017
:103A0800DCE700210120FFF7B3FF0D220021684603
:103A180007F09CF8684604F07AFF3C22002104A8CD
:103A280007F094F804A805F0FFF805F057FBC5E780
:103A38006FF00800C3E700BF0000002010B4134671
:103A4800826814680A46A446014910BC604700BF52
:103A5800F8B2000000220C21014805F06EBB00BF3F
:103A6800F4AC000001220C21014805F066BB00BF40
:103A7800F4AC000000220721014805F05EBB00BF3E
:103A880014AD000001220721014805F056BB00BF14
:103A980014AD0000012310B588B01446CDE900022A
:103AA800059204AACDE90331CDE90623CDF808D063
:103AB80070B159B106AA02A90A48FFF7BFFF70B151
:103AC80001462246084805F031FC08E00A46F2E7BC
:103AD80011B1014606AAEFE7044805F027FC08B033
:103AE80010BD00BF54AD0000BFB6000099B600007D
:103AF80008B5104806F0B3FE28B90F4805F016FCC3
:103B08004FF0FF3008BD0D4806F0A9FE08B90C4873
:103B1800F4E70C4806F0A3FE08B90B48EEE70C21C1
:103B2800084805F0FBFA0548072105F0F7FA0020D8
:103B3800E8E700BF54AD0000DAB6000014AD00009D
:103B4800E9B60000F4AC0000F9B60000014B1B68B0
:103B5800184700BFF0030020014B1860704700BFF2
:103B6800F003002030B585B004460D461022002130
:103B7800684606F0EBFF02238DF80230044B2A4614
:103B880021466846019304F0FBF905B030BD00BF3B
:103B9800553B000080B505460E461746984603F08B
:103BA800DDFD034607F054F80446DFF81890424656
:103BB80049F8003039463046A84754F8090000F063
:103BC80013FD00BF080000002DE9F047058B0446EF
:103BD8002807904611D4022905F0070540F0CC804B
:103BE800204605F0B0FB78B10138218B042811D8A4
:103BF800DFE800F0C2106D85950001290CBF45F083
:103C0800100545F02005258388F31188BFF36F8FD1
:103C1800BDE8F08701F0070AAA4500F0A580002753
:103C2800B9463E46A368002B00F0BC8041F008016D
:103C3800218388F31188BFF36F8FA168002900F0F2
:103C4800BA800D68002900F0B680334652462046F7
:103C5800D1F80480C047002D76D02B6829461D4630
:103C6800F0E701F007035A1F012A1BD8002221F0B0
:103C78000701062B276889B2C4E9002209D13B460F
:103C880003E0628B013262831B68002BF9D141F09B
:103C980002012046218305F056FB00287AD041F026
:103CA800200176E0042B0AD121F0070189B22046D1
:103CB800218305F048FB10B141F020012183218BBD
:103CC80001F0070AAA454FD00027B946AAE7236999
:103CD80021F0070141F00601062DD3F80090218359
:103CE8002DD1B9F1000F3FD041F00801218388F3AD
:103CF8001188BFF36F8F20463949C84729E021F062
:103D08000701236941F0040189B2042DD3F8049016
:103D18002183E6D000274FF0040A3E4682E721F0CF
:103D28000701236941F0050189B2052DD3F80890F0
:103D38002183D6D000274FF0050A3E4672E70027B8
:103D48004FF0060A3E466DE72B4687E7B9F1000FAC
:103D5800D1D1EFF31188202383F31288BFF36F8F3B
:103D6800238B23F008032383258BEA062ED525F021
:103D78001003238305F007056669218B002EBFF623
:103D880070AF00232768C4E9003321F0070141F030
:103D980001012183218B4FF0000901F0070AAA4590
:103DA8007FF440AF002F9CD041F00801218388F3B5
:103DB8001188BFF36F8F002FC8D03D68394633464E
:103DC8005246204605F0EBFA2F46F4E7AB067FF59E
:103DD8001BAF25F02003238305F0070500E700BF8C
:103DE800D3930000014B0360002070470CB3000020
:103DF80008B5044805F09AFABDE80840024805F0FD
:103E080095BA00BF09B700003EB70000014803F0AB
:103E180075BF00BF0CB3000038B5044618B90F4B86
:103E28000F485B6898476168B1F5683F10D0B1F5F5
:103E3800680F0DD00B4DA9420AD011F468612068B3
:103E480007D00146084806F048FD00232360656056
:103E580038BD142206F07AFEF9E700BFEC05002011
:103E68006CB700002C5F5CA91C16002008B560B375
:103E78004368B3F5683F0ED0B3F5680F18D0144AFD
:103E8800934220D000684FF0FF324FF0FF3303F029
:103E98000BF858B115E001220368D3E8EF1F002999
:103EA80003D1C3E8E02F0028F7D10AD1002008BDCC
:103EB8000368084A1B7803F5807352F82330002BF7
:103EC800F4D00548F3E70548F1E76FF4E040EEE782
:103ED8002C5F5CA900000350E98FFFFFEA8FFFFF0A
:103EE80008B520B34368B3F5683F09D0B3F5680F48
:103EF80013D0114A93421DD0006803F04DF814E026
:103F080000220368D3E8EF1F012903D1C3E8E02F9B
:103F18000028F7D109D0094808BD00210368084ADC
:103F28001B7803F5807342F823100020F4E76FF440
:103F3800E040F1E70348EFE72C5F5CA9E98FFFFF5A
:103F480000000350EA8FFFFF10B5044618B91D4B57
:103F58001D485B6898476368B3F5683F2FD0B3F591
:103F6800680F2CD0194A934219D1236803BB4FF02C
:103F7800FF324FF0FF332146154802F067FF08B9BA
:103F880023681BB90F4B13485B689847142200211C
:103F9800206806F0DBFD4FF46863636008E0B3F562
:103FA800683F0DD83A2B03D040F6BA629342DED16F
:103FB800206806F0DDFC636843F03A03636010BDD7
:103FC800054AF3E7EC0500206CB700002C5F5CA9FC
:103FD8001C16002092B700003A00003A08B50649BE
:103FE80040231422054806F06AFCBDE8084004494D
:103FF800044803F0F5BE00BF1C1100201C16002069
:1040080014B3000028B3000008B50348034A002190
:10401800121A05F071FA08BDA8060020DC19002064
:10402800074808B5074A0849121A05F067FABDE8B3
:1040380008400648064A0749121A05F05FBA00BF49
:1040480000000020A806002090BC0000000000200E
:104058000000002090BC000038B505460C4699B118
:10406800D1E901230F48096805F060F9D4E9042370
:10407800E1680D4805F05AF9E1690C4805F056F970
:10408800A1690B4805F052F9012D05D1EFF305811F
:104098000848103905F04AF921462846BDE8384055
:1040A80002F090BDBFB70000EFB700001FB80000D6
:1040B8002FB800005EB8000030BFFFF7FDBF00BF9B
:1040C8002DE9F04105460B4EDFF82C80324606EB11
:1040D8000807CC1B2046094906F02BFDA0194246CB
:1040E8000021083C06F032FDC5F8A44007F108009D
:1040F800BDE8F081000000000400000054B000009A
:10410800054B5A699B689A421FBF044A536843F09B
:1041180080535360704700BFAC17002000ED00E0EB
:1041280010B5204C204805F001F9A36A990137D54C
:104138001E4805F0FBF81E20A36ADA0103D51C48C7
:1041480005F0F4F81F20174CA36ADB0203D51948C1
:1041580005F0ECF80220A36A1C0303D5164805F005
:10416800E5F821200F4CA36A590303D5134805F03D
:10417800DDF82220A36A9A0303D5114805F0D6F882
:104188002320084CA36ADB0303D50E4805F0CEF8BC
:104198002420A36A6FEA03436FEA1343A36210BDA6
:1041A8001D20C9E700ED00E072B800008BB80000E0
:1041B8009FB80000BAB80000E5B8000004B90000D4
:1041C8002AB9000045B9000070B5244C06462448B9
:1041D8000D4605F0ABF8A36AD90435D5214805F09A
:1041E800A5F81720A36A1A0503D51F4805F09EF8FD
:1041F80018201A4CA36A9B050FD51C4805F096F8A1
:10420800A16BA36A180407D5194805F08FF81EB1E9
:10421800A36A23F40043A3621920104CA36A59052A
:1042280003D5144805F082F81A20A36ADA050DD5DB
:10423800114805F07BF81B20084A936A43F47F4332
:10424800936200232B7070BD1620CBE7A36A9B04F2
:10425800F2D50A4805F06AF81C20EDE700ED00E009
:1042680071B9000088B900009AB90000AEB9000021
:10427800C8B90000DEB90000FAB9000013BA00009E
:1042880070B5264C064626480D4605F04FF8A36A39
:10429800D80640D5234805F049F81120A36A190724
:1042A80003D5214805F042F812201C4CA36A9A074E
:1042B8000FD51E4805F03AF8616BA36A1B0607D5AF
:1042C8001B4805F033F81EB1A36A23F08003A362EC
:1042D8001320124CA36ADE0703D5164805F026F80A
:1042E8001420A36A9C0603D5134805F01FF815206F
:1042F8000A4B9A6AD10658BF9A6A9A6A920642BFCE
:104308005A6A22F400525A629A6A42F0FF029A628A
:1043180000232B7070BD1020C0E700BF00ED00E047
:1043280043BA00005ABA00009AB900008EBA0000D9
:10433800A7BA0000BEBA000013BA00002DE9F04188
:104348005B4B04465F6800258AB0C7F3080685F30F
:104358001188BFF36F8F02F07F43B3F17F4F06D10F
:1043680002F00C03082B13D1524804F0DFFF00259C
:104378002C464FF00008F31E8DF80780092B00F239
:104388008580DFE803F00A797D75838383838381E1
:1043980010074CBF0C460125EBE74748444E04F094
:1043A800C5FF8DF80780F36A9A0704D5434804F0DF
:1043B800BDFF00232FE0F36A002B01DA4048F6E73F
:1043C800F36A5B00F5D53F4804F0B0FF7369A26952
:1043D80043F480737361BFF34F8FBFF36F8F7369BB
:1043E80032F8022C23F480737361BFF34F8FBFF34D
:1043F8006F8F4DF602739A4208D0B36ADBB24BB3A3
:1044080001200DF10701FFF73BFF33E021682E483B
:1044180004F08CFF23689DF80720C2B902AE04F1AE
:104428002007324620686168083403C2BC42164639
:10443800F7D1099AB5B3C2F3080121B96FEA52223C
:104448006FEA42220992184602A9FFF705FE0AB050
:10445800BDE8F081B36A13F47F4F05D001200DF158
:104468000701FFF7B1FE05E0B36AB3F5803FA0D3BB
:10447800FFF756FE0346CEE700200DF10701C2E71D
:1044880000200DF10701ECE7104890E7104B17F4F6
:10449800F87F1049104818BF1946A6F1100204F019
:1044A80045FF86E722F4FF7222F00102CAE700BF47
:1044B80000ED00E00CBB000038BB000050BB000062
:1044C80072BB000081BB0000A1BB0000BEBB0000A6
:1044D800F3BA0000DEBA0000E3BB0000064B5A69DD
:1044E80042F010025A615A6942F480625A615A696C
:1044F80022F008025A61704700ED00E0EFF30880EF
:10450800EFF3098101B57246FFF718FF01BD00BF3F
:10451800002080F31488BFF36F8F002080F30A888F
:1045280080F30B88104880F3088800200F49087032
:1045380001F004FD00200E490860BFF34F8F00F022
:104548002DF8202080F311880A484FF400614018A4
:1045580080F30988EFF314800221084380F314885C
:10456800BFF36F8F00F0F0F820430020DA19002025
:1045780094ED00E0E0190020002318460649D1F820
:104588009020C2F30722934200DB7047C1F89830AD
:10459800C1F8A0000133F6E700ED00E010B572B6EF
:1045A800002484F31388FFF7E7FF23464FF0FF301A
:1045B8000C4A03F120010133102B42F82100F8D1F5
:1045C80000234FF0FF30074A03F160010133102B3D
:1045D80042F82100F8D162B6BFF34F8FBFF36F8F57
:1045E80010BD00BF00E100E0084B9B6883420BD17F
:1045F800EFF3058343B1064B5A6842F080525A6084
:104608005A6A22F400425A6203F0AEB8AC1700208E
:1046180000ED00E016498A684FF030001044EFF3CF
:10462800098C80E8F01F202080F31288BFF36F8F79
:10463800104F4FF000664A698A603E60D2F8A400C5
:104648000D4C2060D2F8A8000023C2F8A83080F3EF
:10465800118802F1300090E8F01F8CF3098802F10C
:10466800000004B504F05BFFBDE80440704700009B
:10467800AC17002004ED00E0381600201EF0040FEF
:104688000CBFEFF30880EFF30980816911F8021C71
:104698000229FFD001B5724604F032FF01BD00BF08
:1046A80040B2002807DB01234109034A00F01F003C
:1046B800834042F82130704700E100E040B2002812
:1046C8000CDB01220649430900F01F008240203319
:1046D80041F82320BFF34F8FBFF36F8F704700BFA0
:1046E80000E100E0054B420953F82220012300F0C5
:1046F8001F0003FA00F01040704700BF00E100E01F
:1047080040B2002801F10101ACBF00F16040064B46
:104718004FEA4111C9B2ABBF00F5614000F00F008C
:1047280080F800131954704714ED00E0044B054A53
:1047380023F07F039360BFF34F8FBFF36F8F7047F2
:104748000000000000ED00E008B5FFF7EFFF074AA2
:10475800D2F8883023F47003C2F88830FFF754FC8D
:10476800FFF75EFC00F048F802F0F6FA00ED00E012
:1047780042F8203C009B0B4942F81C3C019B21F06D
:10478800010142F8183C029B42F8081C42F8143C0C
:104798004FF0807342F8043C0023203A0265C0F8C9
:1047A800A83070479D3B000000B50E4B1546986039
:1047B800D0F8A4200C4B0E461A60D0F8943083F33E
:1047C8000B882C4686F309880020044B984720461E
:1047D800002100220023024C2047000037950000EA
:1047E8009D3B0000AC170020381600201022014B1A
:1047F8001A61704700ED00E0002320210348C21829
:104808000133452B82F80013F9D1704700E100E02D
:1048180008B5EFF30583064A103B02EBC30152F8D3
:10482800330049688847BDE80840FFF769BC00BF06
:1048380094AD00001FB5094C094A234601210948D7
:1048480000F0FAF800230393074B0121E41A01A8AA
:104858000193029400F0FAF804B010BD000007209C
:104868000000002038B30000A806002010B50C7A1C
:104878000B6804F01F0223F01F031A43CB68640976
:1048880023F01F03054943EA440343F00103C1F839
:104898009800C1F89C20C1F8A03010BD00ED00E0E0
:1048A80010B5074BD3F89030C3F30723013B984268
:1048B80002D8FFF7DBFF10BD6FF01500FBE700BF64
:1048C80000ED00E02DE9F04F0F46144606464FF084
:1048D80000084D4D85B0B84580F29280D6F8049016
:1048E800B9F1000F36D0B9F11F0F40F2878019F0E7
:1048F8001F0F40F08380D6F800A01AF01F0F7DD15B
:10490800504604F050FE834609EB0A00013804F0D3
:104918004AFE834572D11BF1160F6FD05C456DDDE1
:10492800C5F898B0D5F89C10C5F898B0D5F8A0305F
:1049380021F01F0143F01F0AD6E900321A449942B8
:1049480002F1FF391ED1CA4508D131465FFA8BF012
:1049580004F032FE08F101080C36BCE73146C5F810
:1049680098B0D5F89C3022F01F0203F01F031343C0
:10497800C5F89C30E0B204F01FFE10F1160F3DD0D0
:10498800441CE7E7C5F898B0D5F8A020013B23F010
:104998001F0302F01F021343CA453146E0B2C5F8AF
:1049A800A030E8D004F008FE10F1160F26D0C5F8A4
:1049B80098B0D5F89C209DF808300AF1FF3A62F3C8
:1049C80004038DF80830D5F8A0309DF808205B085E
:1049D80063F347128DF80820D6E900321344009398
:1049E80023F01F035344A3EB0903013023F01F03F3
:1049F8006946C0B20393FFF753FFBEE76FF0150493
:104A0800204605B0BDE8F08F00ED00E00522044B1C
:104A1800C3F89420BFF34F8FBFF36F8F704700BF69
:104A280000ED00E0BFF35F8F0022024BC3F8942033
:104A3800704700BF00ED00E010B5034C2278FFF787
:104A480041FF207010BD00BFB51900202DE9F74FB8
:104A5800294D8A4606464FF00008AB46274FD045F9
:104A68001BDAD6F80490B9F1000F3FD03168084638
:104A7800019104F098FD0199044609EB0100013801
:104A880004F091FD84424FF014021D4B08D002FB44
:104A980008F36FF015024BF8032003B0BDE8F08F60
:104AA80014F1160F2C60F8D01978A142F5DD02FB3D
:104AB80008B0C7F89840C7F89840D7F89C4000F16C
:104AC8000801007B64F304000871D7F8A0000C7992
:104AD800400860F347140C71D7F89C1021F01F01AF
:104AE8006960D7F8A01021F01F01296108F10108B9
:104AF80014350C36B3E700BF3C16002000ED00E08B
:104B0800B5190020F0B54149414CD1F890302568DD
:104B1800C3F307239D4287B075D80020FFF782FFB3
:104B28003C4BC1F8C030854216D13B4C01A82570DA
:104B3800FFF758F900250646384FAE4213D100203A
:104B480023783249D1F89020C2F30722934254DBEC
:104B5800FFF75CFF00202FE0616801EB0011FFF711
:104B680085FE0130DFE70199280101EB0513DA68BA
:104B78003A40B2F5001F21D0B2F5800F2BD0B2F524
:104B8800801F38D15A689B680958013B22F01F00E2
:104B980003440120844623F01F0340EA4C10CDE96A
:104BA80002218DF8100002A920780593FFF778FEFE
:104BB80000281DDA6FF0150007B0F0BD5A689B6831
:104BC8000958013B22F01F0003444FF0020C01205A
:104BD80023F01F03E1E75A689B680958013B22F05C
:104BE8001F0003444FF0000C062023F01F03D4E7F6
:104BF80023780133237001359FE7C1F89830C1F855
:104C0800A00001339EE74FF0FF30D5E700ED00E04C
:104C180044B30000AAFF4400B51900200000F0FFCB
:104C280008B5024B1B689847002008BD50160020A5
:104C3800034B044A1860937843F00203937070475B
:104C4800501600201404002008B50649064821F033
:104C58000701C1F1005202F5E02204F00DFB00202B
:104C680008BD00BF2743002054160020054B03EB66
:104C78008000D0F8003223F0E04343F04053C0F8FE
:104C88000032704700258450052370B5144D154E29
:104C98002C780134B4FBF3F303EB8303E41A05F037
:104CA80094F8114A137823B156F82430C01A07280B
:104CB80014D94FF05023D3F8141141B10021C3F88F
:104CC8001411D3F814312C700CB9012313702C78FB
:104CD80005F07BF846F82400012070BD0020FCE7B1
:104CE800B719002060160020B6190020012208B567
:104CF8000B4B0C49C3F8002502230020C1F8D0361D
:104D0800FFF7B4FF1046FFF7B1FFC1F80427C1F859
:104D18000429C1F8002BBDE8084000F099B800BF8D
:104D2800001000500040005007B54FF480620B4B54
:104D38000B49C3F8B8254FF400620A48C3F83C256C
:104D48000DF1070205F088F8002803DB9DF807003D
:104D580001F0EAF903B05DF804FB00BF00A00250BF
:104D68002CA0025028A1025048B1054B054A1B68E7
:104D7800B3FBF2F35843044B43F001031847704761
:104D8800D405002040420F0080B20000002170B519
:104D9800104C114D114E000714F8013B03F01F028F
:104DA8005B090FD0012B0FD1334603EB8203D3F8F5
:104DB8000022013122F0E04202430429C3F8002214
:104DC800EAD170BD2B46F0E70023803253F8223039
:104DD800FFDE00BF0ABC0000002584500028845074
:104DE8002DE9F041064601200D46FFF7CFFF4FF4AD
:104DF8007F03D3F83021D3F83431072A20D1023B7E
:104E0800032B02D8114AD35CD3B14FF050244FF092
:104E1800010800270520C4F81886C4F8147604F0A1
:104E2800E6FF4046C4F8148604F0E1FFC4F814769F
:104E3800C4F8187630462B46BDE8F04100211847E3
:104E48004FF050230022C3F81426F3E706BC0000F5
:104E58000149024804F0C6BA6CB300007416002079
:104E680008B54FF0FF323F230348C0E9002301F0A3
:104E780047F9002008BD00BF90160020084B70B508
:104E8800C31A0D4607499B10044659434022064859
:104E980004F0CAFB2B4601462046BDE8704018477F
:104EA800AC160020B76DDBB6D4AC0000402373B558
:104EB8000B4C0093041B0B460D460A49A410614392
:104EC8000646094A094804F0DBFB011E05DA3046AC
:104ED8002B4602B0BDE87040184702B070BD00BF55
:104EE800AC160020B76DDBB6F3960000D4AC00001A
:104EF8002DE9F0470022012107460520FFF700FCB5
:104F0800124801F031F90446D0B901F061F925469B
:104F18004FF01C0A4FF00C08DFF834903E69494600
:104F28000AFB056004F05EFA031E0CDB012308FB94
:104F380005661D44042DB367F0D12046BDE8F0870F
:104F48006FF00404F9E71C46F7E700BF895000003A
:104F580078B300001FB500220123CDE902236B4678
:104F6800084ACDF800D0CDF804D004F0B7FB0028EB
:104F780005DB4FF480420023684602F091F805B043
:104F88005DF804FB1D97000010B5EFF31184202392
:104F980083F31288BFF36F8F074A136823F0020167
:104FA800DB07116002D4012004F079FF84F3118833
:104FB800BFF36F8F10BD00BF4C1700200C22104BA1
:104FC800014602FB0033002030B4D3E91C521867B5
:104FD800EFF31180202484F31288BFF36F8F9C6F46
:104FE80004F0C00444F002049C6780F31188BFF306
:104FF8006F8F1DB12B4630BC0248184730BC704734
:10500800AC160020D4AC000010B4EFF311822023BA
:1050180083F31288BFF36F8F1748016841F00204C9
:105028000460C80707D482F31188BFF36F8F01208B
:1050380010BC04F025BF4FF05021D1F80C04D1F872
:105048000C14C907EFD5EFF3118083F31288BFF36F
:105058006F8F0A498B6F03F0C00343F002038B671D
:1050680080F31188BFF36F8F82F31188BFF36F8FBE
:10507800002010BCFFF7A2BF4C170020AC16002080
:10508800092813D8DFE800F00510121212121212C4
:105098000E0C074B986F10F0070007D1FFF78EBF73
:1050A8000220FBE70320F9E70120F7E7704700BF7C
:1050B800AC1600202DE9F041012207463649D1E817
:1050C800EF3FC1E8E02F0028F9D133B9334934481C
:1050D8004B60CB608A6004F098F97B1E012B2BD8BB
:1050E800012F07D14FF05023D3F81C3403F00303EA
:1050F800022B21D005F043FC0546F8B9294B1B7853
:10510800E3B14FF0502302220646C3F808234FF0BC
:105118005024DFF89480D4F81824D4F81834D20333
:1051280015D503F00303022B01D0012F0FD16DB366
:1051380086F31188BFF36F8FBDE8F081EFF3118616
:10514800202383F31288BFF36F8F0125DFE7C5B1F2
:10515800304604F00CFAD4F81835DBB2012BDAD15A
:10516800D4F80421002AD6D00022C4F80421D4F8A7
:1051780004210222C4F818252022C8F88021A3603F
:10518800C9E70021212005F06AFCE4E74FF050232D
:105198000222C3F80423CFE7A8160020981600209F
:1051A800C8160020DA19002000E100E008B5074819
:1051B80005F055FB38B10648FFF73AFD0448FEF7FD
:1051C800CBFC002008BD6FF01200FBE734AD0000F7
:1051D800DD5100000A2838B50446074D04D1AB68F4
:1051E8000D2128465B689847AB6803485B68E1B2C5
:1051F8009847204638BD00BF34AD0000F0B545687B
:105208001646A8682A7C01F01F0487B044EA4214B5
:10521800002868D0B6F5001F04D1214605F087F9AB
:10522800002051E00020B6F5800F01AA01905060DF
:1052380037D1B3F1007F14BF052304238DF8043060
:105248000023CDE904230393EB680DF1030723FA48
:1052580001F111F0010139D1B6F1A07F36D104F086
:105268001F03620903F1800326D0012A3ED1214A97
:1052780052F82330DB0729D43A462146A86805F0BE
:10528800E9F816301AD002972146A86803AA04F054
:10529800ADFF002818DB01222146A86805F0F5F8C3
:1052A800BEE7B3F1C06F05D0B3F1007F14BF01238F
:1052B8000223C3E70323C1E70F4AD9E73946A868A1
:1052C80001F0ACF90028DEDA07B0F0BD3A46214615
:1052D800A86805F0BFF80028D6D19DF80310A86883
:1052E80001F092F9D0E76FF08500EDE751F823302F
:1052F800FFDE00BF00288450002584504209034681
:1053080070B502D0012A17D070BD0D4E32695168B0
:105318000029F9D0012503F01F030C689D400029DE
:10532800F2D08A682A4002D030464B6898472CB1A0
:10533800236821461C46F2E7024EE7E72346F8E7D2
:1053480014AD0000F4AC000038B54568A86890B109
:1053580005F093F8014670B9A86801F023F90446EE
:1053680058B902460649A86805F071F82246052191
:105378000D20FFF7C5F9002038BD6FF00400FBE7EA
:10538800055300002DE9F04340F206364768D00681
:1053980048BF4FF0030C3B7C02EA060658BFC2F335
:1053A800401C87B001F01F05B6F5837F144645EA17
:1053B80043158DF803C044D00DD8062E16D005D855
:1053C800A6B1022E3FD06FF0150037E0B6F5807F0A
:1053D800F9D101260AE040F20222964235D0B6F50C
:1053E800407F34D0B6F5007FEDD102260123220399
:1053F80003FA01F12DD57B689960B86880BB05F088
:105408001F036D092AD0012D73D13C4A02EB830298
:1054180084F48033D2F80012C3F30043C4F3404449
:1054280044EA430421F4706144EA8C0421F00F013A
:1054380044EA06230B43C2F80032002007B0BDE857
:10544800F0830726D2E70426D0E70526CEE7032611
:10545800CCE7630344BF7B68D960CEE7284AD5E729
:1054680029460DF1020204F0F5FF14F4403F80468E
:105478000CD12946B86805F006F8B8F1000FDCD160
:105488009DF80210B86801F0BFF8D6E74FF00009A0
:1054980001ABCDE90199CDE90439CDF80C90294645
:1054A800B86803AA04F0A2FE4845C6DB14F400332A
:1054B80014D09DF8033084F48034C4F300448DF88C
:1054C8000E308DF80C608DF80D404B462946B868B3
:1054D80003AA04F043FF0028CFDAAEE7CDE904338E
:1054E8000DF1030303932946B86803AA04F07EFE6E
:1054F800F1E7803350F82330FFDE00BF00288450E6
:1055080000258450036803F01F025B09026004D081
:10551800012B034818BF002070470248704700BF9E
:1055280000288450002584502DE9F04F1546834605
:1055380040F2FF18DFF87891DFF878A185B000EB2A
:105548008101594503D1002005B0BDE8F08FDBF893
:105558000030C3F3C322082AC3F3080400F2A18071
:10556800444519F802704FEA136311D0192B1DD95D
:105578004E2B40F09980C5F81445012603A80394E2
:10558800FFF7C0FF039B06FA03F3836032464DE042
:10559800192B09D94E2B40F087804FF0FF33C5F8FF
:1055A80014350BF1040BCCE74FF0FF34192B7BD8E3
:1055B800DFE803F00D1218301B21307A7A7A7A333B
:1055C800607A7A7A7A7A7A7A7A7A636E7174C5F8B6
:1055D8000C45601CD1D1E4E7C5F81445661CE0D041
:1055E8000026D3E7C5F80845F3E7621CC5F8084567
:1055F800D7D0002604E0631CC5F80C45D1D001269D
:1056080003A80394FFF77EFF0122039B02FA03F32A
:10561800C3600BE0C5F81045E0E7C5F80845002F62
:10562800DCD1601CBDD0002606273246DBF80030EE
:10563800039403F40040002818BF002203A818BFF1
:10564800012601930092FFF75DFF039C019B00EB8D
:105658008400D0F80042C3F3412C009A3B0243EA8D
:105668008C03134304EA0A04234343EA4603C0F8BD
:10567800003296E7C5F80C45D1E7C5F86045621CCD
:10568800DBF800308DD0C3F30043002BB7D074E7AC
:10569800C5F86445F3E7C5F86845F0E7C5F86C4513
:1056A800EDE76FF015004FE76FF085004CE700BF9E
:1056B80031BC0000F0F0FCFF2DE9F04104460D4636
:1056C800476805F05CF94FF0200888B9264B1B782D
:1056D80073B16426606804F0A0F8F0B9012004F002
:1056E80086FB013EF6D10021212005F0B8F9F0E74C
:1056F800EFF31186314688F31288BFF36F8F606825
:1057080004F08BF8A8B986F31188BFF36F8FEFE721
:1057180086F31188BFF36F8FE5E7EFF31186314603
:1057280088F31288BFF36F8F606804F076F800285A
:10573800EED0FB6900201D706368FA691B68C3F826
:1057480044250122C3F84825C3F82001D3F8204195
:10575800C3F85801D3F858019A6081F31188BFF350
:105768006F8FBDE8F08100BFDA1900202DE9F04FF6
:105778009A4643688DB000938B880746046998045D
:10578800894693462CD44FF0FF324FF0FF3304F193
:10579800380001F085FCC4F82C90D7F810807D689B
:1057A80098F88530D5F800C023B1D8F82830994545
:1057B80000F0AA80B9F804E01EF4006F17D06FF06B
:1057C8008505A36A13B19B889B0405D40023E36273
:1057D80004F1380001F030FC28460DB0BDE8F08F28
:1057E800236C002BCFD1E36A9942CCD1D5E71EF0C8
:1057F800090F02D06FF01505E3E7CEF34513082B28
:10580800F8D1D9F800300193019A9E4B9A42F1D908
:105818009D4B9C4507D94FF05022D2F8582512F0DD
:10582800030F18BF9C4602AE04350FCD0FC60FCD2F
:105838000FC6019B95E80300634528BF63469C4655
:10584800924B86E803009C451BD28F4B9C4518D28F
:105858008F4B9C4515D28F4B9C4500F2CF808E4BC9
:105868009C4500F2CD808D4B9C4500F2CB808C4B43
:105878009C4500F2C9808B498B4B8C4A8C4588BF6C
:1058880013461EF0020F07930EF0040300F0BE80CB
:10589800002B14BF032302238DF82030CEF300130E
:1058A8008DF82130D8F80030D3F80835591C14D0B9
:1058B8001EF0020F03F01F004FF001024FEA5313CE
:1058C800CEF3400140F0A880002B00F0A380934263
:1058D80040F0D380764B8240DA6098F885302BB15F
:1058E800404601F037F9002388F885303B464046AA
:1058F800704A02A904F0A6FE051EFFF662AF012356
:10590800C8F8289088F88530012384F88430009BF3
:10591800D96B4A1C02D0986B04F023FABBF1000F34
:1059280040F08380C4F85CB00023236604F1700261
:1059380004F1600104F15C0004F036F8E066BAF1A5
:10594800000F7BD1C4F864A00023A36604F1780299
:1059580004F1680104F1640004F026F8002504F15C
:1059680028062A4601216067A565304604F064F8D8
:10597800384604F012F92A462B46206E834265D138
:1059880000231946A56EA94267D19A4238BF1A4624
:105998004FF4FA534FF0000803FB02F5A36A4FF4E3
:1059A800004C1B684146B5FBF3F540F2E730C835BB
:1059B8004FF47A720023E5FB0C01FBF789FB04F135
:1059C800480602460B46304601F06AFB024618B903
:1059D800A56D15F1740F47D12046C4F8808001F0F9
:1059E800B9F86FF07301384684F8858004F0C3F87D
:1059F800304601F07BFB6FF07305E2E62E4B40E783
:105A08002E4B3EE72E4B3CE72E4B3AE7003B18BFA8
:105A1800012341E72C4B5EE72BB1012B2FD1244BFF
:105A280082409A6059E7284BFAE7DBF80030E365D3
:105A3800002B3FF479AFDBF8043076E7DAF8003072
:105A48006366002B80D0DAF804307EE7E16D01EB65
:105A5800C301496801330A4490E7606E00EBC10056
:105A68004068013103448EE7002D3FF4AAAE38693F
:105A78001146283003F0E0FFA3E6C960FFDE0023EB
:105A88009B60FBE747E801000024F4000048E801B8
:105A980000127A00FF083D007F841E003F420F007D
:105AA8001FA107008FD0030048E8010090D0030031
:105AB80000288450639C000000093D0080841E007B
:105AC80040420F0020A107000025845000F01F026B
:105AD80040090DD001280DD1094B03EB8203D3F8FF
