:1000000098230020F52000002B730000E120000061
:10001000E1200000E1200000E1200000E1200000DC
:10002000000000000000000000000000612200004D
:10003000E120000000000000F9210000E1200000A4
:10004000F5230000F5230000F5230000F523000050
:10005000F5230000F5230000F5230000F523000040
:10006000F5230000F5230000F5230000F523000030
:10007000F5230000F5230000F5230000F523000020
:10008000F5230000F5230000F5230000F523000010
:10009000F5230000F5230000F5230000F523000000
:1000A000F5230000F5230000F5230000F5230000F0
:1000B000F5230000F5230000F5230000F5230000E0
:1000C000F5230000F5230000F5230000F5230000D0
:1000D000F5230000F5230000F5230000F5230000C0
:1000E000F5230000F5230000F5230000F5230000B0
:1000F000F5230000F5230000F5230000F5230000A0
:10010000F5230000F5230000F5230000F52300008F
:10011000F5230000F5230000F5230000F52300007F
:10012000F5230000F5230000F5230000F52300006F
:10013000F5230000F5230000F5230000F52300005F
:10014000F5230000F5230000F5230000F52300004F
:10015000F523000053B94AB9002908BF00281CBF85
:100160004FF0FF314FF0FF3000F00CB8ADF1080C4C
:100170006DE904CE00F010F8DDF804E0DDE90223BB
:1001800004B07047704700BF034613F8012B002AE4
:10019000FBD1181A013870472DE9F04786468C4686
:1001A0000846089E154674461946002B40F0C1804B
:1001B0008542B2FA82F245D94AB1C2F1200300FA6F
:1001C00002FC954094402EFA03F343EA0C0C4FEAEC
:1001D000154EA8B2230CBCFBFEF80EFB18CC08FB96
:1001E00000F943EA0C43994528D9EB1808F1FF3789
:1001F00004D2994502D9A8F102072B44A3EB0903C5
:10020000A4B2B3FBFEFC0EFB1C330CFB00F044EA73
:100210000344A04214D92C190CF1FF3304D2A0429C
:1002200002D9ACF102032C44241A43EA07401EB160
:10023000D440002334607360BDE8F0874746DDE7B3
:100240006346F1E792BB431B01214FEA154EAFB263
:10025000200CB3FBFEFC0EFB1C330CFB07F840EA42
:100260000343984561D9EB180CF1FF3004D298454F
:1002700002D9ACF102002B44A3EB0803A4B2B3FBF8
:10028000FEFC0EFB1C330CFB07F744EA0344A742B9
:100290004DD92C190CF1FF3304D2A74202D9ACF18D
:1002A00002032C44E41B43EA0040C0E7C2F12003F0
:1002B0009540944020FA03F12EFA03F34FEA154ECD
:1002C0009040AFB20343B1FBFEFC0EFB1C10190CB7
:1002D0000CFB07F841EA0041884522D969180CF166
:1002E000FF3004D2884502D9ACF102002944A1EBC9
:1002F00008019BB2B1FBFEFC0EFB1C110CFB07F7C7
:1003000043EA01439F420ED9EB180CF1FF3104D2AE
:100310009F4202D9ACF102012B44DB1B41EA0041B0
:1003200093E76046E3E76146F7E76046A4E7634684
:10033000B8E7834206D916B9002108467CE7C6E92A
:1003400000E0F9E7B3FA83F78FB9834201D372452E
:1003500008D8BEEB020460EB030301209C461EB9E3
:10036000002169E73846FAE7C6E9004CF8E7C7F12B
:10037000200CBB400EFA07F522FA0CF42EFA0CF111
:10038000BA401C4320FA0CF3B8404FEA1449014329
:100390001FFA84FEB3FBF9F809FB18300B0C08FBBD
:1003A0000EFA43EA00439A4540D9E31808F1FF30BA
:1003B00004D29A4502D9A8F102002344A3EB0A0310
:1003C00089B2B3FBF9F809FB183308FB0EFE41EACA
:1003D00003418E452CD9611808F1FF3304D28E45B4
:1003E00002D9A8F10203214443EA0040A1EB0E0127
:1003F000A0FB02984145CE46434602D306D14D4567
:1004000004D20138B9EB020E68EB0403002EA7D02A
:10041000B5EB0E0261EB030101FA0CFC22FA07F3C3
:10042000F9404CEA0303C6E9003199E74046C5E7C5
:100430004346D9E710B50E4806F0BCFA0D4807F060
:10044000F7FF80B10C4807F0F3FF60B10B4806F0EE
:10045000B1FA0B4C204606F0ADFA00214FF4803083
:1004600008F018F9F6E7074806F0A4FA002010BDD6
:10047000B8900000E089000080890000CC90000066
:10048000F9900000E59000002DE9F04F91B0009345
:1004900002F004030293C2F3C2030133840705464A
:1004A0000E46DDF868800392059340F0BB81041D81
:1004B00030B1072909D86FF01B0011B0BDE8F08FEB
:1004C00001F007063444C6F10806009B4FF000090E
:1004D0004FF0040A591E4FF0FF334F460193CB46AD
:1004E0005346CDF810900DB1009A2260059800286F
:1004F00000F3E8809848009A824203D397488242EA
:10050000C0F0E080039AA4EB050E92074FEA9E002C
:1005100000F103810F2F00F2B180002D00F0058162
:1005200007F140020DEB020C019A0CF8200C0CF8BC
:10053000102C049801300490E7E07A285DD84B280D
:100540000ED8472859D829282DD8252852D054D834
:1005500020287AD02338D0F1000B4BEB000B74E04D
:100560004C382E2849D8DFE800F070484848484801
:100570004848484848484B484848484848484859E7
:10058000484B4B595959704B6D487048184B184897
:1005900048827F4B48484B487F0000204FF0000BBB
:1005A0004FF0040A38E001222A38C0B202FA00F003
:1005B00010EA0E0F49D110F0625C2FD110EA020B45
:1005C00043D06046013C5444B4FBFAF40AFB04F403
:1005D000002D61D0A3EB050CA444B4453FF66BAFEE
:1005E000002868D1042B47D158F8043B236004232A
:1005F00004342AE0019A013A01924FF0000B24E002
:1006000011F8010C6C2834D1002011F8023C83460B
:100610006C2BC5D14FF0080A5346D3E708F1070801
:1006200028F00708073424F00704F8E802AB35B1D6
:1006300006982044B0423FF63EAFC4E900AB4FF00D
:10064000000B08344FF0080A534611F8010F002838
:1006500078D0BBF1000F7FF470AF2528F5D14FF0B3
:10066000010B019B013301934FF0040AECE758465C
:1006700094E700208346A5E7082B02D06FF0150011
:100680001BE708F1070828F00708F8E80223C4E987
:10069000002308230834D8E768B9042B02D108F1F5
:1006A0000408A4E7082BE9D108F1070828F0070897
:1006B00008F10808EDE7059A013A059258F8042B6D
:1006C000009210E7039A900720D54FF0010CA4EB9D
:1006D000050E4FEA9E00BEF5007FCFD20F2FCDD87A
:1006E000F5B107F140020DEB020E019AC0B20EF80F
:1006F000200C0EF8102CBCF1000F3FF41AAF60F084
:100700007F000EF8200C09F101090137C5F108023C
:100710004FF6DA7E0434069297E74FF0000CDAE7E2
:10072000BCF1000F01D00136EFE702980236002835
:10073000EBD10098CDE90631FFF726FDDDE9063162
:100740000644E2E7631BB3F5806F97D245B9A6F183
:100750000804E018B1E600BFF0880000C49B000068
:10076000029A9B0828602B709DF81030C2B1EB7084
:1007700085F80290B9F1000F05D0002208A8C5F154
:10078000010C97420ED14FF0000AC5F101030DF1A3
:10079000200801930DF1300B574512D1601B8CE6F8
:1007A0006B70E5E710F8013B190608D50CEB040E59
:1007B000B64503F07F033FF67EAE04F8013B0132FD
:1007C000DFE7B9F1000F03D098F90020002A17DB0A
:1007D000029BD3B11AF80B2004F8012B0022019BD5
:1007E00018191044B0423FF666AE98F80000009920
:1007F00004F8010B2046039207F0E0FF039A14442B
:100800000AF1010A08F10108C6E798F8002055F836
:1008100022300093029B009845F82230FFF7B4FC89
:10082000421CDCE76FF00D0047E600BF2DE9F04FFA
:1008300097B000AFD7F880B03B62CBF3C00304465B
:10084000894690F802A0FA62BB6141B94578007808
:100850000AEB800020444D4517D8A0EB0409E3784B
:10086000FB61BAF1000F02D01BF0010F16D1FB693A
:1008700053BBFB6A1BB1494620463A6A98474D462E
:1008800028465C37BD46BDE8F08F461C3046FFF772
:100890007BFC0130304409F10109DCE76268237810
:1008A0007A62FA6A9900796104EB8301002A40F0C8
:1008B00001810E464FF000084D4601EB0A094E45F6
:1008C0004CD101EB0A0610E01BF0020FD1D02378C7
:1008D0009A007A61626804EB83017A62FA6A002AFC
:1008E00077D14D46904601EB0A061BF0050F0CBF71
:1008F00002230123FB62FB6906EB430A0BF00203B0
:10090000BB625645BCD016F8021B16F8013C54F8E1
:100910002390994B994502D3984B994536D3BB699F
:10092000002B40D0786A06F01EF800283BD0E9463C
:100930008AB06A46924B53617B6AC2E906314FF432
:10094000007313848F4B42F8103F00234FF4125171
:100950008D4800F017FD023DCD46D2E716F8013B69
:10096000F96254F82300FFF70FFCD7F88430F96AD6
:1009700001304BB1D7F8883098453EBFD7F8843066
:1009800023F8180008F10108054498E7BB6923B172
:10099000786A05F0E8FF0028C9D11BF0010F05D1E6
:1009A000FB6AED1AADE7BB6A002BAAD04846FFF7F9
:1009B000EBFBD7F8843053B1D7F8883098453FBF68
:1009C000D7F88420431C22F8183008F101080544A8
:1009D00097E7BAF1000F73D01BF0040673D0D0462E
:1009E000002607F1480052463B61B96207F0E6FE77
:1009F000B96A3B6901EB0A02BA62FA69F969520005
:100A0000FA60BA6A02EB41023A610BF00202BA6084
:100A10003A69B96A8A4258D162781BF0020F18BF4E
:100A200000217A6208BF4FEA5801B2181BF0010F8B
:100A3000D2B240F09F801BF0040F14BF404600204C
:100A4000BB616270A070E17020463A6A7969FB6A06
:100A50009847051EFFF614AFBB69414623707B6AB9
:100A60003A6A6370FB6984F802A0E37007F14800FA
:100A7000FB6A9847B0F10008C0F2BA807B69A9EB25
:100A80000A01C91AFB683A6AC91AD7E90A039847E2
:100A90000028C0F2AF804FF0000BA84408EB00051F
:100AA00007F1380AB34571D300213A6A0846FB6A58
:100AB0009847E5E656464FF0000807F1380092E700
:100AC0005646D04696E7B04694E7BA6A12F8021B3B
:100AD00012F8015CBA6254F82500274A904202D30A
:100AE000264A90421ED3BA6932B1786A7B6005F01B
:100AF0003AFF7B6800288BD1BA6802BB08F1280254
:100B000007F1300C08F10100944407F1580208F194
:100B1000020852FA80F00CF8101C5FFA88F800F80E
:100B2000105C75E7BA693AB1786A7B6005F01BFF23
:100B30007B6800287FF46CAF1BF0010F09D006F131
:100B4000280207F13000711C161806F8205CCEB29E
:100B50005EE71BF0040F3FF45BAF08F1280207F1DA
:100B6000300008F1010102EB000808F8105C5FFAA0
:100B700081F84DE7002063E7F0880000C49B000087
:100B800002910000040000019C8C00001BF80A3058
:100B900054F8239087F83730D7F884302BB3D7F840
:100BA00088309B4521D2D7F8843033F81B8001214F
:100BB0003A6AFB6A07F13700984700281ADB0544B8
:100BC000B8F1000F06D14846FFF7DEFA00F1010840
:100BD0001FFA88F8414648463A6AFB6A9847002857
:100BE00008DB05440BF1010B5CE74FF00008DEE782
:100BF000454645E6054643E6014B1860704700BF91
:100C00000000002080B505460E461746984604F0C1
:100C10003FFE034607F062FE0446DFF818904246A6
:100C200049F8003039463046A84754F8090001F029
:100C3000CDFA00BF080000002DE9F047058B0446FF
:100C40002807904611D4022905F0070540F0CC8012
:100C5000204606F028F978B10138218B042811D8F4
:100C6000DFE800F0C2106D85950001290CBF45F04A
:100C7000100545F02005258388F31188BFF36F8F99
:100C8000BDE8F08701F0070AAA4500F0A58000271B
:100C9000B9463E46A368002B00F0BC8041F0080135
:100CA000218388F31188BFF36F8FA168002900F0BA
:100CB000BA800D68002900F0B680334652462046BF
:100CC000D1F80480C047002D76D02B6829461D46F8
:100CD000F0E701F007035A1F012A1BD8002221F078
:100CE0000701062B276889B2C4E9002209D13B46D7
:100CF00003E0628B013262831B68002BF9D141F063
:100D000002012046218306F0CEF800287AD041F077
:100D1000200176E0042B0AD121F0070189B2204698
:100D2000218306F0C0F810B141F020012183218B0E
:100D300001F0070AAA454FD00027B946AAE7236960
:100D400021F0070141F00601062DD3F80090218320
:100D50002DD1B9F1000F3FD041F00801218388F374
:100D60001188BFF36F8F20463949C84729E021F029
:100D70000701236941F0040189B2042DD3F80490DE
:100D80002183E6D000274FF0040A3E4682E721F097
:100D90000701236941F0050189B2052DD3F80890B8
:100DA0002183D6D000274FF0050A3E4672E7002780
:100DB0004FF0060A3E466DE72B4687E7B9F1000F74
:100DC000D1D1EFF31188202383F31288BFF36F8F03
:100DD000238B23F008032383258BEA062ED525F0E9
:100DE0001003238305F007056669218B002EBFF6EB
:100DF00070AF00232768C4E9003321F0070141F0F8
:100E000001012183218B4FF0000901F0070AAA4557
:100E10007FF440AF002F9CD041F00801218388F37C
:100E20001188BFF36F8F002FC8D03D683946334615
:100E30005246204606F063F82F46F4E7AB067FF5EE
:100E40001BAF25F02003238305F0070500E700BF53
:100E50002B6F00002DE9F047044607464FF00109CB
:100E6000DFF8508014B93846BDE8F08794FAA4F54D
:100E7000B5FA85F509FA05F32E0108EB05156FEAB9
:100E8000030A24EA03042B7B002BEBD058F806302E
:100E90001B694BB94644736804222846196807EA5F
:100EA0000A0706F008F9DDE7284698470028D9D157
:100EB000F0E700BFEC8C000030B5002289B00F498C
:100EC0000F4807F053FC002200230024CDE906233D
:100ED0000E230C4DCDE903344FF440722846CDE982
:100EE0000144094B0949009404F00EFA08492846C8
:100EF00004F094F9204609B030BD00BF150F000082
:100F0000C8070020100300202912000058130020F9
:100F1000B6910000014804F0EDB800BF00030020C6
:100F20002DE9F047804621480F4606F0A8F806460E
:100F3000002833D000252846BDE8F087237B83B105
:100F40002368DB680BB120469847636883F80690F6
:100F500023681B69D3B9636804222046196806F028
:100F6000AAF8013610345445E8D3B8F1000FE2D0A6
:100F7000002DDFD02846FFF76DFF0546002FF7D084
:100F800000214FF4A47007F085FBF1E72046984755
:100F90000028E0D009FA06F31D43E2E705464FF0CA
:100FA0000109034CDFF80CA0DDE700BF600A002058
:100FB000EC8C0000FC8C0000014B53F820007047C3
:100FC0005C8D000008B5034608462BB1044A136047
:100FD00000F06EFC002008BD6FF01500FBE700BFBD
:100FE0000400002010B5044C237813B9034804F022
:100FF00081F80123237010BD281300200003002076
:1010000010B50446094806F03AF83CB1084BD3E85D
:10101000EF1F0139C3E8E21F002AF8D1054807F0A5
:10102000B1FBBDE81040044804F064B8580A002041
:101030005C0A0020C80700200003002000200146B1
:10104000034BD3E8EF0FC3E8E21F002AF9D1704742
:10105000580A002070B5FFF7F1FF0546074C084E0F
:10106000B44200D370BD63685B792BB123685B68C1
:1010700013B12946204698471034F1E7EC8C000064
:10108000FC8C000010B5044C0449204605F0A4FD7A
:10109000034B1C6010BD00BF74020020488D00008F
:1010A000500A002000230D4A10B513700C4A4FF46B
:1010B000004113600B4A0C481360FFF783FFFFF7F2
:1010C000E1FF0A4B0A4918468B4200D310BD1A1A99
:1010D0005C681211013222711033F5E729130020E8
:1010E000580A00205C0A00207B700000EC8C000095
:1010F000FC8C0000014600220023014805F08DBD54
:1011000074020020014805F026BE00BF74020020D2
:10111000024B0146186805F072BE00BF500A00205D
:10112000014805F0A7BE00BF7402002070B5274B30
:101130001878002849D0FFF7E5FF0546002841D17F
:10114000234B244C1B68002B19DD07F00DFB4FF4DB
:101150007A72A0FB020302FB0131C30B43EA414355
:10116000D4E900209B1A40F2E9324FEAD13161EB19
:101170000001934271F1000101D3FFF76BFFD4E945
:10118000003213F57A7342F10002C4E90032BDE87F
:101190007040FFF7C5BF63685B7923B123682946B8
:1011A00020461B6898471034B442F4D32846FFF712
:1011B000AFFF094BD3E8EF1F0139C3E8E21F002A54
:1011C000BED0F7E7054C064EEEE770BD28130020B1
:1011D000580A0020C00700205C0A0020EC8C0000A8
:1011E000FC8C000070B50D4D297861B90120FFF726
:1011F00097FE0B4C0B4EB44206D3FFF797FF002827
:10120000FBD101232B7070BD63685B791BB1236830
:1012100020469B6898471034EDE700BF2913002053
:10122000EC8C0000FC8C000000212DE9F047084602
:10123000FFF776FE044658B340F267684FF00009A6
:1012400007F04CFB1B4B1C4A1B58136033B11B4B64
:101250001B68092B02DD1A4803F04CFF0025194FCB
:10126000DFF85CA044B12046FFF7F4FD044618B94E
:101270004FF0FF384FF0FF39FFF758FF064628B907
:10128000B5B942464B46504603F068FF3546E9E79C
:101290004FF0FF384FF0FF39D2E72B689B691BB145
:1012A00000222846114698471035BD42F5D3E8E79D
:1012B000054DFAE708000000540A00205C0A0020EF
:1012C00000030020FC8C0000EC8C000013B51848D3
:1012D00005F0D5FE174B1B7873B1EFF31184202373
:1012E00083F31288BFF36F8FFFF720FF84F3118819
:1012F000BFF36F8F02B010BD0F4B1B68002BF9D0EE
:1013000050B9002200230D48CDE900234FF40042DC
:10131000002304F0C5FDEDE70928EBD1074807F0ED
:1013200031FA074802B0BDE8104003F0E3BE00BF49
:101330005C0A002029130020540A0020C80700205E
:101340000003002010B5064B04461B689847214651
:10135000A060044805F0E0FCBDE81040FFF7B6BF10
:101360000400002074020020044A054B9B1AB1EBD4
:10137000D30F34BF52F83100002070479C8C00001E
:10138000EC8C00002DE9F04F8FB0C1F34A2804AF78
:101390000D469146B8607B600C0DB8F1000F63D02C
:1013A00000264FF0040B4FF00A0A07F11403C7F8A8
:1013B0000C80C7E907667E620193CDF808B0CDF8CE
:1013C00000A007F11C0332464846F968FFF72EFAE1
:1013D000B0F5006F03461CD36C468AB0D9F80410F0
:1013E00004AB26481A46C3E9050140F2FF71D961F2
:1013F0004FF400711984224B42F8103F4FF4125100
:1014000033462048FFF7BEFFA5462C37BD46BDE852
:10141000F08FC0F30A0804F11700184420F0070009
:1014200080083B60FFF766FE68F35325044690B1E1
:101430003B6800F11001C7E9083607F11403F961B0
:10144000CDE900A3CDF808B048460F4AF96807F186
:101450001C03FFF7EBF968F353252A4620467B6807
:10146000B96805F048FED0E704F1170020F0070046
:101470008008FFF73FFE0446EDE700BFCB91000078
:1014800004000001AC8C0000C97000002DE9F04F91
:1014900087B00446DDE9105ADDE912799346984693
:1014A0000391BFB13B46524610210020CDF8009079
:1014B000CDF81490FEF7E8FFB0F5006F06460AD3AA
:1014C00040F2FF730221174A174807B0BDE8F04FFA
:1014D00005F06ABE3E4605F11700304420F00700D3
:1014E0008008FFF707FE04F007040BF0070BE40089
:1014F00044EA8B1444EA462444EA0554054640B1C4
:101500003FB13B4652463146CDF800901030FEF7D1
:10151000BBFF434622462846039907B0BDE8F04F7B
:1015200005F0E9BD0A920000AC8C0000406820B1D3
:10153000034BC01A40F3CF0070474FF0FF307047A5
:101540009C8C00000EB403B503AB53F8042B01468A
:101550000448019301F06EF902B05DF804EB03B0AA
:10156000704700BFF3710000CA0605D48B064CBF5C
:1015700002490349FFF7E6BF704700BF43920000EE
:10158000429200002DE9F04F89B09B46149B9DF8D4
:101590004CA00693159B04460593169B0D4690465A
:1015A000179E0493BAF1000F00F09D8006F480733B
:1015B000079305F07EFD06F00209024600283ED0A2
:1015C00020469149FFF7BEFF0746B9F1000F08D04A
:1015D00016F0440F35D12A4620468C49FFF7B2FF5A
:1015E000074406F0010353B1894B204653F82A20E3
:1015F000884B8949002A08BF1A46FFF7A3FF06F463
:101600008073002B49D006F00803002B63D1B8F19A
:10161000000F66D0424620468049FFF793FF0546FB
:10162000069B3D44002B6DD1049B002B73D1F30727
:1016300000F1E48031462046FFF796FFD8E00746E8
:10164000C3E7774B18680028CAD0764B4FF47A79F5
:101650001B684FF03C0CB5FBF3F5B5FBF0F14FF414
:10166000616300FB115509FB05F5B1FBF3F2B5FB16
:10167000F0FE03FB121100FB1E55B1FBFCF309FB4E
:1016800005F5B5FBF0F50CFB131120460091CDE9F3
:1016900001E56549FFF756FFA2E706F00803EBB145
:1016A000624B204653F82A206149FFF74BFF05465D
:1016B000B8F1000F05D0424620465849FFF742FFD7
:1016C0000544BBF1000FABD05A4620465949FFF7FD
:1016D00039FF0544A4E74FF0000BE1E706F00805E9
:1016E000E6E745469CE7BBF1010F069B06D1002BC0
:1016F00064D1049B002B7BD000250CE0002BF8D09C
:101700004D485CE04D48069B22464D4905F0FAF8ED
:10171000049B002B68D0DFF82C81DFF82C91049F0C
:101720003146102F204628BF10274FF0000BFFF73F
:101730001BFF5D4545DC059B494620461A78FFF7AF
:1017400001FF4FF0010B1BF0070F03D1414620466C
:10175000FFF7F8FE5F453BD9059B4946204613F845
:101760000B20FFF7EFFE0BF1010BBBF1100FEAD1DD
:101770004FF0000B20463549FFF7E4FE5A46059B23
:1017800020469A5CA2F120015F2928BF2E22304911
:10179000FFF7D8FE0BF1010BBBF1100F1DD01BF0B2
:1017A000070F03D141462046FFF7CCFE5F455A465E
:1017B000E5D841462046FFF7C5FEEBE71F485546F2
:1017C000A1E741462046FFF7BDFE0BF1010BB0E754
:1017D00020462049FFF7B6FEC5E7059B3B4405932D
:1017E000049BDB1B04939AD1BAF1000F7FF41FAF67
:1017F000204609B0BDE8F04F05F0EEBC2046054A92
:101800000549FFF79FFE15E74A9200004E9200003F
:101810006C8D000045920000A199000073920000B9
:10182000680A0020640A002057920000808D0000A2
:10183000779200007D92000021720000F371000099
:10184000352800008A920000829200008C920000ED
:101850008E9200008892000042F20F7373B58B42A3
:1018600028BF0B4605680446052168460D4A04F06A
:10187000E1FC0646636828460B225B680A4905F0CE
:101880009DFC63683246694628465B6805F096FC15
:1018900063681B2228465B68044905F08FFC02B090
:1018A00070BD00BF54940000AD9200009192000002
:1018B00000210123064A904206D8064A01B90123B5
:1018C0001360054B18607047012140085B00F2E788
:1018D00040420F00640A0020680A0020F8B50D4657
:1018E0000446064F4618B44201D12846F8BD14F804
:1018F000011BBB6801485B689847F4E7C08900009A
:10190000014B036000207047C88D000008B50448F3
:1019100005F050F8BDE80840024805F04BB800BF9C
:10192000F392000028930000014804F041BB00BF7F
:10193000C88D000038B5044618B90F4B0F485B68D6
:1019400098476168B1F5683F10D0B1F5680F0DD0C8
:101950000B4DA9420AD011F46861206807D00146F6
:10196000084806F0A0FD00232360656038BD1422FE
:1019700006F031FFF9E700BF08020020569300008F
:101980002C5F5CA9900F002008B560B34368B3F5E5
:10199000683F0ED0B3F5680F18D0144A934220D098
:1019A00000684FF0FF324FF0FF3303F0DBFA58B11D
:1019B00015E001220368D3E8EF1F002903D1C3E833
:1019C000E02F0028F7D10AD1002008BD0368084A9B
:1019D0001B7803F5807352F82330002BF4D00548B0
:1019E000F3E70548F1E76FF4E040EEE72C5F5CA910
:1019F00000000350E98FFFFFEA8FFFFF08B520B317
:101A00004368B3F5683F09D0B3F5680F13D0114AA6
:101A100093421DD0006803F01DFB14E00022036810
:101A2000D3E8EF1F012903D1C3E8E02F0028F7D145
:101A300009D0094808BD00210368084A1B7803F54E
:101A4000807342F823100020F4E76FF4E040F1E7E0
:101A50000348EFE72C5F5CA9E98FFFFF000003500C
:101A6000EA8FFFFF10B5044618B91D4B1D485B688F
:101A700098476368B3F5683F2FD0B3F5680F2CD053
:101A8000194A934219D1236803BB4FF0FF324FF03C
:101A9000FF332146154803F037FA08B923681BB90C
:101AA0000F4B13485B68984714220021206806F00A
:101AB00092FE4FF46863636008E0B3F5683F0DD8A9
:101AC0003A2B03D040F6BA629342DED1206806F08A
:101AD00035FD636843F03A03636010BD054AF3E7E0
:101AE00008020020569300002C5F5CA9900F002094
:101AF0007C9300003A00003A08B5064940231422BE
:101B0000054806F0C2FCBDE808400449044804F05A
:101B1000C1BA00BF900A0020900F0020D08D0000B5
:101B2000E48D000008B50348034A0021121A05F0AD
:101B3000F4FB08BD1003002054130020074808B52B
:101B4000074A0849121A05F0EAFBBDE808400648B2
:101B5000064A0749121A05F0E2BB00BF0000002048
:101B600010030020C49B00000000002000000020A3
:101B7000C49B00002DE9F04706460C4600AF002943
:101B800036D0D1E90012E9468AB06D46A3684FF01D
:101B9000050AA8461F48C5E90723C5E9050148F815
:101BA00010AF002342464FF421511B48FFF7EAFBD8
:101BB000D4E90312CD466369AD461848C5E9072349
:101BC000C5E90501C5F810A0002342464FF4215194
:101BD0001148FFF7D7FBCD46E3690121104A0E48B3
:101BE00005F0E2FAA36901210E4A0B4805F0DCFA80
:101BF000012E07D1EFF305830B4A31460648103B0F
:101C000005F0D2FA2146304602F0DCFFBD46BDE8C1
:101C1000F08700BFA9930000CC8C0000D89300008F
:101C200007940000169400004494000030BFFFF7B2
:101C3000FDBF00BF2DE9F04105460B4EDFF82C80BB
:101C4000324606EB0807CC1B2046094906F0B6FDD4
:101C5000A01942460021083C06F0BDFDC5F8A4408D
:101C600007F10800BDE8F08100000000040000005A
:101C7000408D0000054B5A699B689A421FBF044A79
:101C8000536843F080535360704700BF2011002019
:101C900000ED00E070B52A4C06460D4629482A4959
:101CA00005F04AFBA36ADB0647D52648274905F01D
:101CB00043FB1120A36A1C0704D52248244905F0E0
:101CC0003BFB12201E4CA36A990712D521491D48DF
:101CD00005F032FB636BA26A120609D501211E4A88
:101CE000184805F061FA1EB1A36A23F08003A362CD
:101CF0001320134CA36ADE0704D51248174905F0D8
:101D00001BFB1420A36A9C0604D50E48144905F059
:101D100013FB15200A4B9A6AD10658BF9A6A9A6A31
:101D2000920642BF5A6A22F400525A629A6A42F0FC
:101D3000FF029A6200232B7070BD1020BAE700BF2B
:101D400000ED00E0CC8C0000579400006D94000082
:101D5000A0940000B3940000CB940000E194000034
:101D60000095000010B5244C2449254805F0E4FAFC
:101D7000A36A99013ED52248224905F0DDFA1E20CA
:101D8000A36ADA0104D51E481F4905F0D5FA1F20C1
:101D9000194CA36ADB0204D519481C4905F0CCFA9A
:101DA0000220A36A1C0304D51548194905F0C4FA9A
:101DB0002120114CA36A590304D51148154905F097
:101DC000BBFA2220A36A9A0304D50D48124905F0F4
:101DD000B3FA2320084CA36ADB0304D508480F4953
:101DE00005F0AAFA2420A36A6FEA03436FEA1343BB
:101DF000A36210BD1D20C3E700ED00E02F95000099
:101E0000CC8C0000479500005A95000074950000A6
:101E10009E950000BC950000E1950000FB95000038
:101E200070B5294C06460D462848294905F084FA24
:101E3000A36AD9043CD52548264905F07DFA172028
:101E4000A36A1A0504D52148234905F075FA18201C
:101E50001D4CA36A9B0512D51C48204905F06CFA5D
:101E6000A36BA26A100409D501211D4A174805F089
:101E70009BF91EB1A36A23F40043A3621920124CFC
:101E8000A36A590504D51148164905F055FA1A20D8
:101E9000A36ADA050ED50D48134905F04DFA1B204B
:101EA000094A936A43F47F43936200232B7070BD09
:101EB0001620C5E7A36A9B04F2D504480B4905F038
:101EC0003BFA1C20ECE700BF00ED00E0CC8C0000EA
:101ED000269600003C960000A09400004D9600005D
:101EE000669600007B960000969600000095000024
:101EF0002DE9F0418AB0654B0446D3F804800026F2
:101F000000AFC8F3080586F31188BFF36F8F02F0A6
:101F10007F43B3F17F4F07D102F00C03082B12D19E
:101F20005B495C4805F008FA002634460023FB7143
:101F3000EB1E092B00F28980DFE803F00A7F827B29
:101F400087878787878510074CBF0C460126EDE7FA
:101F50005149504805F0F0F900234C4DFB71EB6AF4
:101F60009A0705D54D494B4805F0E6F9002331E0C5
:101F7000EB6A002B01DA4A49F5E7EB6A5B00F5D51D
:101F80004849444805F0D8F96B69A26943F4807365
:101F90006B61BFF34F8FBFF36F8F6B6932F8022C09
:101FA00023F480736B61BFF34F8FBFF36F8F4DF6D8
:101FB00002739A4207D0AB6ADBB26BB30120F91D02
:101FC000FFF768FE37E023680121374A314805F002
:101FD000EBF82368FA79DAB907F1080504F1200C67
:101FE0002A4620686168083403C264451546F7D163
:101FF0007A6A002E45D0C2F3080121B96FEA522255
:102000006FEA42227A62184607F10801FFF7B2FD33
:102010002837BD46BDE8F081AB6A13F47F4F04D08A
:102020000120F91DFFF7FCFE05E0AB6AB3F5803F28
:102030009CD3FFF797FE0346CCE70020F91DBFE7CE
:102040000020F91DEEE719498DE7194A18F4F87FC9
:10205000E8468AB0174B18BF13466A461649103D2A
:10206000C2E905134FF400731384144BD56142F891
:10207000103F00234FF411510648FFF783F9C5467E
:1020800074E722F4FF7222F00102BBE700ED00E0EA
:10209000DC960000CC8C0000079700001E97000023
:1020A0003F9700004D9700006C9700008897000054
:1020B000C3960000AE960000AC970000040000013B
:1020C000064B5A6942F010025A615A6942F4806222
:1020D0005A615A6922F008025A61704700ED00E027
:1020E000EFF30880EFF3098101B57246FFF700FFB7
:1020F00001BD00BF002080F31488BFF36F8F002064
:1021000080F30A8880F30B88104880F30888002049
:102110000F49087001F002FF00200E490860BFF36C
:102120004F8F00F02DF8202080F311880A484FF4DB
:102130000061401880F30988EFF3148002210843FE
:1021400080F31488BFF36F8F00F0F0F8982300201D
:102150005013002094ED00E058160020002318468C
:102160000649D1F89020C2F30722934200DB704762
:10217000C1F89830C1F8A0000133F6E700ED00E0A7
:1021800010B572B6002484F31388FFF7E7FF2346E7
:102190004FF0FF300C4A03F120010133102B42F8BD
:1021A0002100F8D100234FF0FF30074A03F160010E
:1021B0000133102B42F82100F8D162B6BFF34F8FE4
:1021C000BFF36F8F10BD00BF00E100E0084B9B68BC
:1021D00083420BD1EFF3058343B1064B5A6842F0BB
:1021E00080525A605A6A22F400425A6203F056BB87
:1021F0002011002000ED00E016498A684FF0300001
:102200001044EFF3098C80E8F01F202080F312883F
:10221000BFF36F8F104F4FF000664A698A603E60CF
:10222000D2F8A4000D4C2060D2F8A8000023C2F818
:10223000A83080F3118802F1300090E8F01F8CF391
:10224000098802F1000004B505F07EF8BDE80440FD
:10225000704700002011002004ED00E0AC0F0020CA
:102260001EF0040F0CBFEFF30880EFF309808169C3
:1022700011F8021C0229FFD001B5724605F051F891
:1022800001BD00BF40B2002807DB01234109034A1A
:1022900000F01F00834042F82130704700E100E069
:1022A00040B200280CDB01220649430900F01F0060
:1022B0008240203341F82320BFF34F8FBFF36F8F4D
:1022C000704700BF00E100E0054B420953F82220AF
:1022D000012300F01F0003FA00F01040704700BF18
:1022E00000E100E040B2002801F10101ACBF00F1C3
:1022F0006040064B4FEA4111C9B2ABBF00F56140E7
:1023000000F00F0080F800131954704714ED00E03E
:10231000044B054A23F07F039360BFF34F8FBFF355
:102320006F8F70470000000000ED00E008B5FFF778
:10233000EFFF074AD2F8883023F47003C2F88830E0
:10234000FFF7F0FBFFF7FAFB00F048F802F060FD42
:1023500000ED00E042F8203C009B0B4942F81C3C99
:10236000019B21F0010142F8183C029B42F8081C35
:1023700042F8143C4FF0807342F8043C0023203AAA
:102380000265C0F8A8307047050C000000B50E4B80
:1023900015469860D0F8A4200C4B0E461A60D0F871
:1023A000943083F30B882C4686F309880020044B75
:1023B00098472046002100220023024C20470000BD
:1023C00059730000050C000020110020AC0F002004
:1023D0001022014B1A61704700ED00E0002320211C
:1023E0000348C2180133452B82F80013F9D1704716
:1023F00000E100E008B5EFF30583064A103B02EB6D
:10240000C30152F8330049688847BDE80840FFF728
:1024100031BC00BF208A00001FB5094C094A234681
:102420000121094800F012F900230393074B012111
:10243000E41A01A80193029400F012F904B010BD4F
:102440000000072000000020F48D00001003002091
:1024500010B50C7A0B6804F01F0223F01F031A4317
:10246000CB68640923F01F03054943EA440343F0A2
:102470000103C1F89800C1F89C20C1F8A03010BD3C
:1024800000ED00E010B50A4BD3F89030C3F30723FA
:10249000013B984208D901210346064A064804F048
:1024A00083FE6FF0150010BDFFF7D2FFFBE700BF02
:1024B00000ED00E0C3970000C48C00002DE9F04F50
:1024C0008946144606464FF00008514D85B0C84570
:1024D00027DAD6F804A0BAF1000F44D0BAF11F0FE2
:1024E00017D91AF01F0F14D1D6F800B01BF01F0F28
:1024F0000FD1584604F06CFF07460AEB0B00013879
:1025000004F066FF874210D06FF01507414A3B4642
:1025100001E04346404A0121404804F045FE6FF087
:102520001504204605B0BDE8F08F17F1160FEDD069
:10253000BC42EBDDC5F89870D5F89C10C5F89870D2
:10254000D5F8A03021F01F0143F01F0BD6E900326F
:102550001A44994202F1FF3A1DD1D34507D13146C1
:10256000F8B204F03EFF08F101080C36AFE731463F
:10257000C5F89870D5F89C3022F01F0203F01F03B5
:102580001343C5F89C30E0B204F02BFF10F1160F96
:10259000C5D0441CE7E7C5F89870D5F8A020013BEA
:1025A00023F01F0302F01F021343D3453146E0B26C
:1025B000C5F8A030E8D004F014FF10F1160FAED02B
:1025C000C5F89870D5F89C209DF808300BF1FF3BBA
:1025D00062F304038DF80830D5F8A0309DF8082088
:1025E0005B0863F347128DF80820D6E900321344E4
:1025F000009323F01F035B44A3EB0A03013023F095
:102600001F036946C0B20393FFF73CFFBEE700BF5C
:1026100000ED00E00C980000E9970000C48C000079
:102620000522044BC3F89420BFF34F8FBFF36F8F85
:10263000704700BF00ED00E0BFF35F8F0022024B48
:10264000C3F89420704700BF00ED00E010B5034CC4
:102650002278FFF733FF207010BD00BF2B1300203E
:102660002DE9F74F294D8A4606464FF00008AB4644
:10267000274FD0451BDAD6F80490B9F1000F3FD0B0
:1026800031680846019104F0A3FE0199044609EB64
:102690000100013804F09CFE84424FF014021D4BEF
:1026A00008D002FB08F36FF015024BF8032003B0CB
:1026B000BDE8F08F14F1160F2C60F8D01978A14204
:1026C000F5DD02FB08B0C7F89840C7F89840D7F886
:1026D0009C4000F10801007B64F304000871D7F806
:1026E000A0000C79400860F347140C71D7F89C10D7
:1026F00021F01F016960D7F8A01021F01F012961A6
:1027000008F1010814350C36B3E700BFB00F002004
:1027100000ED00E02B130020F0B54149414CD1F809
:1027200090302568C3F307239D4287B075D80020F9
:10273000FFF782FF3C4BC1F8C030854216D13B4CBD
:1027400001A82570FFF7DCF800250646384FAE4299
:1027500013D1002023783249D1F89020C2F3072208
:10276000934254DBFFF75CFF00202FE0616801EB30
:102770000011FFF76DFE0130DFE70199280101EB41
:102780000513DA683A40B2F5001F21D0B2F5800F88
:102790002BD0B2F5801F38D15A689B680958013B8D
:1027A00022F01F0003440120844623F01F0340EA67
:1027B0004C10CDE902218DF8100002A92078059374
:1027C000FFF760FE00281DDA6FF0150007B0F0BDBE
:1027D0005A689B680958013B22F01F0003444FF0E0
:1027E000020C012023F01F03E1E75A689B68095897
:1027F000013B22F01F0003444FF0000C062023F0A1
:102800001F03D4E723780133237001359FE7C1F814
:102810009830C1F8A00001339EE74FF0FF30D5E7B4
:1028200000ED00E0008E0000AAFF44002B13002002
:102830000000F0FFF0B587B007460E4614460021B1
:10284000102268461D4605F0C6FF02238DF80230AF
:10285000054B2A4621466846CDE90476019303F0EC
:1028600015FD07B0F0BD00BF1574000008B5024BA0
:102870001B689847002008BDC40F0020034B044A82
:102880001860937843F0020393707047C40F0020E0
:102890003000002008B50649064821F00701C1F1C3
:1028A000005202F5E02203F0D5FF002008BD00BF72
:1028B0009F230020C80F0020054B03EB8000D0F8B9
:1028C000003223F0E04343F04053C0F80032704739
:1028D00000258450052370B5144D154E2C78013415
:1028E000B4FBF3F303EB8303E41A05F057F8114A42
:1028F000137823B156F82430C01A072814D94FF0A2
:102900005023D3F8141141B10021C3F81411D3F8A6
:1029100014312C700CB9012313702C7805F03EF89B
:1029200046F82400012070BD0020FCE72D13002094
:10293000D40F00202C130020012208B50B4B0C49AA
:10294000C3F8002502230020C1F8D036FFF7B4FFFA
:102950001046FFF7B1FFC1F80427C1F80429C1F8F8
:10296000002BBDE8084000F099B800BF00100050EF
:102970000040005007B54FF480620B4B0B49C3F881
:10298000B8254FF400620A48C3F83C250DF1070250
:1029900005F04BF8002803DB9DF8070001F0B4FBBD
:1029A00003B05DF804FB00BF00A002502CA0025051
:1029B00028A1025048B1054B054A1B68B3FBF2F34E
:1029C0005843044B43F0010318477047F0010020BF
:1029D00040420F00408D0000002170B5104C114D99
:1029E000114E000714F8013B03F01F025B090FD0E2
:1029F000012B0FD1334603EB8203D3F800220131C0
:102A000022F0E04202430429C3F80022EAD170BD5B
:102A10002B46F0E70023803253F82230FFDE00BF60
:102A20004698000000258450002884502DE9F0418C
:102A3000064601200D46FFF7CFFF4FF47F03D3F882
:102A40003021D3F83431072A20D1023B032B02D89E
:102A5000114AD35CD3B14FF050244FF00108002746
:102A60000520C4F81886C4F8147604F0A9FF40467F
:102A7000C4F8148604F0A4FFC4F81476C4F81876D9
:102A800030462B46BDE8F041002118474FF0502357
:102A90000022C3F81426F3E74298000001490248D7
:102AA00004F050BA288E0000E80F002008B54FF05F
:102AB000FF323F230348C0E9002301F011FB00204F
:102AC00008BD00BF04100020084B70B5C31A0D46A6
:102AD00007499B10044659434022064804F0BFFCB6
:102AE0002B4601462046BDE87040184720100020C4
:102AF000B76DDBB660890000402373B50B4C0093C3
:102B0000041B0B460D460A49A41061430646094AB8
:102B1000094804F0CFFC011E05DA30462B4602B00E
:102B2000BDE87040184702B070BD00BF2010002003
:102B3000B76DDBB61D750000608900002DE9F04718
:102B40000022012107460520FFF7CCFB124801F0C7
:102B5000FBFA0446D0B901F02BFB25464FF01C0AC6
:102B60004FF00C08DFF834903E6949460AFB0560D7
:102B700004F0E8F9031E0CDB012308FB05661D4485
:102B8000042DB367F0D12046BDE8F0876FF0040450
:102B9000F9E71C46F7E700BFCD2C0000348E00009B
:102BA0001FB500220123CDE902236B46084ACDF868
:102BB00000D0CDF804D004F0AAFC002805DB4FF4C7
:102BC00080420023684602F0C9FA05B05DF804FBB4
:102BD0004775000010B5EFF31184202383F31288AA
:102BE000BFF36F8F074A136823F00201DB07116000
:102BF00002D4012004F03CFF84F31188BFF36F8FEF
:102C000010BD00BFC01000200C22104B014602FB7B
:102C10000033002030B4D3E91C521867EFF3118061
:102C2000202484F31288BFF36F8F9C6F04F0C004DC
:102C300044F002049C6780F31188BFF36F8F1DB1CD
:102C40002B4630BC0248184730BC7047201000208B
:102C50006089000010B4EFF31182202383F31288FF
:102C6000BFF36F8F1748016841F002040460C80782
:102C700007D482F31188BFF36F8F012010BC04F0DA
:102C8000E8BE4FF05021D1F80C04D1F80C14C9075C
:102C9000EFD5EFF3118083F31288BFF36F8F0A49EA
:102CA0008B6F03F0C00343F002038B6780F311883E
:102CB000BFF36F8F82F31188BFF36F8F002010BCBA
:102CC000FFF7A2BFC010002020100020092813D851
:102CD000DFE800F005101212121212120E0C074B50
:102CE000986F10F0070007D1FFF78EBF0220FBE7B7
:102CF0000320F9E70120F7E7704700BF201000200C
:102D00002DE9F041012207463649D1E8EF3FC1E8FD
:102D1000E02F0028F9D133B9334934484B60CB60F8
:102D20008A6004F022F97B1E012B2BD8012F07D1DA
:102D30004FF05023D3F81C3403F00303022B21D0AF
:102D400005F00FFC0546F8B9294B1B78E3B14FF0AD
:102D5000502302220646C3F808234FF05024DFF820
:102D60009480D4F81824D4F81834D20315D503F07D
:102D70000303022B01D0012F0FD16DB386F311880D
:102D8000BFF36F8FBDE8F081EFF31186202383F34B
:102D90001288BFF36F8F0125DFE7C5B1304604F01D
:102DA000FBFAD4F81835DBB2012BDAD1D4F80421C0
:102DB000002AD6D00022C4F80421D4F8042102222B
:102DC000C4F818252022C8F88021A360C9E7002193
:102DD000212005F05FFCE4E74FF050230222C3F806
:102DE0000423CFE71C1000200C1000203C10002012
:102DF0005013002000E100E008B5074805F018FB7B
:102E000038B10648FFF73AFD0448FDF7F5FE00200B
:102E100008BD6FF01200FBE7C0890000212E000002
:102E20000A2838B50446074D04D1AB680D21284661
:102E30005B689847AB6803485B68E1B298472046F7
:102E400038BD00BFC0890000F0B545681646A868C7
:102E50002A7C01F01F0487B044EA4214002868D09D
:102E6000B6F5001F04D1214605F04AF9002051E0D3
:102E70000020B6F5800F01AA0190506037D1B3F160
:102E8000007F14BF052304238DF804300023CDE90F
:102E900004230393EB680DF1030723FA01F111F00A
:102EA000010139D1B6F1A07F36D104F01F036209C8
:102EB00003F1800326D0012A3ED1214A52F8233063
:102EC000DB0729D43A462146A86805F0ACF816304D
:102ED0001AD002972146A86803AA04F070FF0028C0
:102EE00018DB01222146A86805F0B8F8BEE7B3F167
:102EF000C06F05D0B3F1007F14BF01230223C3E7E5
:102F00000323C1E70F4AD9E73946A86801F076FBE9
:102F10000028DEDA07B0F0BD3A462146A86805F081
:102F200082F80028D6D19DF80310A86801F05CFB58
:102F3000D0E76FF08500EDE751F82330FFDE00BFEA
:102F400000288450002584504209034670B502D001
:102F5000012A17D070BD0D4E326951680029F9D091
:102F6000012503F01F030C689D400029F2D08A68F8
:102F70002A4002D030464B6898472CB1236821463E
:102F80001C46F2E7024EE7E72346F8E7A089000077
:102F90008089000038B54568A86890B105F056F8FA
:102FA000014670B9A86801F0EDFA044658B9024626
:102FB0000649A86805F034F8224605210D20FFF7E0
:102FC00091F9002038BD6FF00400FBE7492F0000A5
:102FD0002DE9F04340F206364768D00648BF4FF06F
:102FE000030C3B7C02EA060658BFC2F3401C87B0C4
:102FF00001F01F05B6F5837F144645EA43158DF8A9
:1030000003C044D00DD8062E16D005D8A6B1022E86
:103010003FD06FF0150037E0B6F5807FF9D101267B
:103020000AE040F20222964235D0B6F5407F34D015
:10303000B6F5007FEDD102260123220303FA01F148
:103040002DD57B689960B86880BB05F01F036D09BA
:103050002AD0012D73D13C4A02EB830284F48033E1
:10306000D2F80012C3F30043C4F3404444EA4304DB
:1030700021F4706144EA8C0421F00F0144EA062334
:103080000B43C2F80032002007B0BDE8F0830726EA
:10309000D2E70426D0E70526CEE70326CCE7630374
:1030A00044BF7B68D960CEE7284AD5E729460DF1B1
:1030B000020204F0B8FF14F4403F80460CD12946C8
:1030C000B86804F0C9FFB8F1000FDCD19DF8021018
:1030D000B86801F089FAD6E74FF0000901ABCDE9F5
:1030E0000199CDE90439CDF80C902946B86803AAB6
:1030F00004F065FE4845C6DB14F4003314D09DF897
:10310000033084F48034C4F300448DF80E308DF81D
:103110000C608DF80D404B462946B86803AA04F0B0
:1031200006FF0028CFDAAEE7CDE904330DF1030343
:1031300003932946B86803AA04F041FEF1E78033FF
:1031400050F82330FFDE00BF002884500025845053
:10315000036803F01F025B09026004D0012B0348DF
:1031600018BF002070470248704700BF00288450F5
:10317000002584502DE9F04F1546834640F2FF1894
:10318000DFF87891DFF878A185B000EB810159452F
:1031900003D1002005B0BDE8F08FDBF80030C3F3A9
:1031A000C322082AC3F3080400F2A180444519F899
:1031B00002704FEA136311D0192B1DD94E2B40F02A
:1031C0009980C5F81445012603A80394FFF7C0FFB2
:1031D000039B06FA03F3836032464DE0192B09D9AD
:1031E0004E2B40F087804FF0FF33C5F814350BF1BC
:1031F000040BCCE74FF0FF34192B7BD8DFE803F04A
:103200000D1218301B21307A7A7A7A33607A7A7A02
:103210007A7A7A7A7A7A636E7174C5F80C45601C92
:10322000D1D1E4E7C5F81445661CE0D00026D3E709
:10323000C5F80845F3E7621CC5F80845D7D0002655
:1032400004E0631CC5F80C45D1D0012603A8039403
:10325000FFF77EFF0122039B02FA03F3C3600BE03A
:10326000C5F81045E0E7C5F80845002FDCD1601C23
:10327000BDD0002606273246DBF80030039403F465
:103280000040002818BF002203A818BF01260193A0
:103290000092FFF75DFF039C019B00EB8400D0F8D8
:1032A0000042C3F3412C009A3B0243EA8C031343D0
:1032B00004EA0A04234343EA4603C0F8003296E7CF
:1032C000C5F80C45D1E7C5F86045621CDBF8003055
:1032D0008DD0C3F30043002BB7D074E7C5F8644525
:1032E000F3E7C5F86845F0E7C5F86C45EDE76FF022
:1032F00015004FE76FF085004CE700BF9C98000079
:10330000F0F0FCFF2DE9F04104460D46476805F05A
:1033100028F94FF0200888B9264B1B7873B1642632
:10332000606804F093F9F0B9012004F049FB013E14
:10333000F6D10021212005F0ADF9F0E7EFF3118679
:10334000314688F31288BFF36F8F606804F07EF90E
:10335000A8B986F31188BFF36F8FEFE786F3118862
:10336000BFF36F8FE5E7EFF31186314688F31288DC
:10337000BFF36F8F606804F069F90028EED0FB6935
:1033800000201D706368FA691B68C3F84425012298
:10339000C3F84825C3F82001D3F82041C3F85801E9
:1033A000D3F858019A6081F31188BFF36F8FBDE89D
:1033B000F08100BF501300202DE9F04105460022A6
:1033C00001210820FEF78EFF0820FEF75BFF6C68E6
:1033D0000121E06804F06BF96B6819682369C1F892
:1033E0002435A27D637D207D1343228B024313434A
:1033F000C1F86C356F68D7E9004313F0010346D07C
:10340000D5F8108004F10C0108F1080204F5907061
:1034100004F00BFB061E07DA01212A4A2A4803F0B2
:10342000BAFE3046BDE8F08198F8080000F06CFE66
:103430000823C4F80035FB69C4F844350023C4F8F8
:1034400048350123A360D4F85831002BFBD0002667
:10345000C4F800656B683146D86804F028F96D68D7
:103460003146E8682C6804F022F90823C4F80035D6
:103470002A7A52B92B6AC4F834350123C4F8383596
:10348000C4F81021D4F8102123600026C9E70822CF
:10349000C4F80025FA69C4F84425C4F84835012366
:1034A000A360D4F82031002BFBD00023C4F82031D6
:1034B000D4F820310123E3604FF48073C4F804335F
:1034C000C1E700BFA5980000E48C00002DE9F0479B
:1034D00045680121D0F81080064600AF686B04F003
:1034E00017F9E96B481C19D0A86B04F0FBF910F12F
:1034F000130F04460AD10121334A344804F0E9F895
:103500006FF012042046BD46BDE8F087411D05D18D
:1035100001212F4A2D4804F0DCF8F3E74FF00109B0
:10352000EB6A9847D8F83050D8E90C3203EBC20365
:103530009D420AD308F1280004F03FF97368002186
:10354000586B04F0E5F80024DCE7286804F070FF0D
:103550000346B0B92A686C468AB0106829796A4671
:10356000D1614FF400711B4D11841B49C2E9055014
:1035700042F8101F4FF411511448FDF703FFA54600
:10358000BEE728682979EB88D0F810C0DA07DCF8A4
:10359000004054BF43F4B01383F4D01323F48012DB
:1035A00009FA01FEDB07D0F808A04CBF4EEA04047C
:1035B00024EA0E04CCF80040DAF800309847041EE4
:1035C000A0DB0835B0E700BFDE980000DC8C00000F
:1035D00009990000269900000400000110B5027846
:1035E0000346002A63D10C69D4F8802032B9E06F19
:1035F0006FF07301BDE8104004F002B9606F48B18C
:10360000A16F39B1DB682BB1834203D0D4F88C10A1
:1036100005F0D4F8236FD4F8802033B19A4214D93E
:103620000121234A234804F054F8A36FD4F88020E2
:1036300033B19A4222D901211D4A1E4804F049F8AB
:10364000E06FBDE8104004F0EDB89B1A23677BB92A
:10365000E36D04F170020833E365236E04F1600149
:10366000013B236604F15C0004F03FF8E066DCE710
:10367000E36E002BD9D01344E366D6E79B1AA36709
:103680007BB9636E04F1780208336366A36E04F1BC
:103690006801013BA36604F1640004F026F860674A
:1036A000CEE7636F002BCBD013446367C8E710BD30
:1036B0004A990000DC8C00002DE9F04F8FB000AF7C
:1036C000FB6043688046BB608B88046998048A4627
:1036D000934633D44FF0FF324FF0FF3304F13800FC
:1036E00001F03CFDC4F82CA0D8F81090D8F8045094
:1036F00099F88530D5F800C023B1D9F828309A451B
:1037000000F01D81BAF804E01EF400631DD0012111
:103710006E4A6F4803F0DDFF6FF08505A36A13B1B1
:103720009B889B0405D40023E36204F1380001F078
:10373000E1FC28463C37BD46BDE8F08F236C002BEA
:10374000C8D1E36A9942C5D1CEE71EF0010F16D069
:103750006D4688B0D8F800106A465E48C2E9050197
:103760004FF4007191835C4942F8101F4FF4E2510D
:103770005748FDF707FEAD466FF01505CEE71EF082
:10378000080F05D0554A0121514803F0A2FFF3E785
:10379000CEF34513082B01D0514AF4E7DAF8003094
:1037A0007B607A684F4B9A4201D84F4AEBE74F4B08
:1037B0009C4507D94FF05022D2F8582512F0030F3C
:1037C00018BF9C4607F1100604350FCD0FC60FCD6C
:1037D0000FC67B6895E80300634528BF63469C4697
:1037E000434B86E803009C4517D2404B9C4514D2BE
:1037F000404B9C4511D2404B9C454FD83F4B9C457C
:103800004ED83F4B9C454DD83E4B9C454CD83E49ED
:103810003E4B3F4A8C4588BF13461EF0020F7B6229
:103820000EF0040342D0002B14BF0323022387F8B9
:103830002830CEF3001387F82930D9F80030D3F8B8
:103840000835591C11D01EF0020F03F01F004FF075
:1038500001024FEA5313CEF340012DD153B39342EB
:1038600040F019812B4B8240DA6099F885302BB1FA
:10387000484601F05FF9002389F885304346484601
:10388000254A07F1100104F0C6FC051E52DA012199
:103890002B46224A0E4803F087FC3FE7204BBCE74B
:1038A000204BBAE7204BB8E7204BB6E7003B18BFE8
:1038B0000123BCE71E4BD6E733B1012B40F0ED806E
:1038C000144B82409A60D0E7194BFAE768990000E0
:1038D000DC8C00008299000003000001A499000024
:1038E000C399000047E80100F29900000024F400A9
:1038F0000048E80100127A00FF083D007F841E00A6
:103900003F420F001FA107008FD0030048E80100CD
:1039100090D0030000288450DD350000239A000079
:1039200000093D0080841E0040420F0020A10700D6
:10393000002584500123C9F828A089F88530012387
:1039400084F88430BB68D96B4A1C09D0986B03F0AB
:10395000F1FF743004D10221514A524803F0B9FEFC
:10396000BBF1000F6BD1C4F85CB00023236604F1F7
:10397000700204F1600104F15C0003F0B6FEFB6824
:10398000E066002B63D163660023A36604F178022E
:1039900004F1680104F1640003F0A7FE002504F1BE
:1039A00028062A4601216067A565304603F0E5FE3A
:1039B000404603F037FF2A462B46206E83424ED105
:1039C00000231946A56EA94250D19A4238BF1A4623
:1039D0004FF4FA5303FB02F5A36A4FF4004C1B6843
:1039E00040F2E730B5FBF3F50021C8354FF47A72A9
:1039F0000023E5FB0C01FCF7ADFB04F14806024691
:103A00000B46304601F0AAFB0246002835D00121C2
:103A1000254A244803F05DFE00252046C4F8805066
:103A200001F088F86FF07301404684F8855003F088
:103A3000E7FE304601F0B8FB6FF073056EE6DBF889
:103A40000030E365002B90D0DBF804308EE7FB6894
:103A50001B686366002B97D0FB685B6895E7E16D98
:103A600001EBC301496801330A44A7E7606E00EB2C
:103A7000C100406801310344A5E7A56D15F1740F3D
:103A8000CAD0002D3FF44AAED8F8100011462830B5
:103A900003F073FE42E6C960FFDE00239B60FBE794
:103AA000489A0000DC8C0000729A000000F01F02AF
:103AB00040090DD001280DD1094B03EB8203D3F847
:103AC0000002084A024042EA8102C3F8002270471D
:103AD000054BF2E70023803253F82230FFDE00BFAF
:103AE00000288450F0F0FCFF00258450012383401F
:103AF00070B5DC430B4AD2E8EF1F01EA0405C2E8C7
:103B0000E65F002EF7D14FF4803282400648C0F8BD
:103B10000823BFF35F8FBFF36F8F0B4214BF0120E9
:103B2000002070BDEC1000200050015070B40E4910
:103B300022F07F46D1E90034D01AC31844F10004C2
:103B4000C1E90034A6F50013B3F5400F09D2074BC5
:103B50001B681A0A1B069C19054B42F10005C3E9B4
:103B6000004570BC02F09EB810080020F010002044
:103B700018080020D9B101230D4A8340D2E8EFCFC5
:103B80004CEA030CC2E8E1CF0029F7D14FF48033AF
:103B9000084A8340C2F80433074BD3E8AF3FC34021
:103BA000DB0742BF4FF40012044BC3F800217047FB
:103BB000EC10002000500150E810002000E100E06F
:103BC0000D4B1868010A0006BFF35F8F0B4BD3F84B
:103BD0000435181841F10001B3F5801F0AD2084BD3
:103BE000D3E90023904271EB030303D210F18070FC
:103BF00041F10001704700BFF0100020005001505B
:103C0000180800202DE9F04F85B016461F460446DF
:103C10009DF840A0FFF76AFF0190FFF7D1FFB04287
:103C200071EB070352D23B4B301A67EB010198420C
:103C300071F100014DD2384B03EB0413D3E9022399
:103C40009F4208BF964258D04FF48038334908FA53
:103C500004F8204626F07F4BC1F8488303F092FE1B
:103C60004FF00309584604F15005AD00ADB205F11F
:103C7000502504F5A87305F580350293029A20F0CB
:103C80007F4341F82230C1F84483D1F80435244AF7
:103C9000C01A033820F07F4090422ED9286868B1BE
:103CA000D1F80435A3EB0B0020F07F40B0F5000FF6
:103CB000039322D9204603F065FE039BBAF1000F5F
:103CC00007D109EB030009F10109D7E7BAF1000FA9
:103CD00009D06FF0150520460199FFF74BFF2846E4
:103CE00005B0BDE8F08F01230E4AA340D2E8EF0FE4
:103CF0001843C2E8E10F0029F8D107490E982301C3
:103D0000C8500F9B01EB04120025C2E90267536003
:103D1000E1E700BF010080000008002000500150D2
:103D2000FDFF7F00E81000207FB500254FF0FF3039
:103D30004FF0FF31194C1A4B0226C4F80833C4F86F
:103D40004833184BC4F80855C3E902014FF48033D7
:103D50004FF40012C4F80433134B0121C4F8046378
:103D60001520C3F880212A46FEF7BCFA1520FEF77D
:103D700089FA01230D4AA360236013600C4B0D4A9E
:103D8000009328460023CDE90155FFF73BFF30465D
:103D9000FEF7B6FF284604B070BD00BF00500150CA
:103DA00003000F000008002000E100E0EC100020FC
:103DB0002D3B0000FFFF7F002DE9F7432E4BD3F88A
:103DC000042390070BD5D3F8042142B10022C3F895
:103DD00004212A4AD3F80431136801331360264AB8
:103DE000D2F80433D90326D5254BD3E8EF1F21F0B1
:103DF0000100C3E8E40F002CF7D1CB0702D4D2F8BE
:103E00004031C3B100251C4CC4F84051D4F84031B6
:103E1000FFF7D6FEEFF31182202383F31288BFF35E
:103E20006F8F184BD3E90267B042B94106D282F3D3
:103E30001188BFF36F8F03B0BDE8F0834FF0FF38F8
:103E4000D3E900104FF0FF391D60C3E902894FF438
:103E50008033C4F84833C4F84051D4F8403182F379
:103E60001188BFF36F8F0029E5D0009032463B46A2
:103E700028468847DFE700BF00500150F0100020BF
:103E8000E81000200008002030B5431C124C85B01B
:103E900005D08442A8BF0446012CB8BF0124FFF717
:103EA0008FFE0E4B0C4DD3E90013401AB0F5000FF6
:103EB0000FD22218AA4228BF2A46002052180849C9
:103EC000CDE90100009143F10003FFF79BFE05B02F
:103ED00030BD2A46F1E700BFFFFF7F001008002039
:103EE0002D3B000008B5FFF76BFE024B1B68C01AA4
:103EF00008BD00BF100800204FF47F03D3F8302125
:103F0000D3F83431072A05D1023B032B02D8024AE9
:103F1000D05C704700207047C09A000008B5FFF7DA
:103F2000EBFF58B1644BD3F8202A3AB90D21C3F8FE
:103F3000201A0121C3F81C19C3F81C290022D30040
:103F400003F57F03D3F80013013107D0D3F8001332
:103F50000132D3F80433202A0B60F0D1FFF7CCFFF5
:103F6000002840F0A080FFF7C7FF40B1534B544AF0
:103F7000C3F830254FF050230122C3F858254FF4E1
:103F80007F03D3F83021D3F83431072A09D1023B1B
:103F9000032B06D84B4AD35C1BB100224A4BC3F813
:103FA0004C25FFF7A9FF50B14FF05023D3F8002460
:103FB000D10742BF0022C3F81421C3F818214FF4DF
:103FC0007F03D3F83021D3F83431072A09D14FF0D9
:103FD0005023D3F80024D20744BF6FF00102C3F886
:103FE0000024FFF789FF18B16522334BC3F80C2773
:103FF0004FF47F03D3F83021D3F83431072A16D198
:10400000314BD3F82034002B11DA4FF05023032228
:10401000C3F8182501229A60D3F80421002AFBD0A6
:104020000022C3F804210122DA60C3F818254FF4F6
:104030007F03D3F83021D3F83431072A23D1023B50
:10404000032B02D8214AD35CEBB17E221A4B1B49C9
:10405000C3F80C27C3F83C297F231D4AC2F8183146
:104060000023C1F8043EC1F8083E01F54821C1F81B
:104070001031C2F82431C2F82C3102F5FF1202F5DA
:104080008052C2F8A032134AD2F88C3043F4406315
:10409000C2F88C30104A114B1168C3F84415D2692C
:1040A000C3F84C2508BD2922034BC3F80C27032273
:1040B000C3F83C2757E700BF004000500090035072
:1040C0004400EFBEBC9A000000200350B89A0000E4
:1040D0000020005000ED00E00080FF000060005074
:1040E000014B1860704700BFF410002010B5054B5D
:1040F0001446186803F066FC0028A4BF2070002056
:1041000010BD00BFF41000200123024A8340C2F812
:104110000435704700700150014B00201B681847A0
:10412000F8100020014B1B68184700BFF810002052
:10413000014B09201B681847F8100020014B08208C
:104140001B681847F810002010B5144C237913BBD6
:1041500001232371124B0028206018BF184600F07D
:1041600037F8D0B923680F48002B08BF184600F075
:10417000B9F890B923680C48002B08BF184600F026
:10418000F9F850B923680948002B08BF1846BDE864
:10419000104000F063B86FF0770010BDF8100020F9
:1041A0001941000031410000254100003D4100005F
:1041B00008B5064B1B6843B10520FEF785F820B90A
:1041C000BDE808400520FEF75DB808BDF8100020E6
:1041D000074B0246187938B91A6001221A714FF05C
:1041E0005023C3F8142570476FF07700704700BF65
:1041F000001100204FF050230022C3F80021D3F813
:104200000021012208491A60096811B1C3F804238A
:104210007047D3F80021002AFBD00022C3F8002108
:10422000D3F80031704700BF001100204FF0502339
:10423000D3F80423D2070DD5D3F8002152B10022C0
:10424000C3F80021D3F800210122C3F80823024B50
:104250001B681847704700BF00110020054B02463D
:10426000187918B91A6001221A7170476FF0770037
:10427000704700BF081100204FF050230022C3F800
:104280002021D3F8202101229A61094A126822B123
:104290004FF48072C3F804237047D3F82021002A1A
:1042A000FBD00022C3F82021D3F82031704700BF93
:1042B000081100204FF05023D3F80423D2050ED567
:1042C000D3F820215AB10022C3F82021D3F82021AD
:1042D0004FF48072C3F80823014B1B6818477047DE
:1042E00008110020074B0246187938B91A600122DC
:1042F0001A714FF05023C3F8802570476FF0770094
:10430000704700BF101100204FF050230022C3F867
:104310002421D3F8242101221A62094A126822B109
:104320004FF40072C3F804237047D3F82421002A05
:10433000FBD00022C3F82421D3F82431704700BFFA
:10434000101100204FF05023D3F8042392050ED50E
:10435000D3F824215AB10022C3F82421D3F8242110
:104360004FF40072C3F80823014B1B6818477047CD
:1043700010110020074B0246187938B91A60012243
:104380001A714FF05023C3F8182570476FF077006B
:10439000704700BF181100204FF0502310B5D3F81C
:1043A00018141E4C11F4803FD3F818241AD002F0D0
:1043B0000302022A04D0012A01D003F0C9FB012222
:1043C0004FF05023C3F818250022C3F80421D3F876
:1043D000042101229A6022688AB9D3F80421002AB4
:1043E000FBD014E0D3F81424D207E8D5D3F81C246A
:1043F00002F00302013A012ADFD822681AB1022230
:10440000C3F8042310BDD3F80421002AFBD00022F6
:10441000C3F80421D3F80431F4E700BF18110020D9
:10442000F8B54FF0502301250026D3F80443184F68
:1044300004F0820404B9F8BDB4FA84F0C0F11F009E
:10444000830003F580739BB203F15023196805FACA
:1044500000F224EA02040029ECD01E601B684FF031
:1044600050230128C3F808230ED1D3F81824D3F819
:10447000182402F00302012A06D10221C3F81815FC
:10448000C3F804139A60D5E73B68C0B29847D1E7F8
:1044900018110020036803F01F025B09026004D0BA
:1044A000012B034818BF002070470248704700BF27
:1044B0000028845000258450034A4309D35C00F04F
:1044C0001F001844C0B27047C49A0000034611F0A0
:1044D000010010B5CCB20BD1A207C4F340000DD53A
:1044E000074A106A58601062003818BF012005E0C2
:1044F00004490A6A1A600A62002AEDD010BD00BFA2
:104500000028845000258450F7B504460846FFF77C
:10451000D3FF06B204EB4606B38A0D46DB072BD564
:10452000204603F029FC2946204603F084FB58B1BD
:10453000204603F096FB0022276800B207EB8003B9
:10454000C3F81025C3F810252946204603F0B2FB16
:10455000002101A8B1820195FFF79CFF019B00EBB0
:104560008300D0F80022064B134043F00203C0F84A
:104570000032084603B0F0BD6FF01500FAE700BF47
:10458000F0F0FCFF70B590F88C40054690F88D6017
:1045900024BB21466022143004F01DF92146114B42
:1045A000286853F836608E420ED10024C0F87C4152
:1045B000D0F87C3140F30730FDF764FE012320463C
:1045C00085F88C30AB6770BDCBB29B0003F5807271
:1045D0007C2B04BF845083580131E4E76FF07700EF
:1045E000F1E700BFF08F000090F88D00024B03EB65
:1045F000800003F001BA00BFF401002010B5064BA3
:1046000090F88D000C4603EB800003F0DBF90028E6
:10461000A4BF2070002010BDF40100202DE9F04F50
:10462000814659F804BB90F88D40DBF804136B4BBE
:10463000C9B2804653F8342058468BB041F000414F
:1046400003F073FB051E36DA0023CDE90833634B14
:1046500008A803EBC4035B6819460193FFF736FF14
:10466000042303EBC40303935D4B0DF1200A029373
:104670000023029A009312F8013B58490292039AD0
:1046800002EBD3028A5C03F0070322FA03F3DA0792
:1046900019D4009B0AF1040A9BB14FF0004100229B
:1046A000584603F042FB019908A8FFF70FFF0028C6
:1046B000DAD125F000450124002D78D10BB0BDE8FA
:1046C000F08F0123D5E7009B464A13440493DAF8A0
:1046D00000100029DDD091FAA1F1B1FA81F1049B1B
:1046E0001C7841EA44142046FFF7E6FE08EB400040
:1046F000878AC808BB08059301231AF8002001F037
:10470000070103FA01F122EA01020AF8002007A8D2
:104710000794FFF7BFFE079A059B803250F82220CE
:10472000C7F382065B073746C2F3014223D54846EA
:10473000D6B221463A4603F09EFA07A80794FFF73F
:10474000A9FE079B803350F82330C3F301439E42F8
:1047500007D10021204603F05FFA3146204603F0DE
:104760005BFA07A80794FFF795FE0122079B02FA60
:1047700003F30362ABE7022A0DD10321204603F0C5
:104780004BFA06F00503012BEBD13A462146484689
:1047900003F071FAE5E702212046059203F03CFAA6
:1047A000032EF2D0059A032ADBD1022EECE795FA0C
:1047B000A5F3B3FA83F304FA03F225EA020503F53D
:1047C000A2725BF8222008EB43034846B3F87C1042
:1047D000C2F3014203F04FFA6EE700BFF08F000012
:1047E000D49A0000D49A0000036803F01F025B090A
:1047F000026004D0012B034818BF00207047024814
:10480000704700BF002884500025845002464B6941
:10481000274883424AD00FD8264A934246D009D827
:10482000254A934242D0254A93420CBF00206FF0A4
:1048300015007047224AF7E72248834236D004D851
:10484000214A934232D0214AEEE7214883422AD1BD
:1048500091F8230020B912681E4B9A4207D0704786
:1048600091F8240010BB12681A4B9A421FD10B68B2
:104870005A1C01D0082B16D14B685A1C01D0092BA9
:1048800011D18B685A1C01D00A2B0CD191F8213020
:1048900023B1CB685A1C01D00B2B04D1CB695A1C15
:1048A00004D00C2BC1E76FF0150070470020704753
:1048B00080841E0020A1070048E8010090D003007A
:1048C00040420F000024F40000093D0000127A006D
:1048D0000048E80100A0005037B51446421C0546C8
:1048E00018D0012902D1BBB103F061FC01A80195E8
:1048F000FFF77AFF019B0A4A00EB8300D0F80052D1
:10490000A30043EA41030B432A40134343F440739B
:10491000C0F8003203B030BD03F055FCE6E700BF3D
:10492000F0F0FCFF2DE9F84F91F8213007460C46D6
:10493000002B00F0968091F822806569674B9D42BC
:1049400000F0A88000F29880654B9D4200F0A580A1
:1049500000F28A80634B9D4200F0A280624B9D4230
:104960000CBF4FF080654FF0804594F8232097F8F6
:10497000223062F3000387F82230227CDBB262F33C
:10498000410387F8223094F823600EBB237E012177
:10499000012B94BF0023012332462068FFF79CFFC0
:1049A000334632466068FFF797FF33463146A27EB2
:1049B000A068FFF791FF0121237C3246E06883F075
:1049C0000103FFF789FF0B463246E069FFF784FFDA
:1049D00094F82130002B6CD04FF0FF337B6294F8B9
:1049E000211094F812E0207E627E00296BD0E668E8
:1049F000217C94F8249094F820C03B68B9F1000F12
:104A000012D1D4E900BAD4F80890E469C3F808B523
:104A1000C3F80CA5C3F81095C3F86C45C3F814652A
:104A2000C3F86815C3F86485003A18BF012202284C
:104A3000C3F8C0E5C3F8245548D0032849D001285D
:104A400001D142F00202C3F85425C3F860C57B6867
:104A5000002B41D03868BDE8F84F40F30730FDF730
:104A600011BC4FF0020868E7204B9D420CBF4FF08D
:104A700080554FF0804578E71D4B9D4213D01D4B6C
:104A80009D4213D01C4B9D420CBF4FF000454FF090
:104A900080456AE74FF0005567E74FF0006564E72F
:104AA0004FF0007561E74FF020655EE74FF0A055CD
:104AB0005BE7E3687B62227C97F8223062F3410374
:104AC00087F822308BE74FF0FF3692E742F004027E
:104AD000B9E742F00602B6E7BDE8F88F80841E0011
:104AE00020A1070048E8010090D0030040420F00D9
:104AF0000024F4000048E80100127A00431C07B5C6
:104B000012D040F21F1398420ED0019001A8FFF777
:104B10006BFE019B00EB8300D0F80022044B134096
:104B200043F00203C0F8003203B05DF804FB00BF9D
:104B3000F0F0FCFF38B50446006840F30730FDF79D
:104B4000AFFB636843B12146154A51F8043BC3F8F3
:104B50000823206803F043FB2368D3F80805D3F843
:104B60000C15D3F8105594F82230DB0714D4FFF756
:104B7000C5FF2846FFF7C2FF0846FFF7BFFF606A80
:104B8000FFF7BCFF2368D3F86C05D3F81415FFF7C3
:104B9000B5FF0846FFF7B2FF002384F8203038BD88
:104BA0005201080010B50446FCF71CFB0348012124
:104BB000034A02F0F0FA204603F045FCCC8C0000DA
:104BC000D69A00002DE9F84304460D4600AFEFF3F6
:104BD0001188202383F31288BFF36F8F0428294A9A
:104BE00098BF294BE9468AB09668117C98BF53F864
:104BF00020306A4688BF254BC2E9073140F20133B5
:104C000023489384234BC2E9050442F8103F002354
:104C10004FF431512048FCF7B5FBCD4645B1EB6967
:104C2000C3F3080323B101211C4A1B4802F0B3FA65
:104C30002EB1304603F09BFC08B1037803B9184845
:104C4000E9468AB06A46174BD061C2E9053640F2A0
:104C500001331384144B42F8103F00234FF41151D9
:104C60000D48FCF78FFB2946CD462046FFF79AFFFB
:104C700088F31188BFF36F8F3046FDF7A7FABD4662
:104C8000BDE8F8832011002000900000E59A0000A4
:104C9000FB9A000005000001CC8C0000239B000063
:104CA000F39A0000449B00000400000138B50A4B51
:104CB00053F82040013053F82050A54200D838BDA9
:104CC000606830B1037FDB0701D403F099FB08343F
:104CD000F3E723689847FAE714900000012270B5C3
:104CE0002A4B032086B01A70FFF7E0FFFDF742FE63
:104CF000FCF70CFE0420FFF7D9FF254C254D264676
:104D0000AE4204F1300410D300F0CEFC204C224E11
:104D1000AC4226D300F0DCFCFBF78CFB1F4A137B74
:104D200023F00103137306B070BD54F80C3C0593D7
:104D300054F8103C049354F8143C039354F8183C72
:104D4000029354F81C3C019354F8203C009354E91E
:104D50000A2354E90C0100F071FA54F8303C5E6506
:104D6000CDE7D4E90A23B3F1FF3F08BFB2F1FF3F1B
:104D700005D052EA0301206803D100F065FD30340C
:104D8000C6E73146183000F0FDFEF8E7501300206A
:104D9000488C0000488C000061860000D00800208C
:104DA000B02370B5144E86B003FB0066134B01228E
:104DB00005930F23CDE903320023CDE901331423FA
:104DC0004FF4A0720E4D0F4903FB0055044602FB41
:104DD00000110D4B3046009500F030FA737B2C74B7
:104DE00023F004037373094B013403EBC423EE6017
:104DF0006B6006B070BD00BF20080020A69B0000BD
:104E000020110020581E0020178500005816002091
:104E1000BFB50020FFF74AFF2A4B03F5006282F37B
:104E2000088883F30A880024E023274D274F85F85C
:104E30002230EC772C766C76AC7685F820406B6A65
:104E400043F4E0236B6285F82340FDF739F9FDF761
:104E5000BFFA4FF0FF33AB62EB62FDF75DFCFDF78D
:104E6000DBFAFCF71FF91A4800F07AFAFDF764FD47
:104E70000120FFF71BFF0220164DFFF717FF00F080
:104E80005BFC154B15495D61154B4FF48062059332
:104E900001232846CDE90343CDE901443B46009474
:104EA00000F0CCF906466A7B284622F004026A73B9
:104EB00003F099FB2046FFF773FF3A463146284638
:104EC000FDF764FA5816002000ED00E0DD4C00000C
:104ED00080090020D008002020110020981F002009
:104EE000AB9B0000002038B5054C064DAC4200D30A
:104EF00038BD204603F0AFFA0028F9DB1C34F5E793
:104F0000B0020020B002002073B50C46EFF311810F
:104F1000202585F31288BFF36F8FC5685DB12560CA
:104F20002B68C360836901338361002081F311889A
:104F3000BFF36F8F11E052EA030603D16FF00B004D
:104F40002560F3E7CDE900230246083000F0F2FACD
:104F500018B9034B9B681B69236002B070BD00BF8A
:104F6000201100202DE9F341044617461E46EFF3B9
:104F70001188202383F31288BFF36F8FC368334AED
:104F80007BB180689168884219D057EA060318D12E
:104F900088F31188BFF36F8F6FF00F0002B0BDE888
:104FA000F081916891F90E100133E36093682161FB
:104FB000A36088F31188BFF36F8F0020EEE72169AB
:104FC000F2E791F90E1090F90E306FF07E029942DF
:104FD000A8BF19469142B8BF11468B422DDD03F0A0
:104FE000A5FA054622464146CDE90076184800F06C
:104FF000A1FA0028E1D0EFF31186202383F3128871
:10500000BFF36F8FA068D0B1236821699C420AD09A
:105010004BB193F90E309942A8BF19466FF07E0349
:105020009942B8BF194603F081FA40B131460848A9
:1050300000F014FB6FF00A00B0E70025D2E7002D66
:10504000F4D186F31188BFF36F8FF3E720110020AE
:1050500051130020F8B583680546002B40D0234A41
:10506000926893423FD1C368012B03D9013BC360CF
:105070000020F8BDEFF31187202383F31288BFF3DC
:105080006F8F0169806803F051FA2C68AC4207D138
:105090000023C5E9023387F31188BFF36F8FE7E779
:1050A000002CF5D0D4E90032002613605A60637BEF
:1050B000C4E9006623F002036373A66004F11800DC
:1050C00003F026FBAC6094F90E3020462B61C4F847
:1050D000AC6003F088FA3946054800F0BFFAC7E72C
:1050E0006FF01500C5E74FF0FF30C2E72011002038
:1050F0005113002070B5EFF31186202383F312883B
:10510000BFF36F8F0468A0421BD0D4B1D4E9003242
:10511000002513605A60637BC4E9005523F0020345
:105120006373A56004F1180003F0F2FA2046C4F896
:10513000AC5003F058FA3146BDE87040064800F024
:105140008DBAD0E902329A4218BF0133836086F3E8
:105150001188BFF36F8F70BD5113002013B5EFF3AB
:105160001181202484F31288BFF36F8F846844B1C7
:10517000013C846081F31188BFF36F8F002002B07F
:1051800010BD52EA030406D181F31188BFF36F8F7B
:105190006FF00F00F3E7CDE900230246014800F06D
:1051A000C9F9ECE7511300202DE9F0410546EFF372
:1051B0001187202383F31288BFF36F8F00236FF0D2
:1051C0000A081E462C68A54216D0ACB1D4E90032BC
:1051D00013605A60637BC4E9006623F002036373C3
:1051E000A66004F1180003F093FA2046C4F8AC80DE
:1051F00003F0F9F90123E5E70022AA602BB1394653
:10520000BDE8F041044800F029BA87F31188BFF3E4
:105210006F8FBDE8F08100BF5113002010B5044628
:1052200008B9054B9C681F2204F1740003F0DBFAF7
:10523000002084F8930010BD201100202DE9F04FCC
:10524000984685B000F15803C0E91633129B00253B
:1052500003730423D61D26F007064373119B01EB4D
:10526000060A0F46C0E90655514685608373C5732B
:105270000446DDF838B0DDF84C90FCF7DBFC109B01
:10528000073020F00700C4E92576C4F89C0002939B
:105290000F9BAAEB0006CDE900B3324643463946E0
:1052A0002046FDF757F80F9BC4E9188BA366109BA7
:1052B0006565E366EFF31183202282F31288BFF362
:1052C0006F8F104F3A6A3C62226783F31188BFF3F5
:1052D0006F8FB9F1000F11D01F22494604F17400FD
:1052E00003F081FA84F89350BB680BB1D3F8A03077
:1052F0003046C4F8A03005B0BDE8F08F84F8749053
:10530000F2E700BF20110020F0B5002587B0059519
:10531000109DDDE9127604950F9D044603950E9DC0
:1053200002950D9D01950C9D0095FFF787FFB6F145
:10533000FF3F08BFB7F1FF3F05D056EA070305D18D
:10534000204600F081FA204607B0F0BD3A463346C9
:1053500004F11800014900F015FCF4E76186000033
:1053600040F2011383810023C0E92533C0F8A03047
:10537000014B9860704700BF201100206FF00A01B8
:10538000094A9368C3F8AC100849C3F8A8004B68F1
:1053900043F080534B60002383F31188BFF36F8F7A
:1053A0009368D3F8AC0070472011002000ED00E0B6
:1053B00070B590F90D20437B002A36DBD90634D135
:1053C0001B4C63F07F032246437352F8183FE16998
:1053D000934207D1C0E900210860E06111E09942E1
:1053E000F8D01B68002BF5D090F90E5093F90E60A1
:1053F000B542F4D0AE42F2DD5968C0E90031086030
:105400005860A569954200D005B9E568A3685A7B44
:10541000D20604D1DA897F2A01D9AA6932B1AB4216
:1054200002D0284600F00AFB656170BD6361FCE7AD
:105430002011002038B590F90D200146002A437B49
:1054400004DA03F07F03437303F093F80D4D2A460B
:1054500052F8184FAB68944200D004B9EC688B4204
:1054600007D05A7BD20604D1DA897F2A01D9A269F2
:105470002AB1A34202D0204600F0E0FA23466B6135
:1054800038BD00BF20110020B3F1FF3F08BFB2F1CB
:10549000FF3F03D00249183000F074BB704700BFD3
:1054A0006186000070B590F90D200146002A437B0B
:1054B00004DA03F07F03437303F05BF81C4C4B7B6F
:1054C000224663F07F034B7352F8183FE069934222
:1054D00007D1C1E900200160E16111E09842F8D0F4
:1054E0001B68002BF5D091F90E5093F90E60B54270
:1054F000F4D0AE42F2DD5868C1E900300160596075
:10550000A569A368954200D005B9E5688B4207D02C
:105510005A7BD20604D1DA897F2A01D9AA692AB135
:10552000AB4202D0284600F089FA2B46636170BD79
:1055300020110020F8B5DDE906670D4B0C46986890
:1055400011460C4A1060EFF31182202282F3128878
:10555000BFF36F8F9D68284603F01DF8284632463A
:105560003B46FFF791FF2046BDE8F840FFF706BF36
:105570002011002044110020F8B50446EFF31187F4
:10558000202383F31288BFF36F8F437B49B203F06C
:105590001F02002A0CBF0126002639D103F07F0329
:1055A0002D4D437302F0E5FF2A46437B817363F080
:1055B0007F03437352F8183F934227D1E869C4E947
:1055C00000200460EC610FE09842F8D01B68002BCB
:1055D000F5D093F90EC06145F6D08C45F4DD5968DD
:1055E000C4E900310C605C60AC69944200D004B93D
:1055F000EC68AB689C4202D0204600F01FFA6C6158
:1056000087F31188BFF36F8F3046F8BDE869DEE796
:105610009B071ED5856802F0ACFF81732B689D4205
:1056200009D16B68C4E900531C606C60E8E76A68E4
:105630009342F6D01B68002BF3D093F90E209142D1
:10564000F5D08A42F3DD5A68C4E9003214605C6028
:10565000D6E78173D4E700BF2011002049B9EFF3EA
:10566000058030B9054B5A699B689A4201D0FFF713
:1056700085BE81F31188BFF36F8F70472011002022
:10568000034648B9EFF3058232B9064A5169926878
:10569000914201D0FFF772BE83F31188BFF36F8F81
:1056A000704700BF20110020EFF31181202383F306
:1056B0001288BFF36F8F054B9A68D37B013BD3737E
:1056C00081F31188BFF36F8F704700BF2011002056
:1056D00070B5EFF31186202383F31288BFF36F8F29
:1056E000144DAB68DA7B0132DA732A4652F8184F50
:1056F000944200D004B9EC685A7BD20604D1DA890E
:105700007F2A01D9A2692AB1A34202D0204600F023
:1057100095F923466B6186F31188BFF36F8FEFF322
:105720001180202383F31288BFF36F8FBDE8704090
:10573000FFF7A6BF20110020024B03F11802C3E9B6
:10574000062270472011002070B5EFF31186202348
:1057500083F31288BFF36F8F1B4CA168E0690B685D
:10576000814214BF1A46002249680B605960A36841
:10577000E1692AB9154AC3E900210B60E3610CE035
:1057800093F90E0092F90E50A84218D0854216DD0A
:105790005168C3E900210B605360A5690B4B9D4222
:1057A00000D005B9E568A3689D4202D0284600F004
:1057B00045F965613046BDE87040FFF7DFBD8A42BC
:1057C000D8D01268D5E700BF201100203811002082
:1057D000F8B550EA010306460C4603D1FFF7B4FFC3
:1057E0000020F8BDEFF31187202383F31288BFF365
:1057F0006F8F124D124BA8681860FFF71BFEA86848
:10580000234632460F49183000F0BCF9AA68044616
:10581000537B384643F004035373FFF7AFFDAB6887
:10582000D3E90A23B3F1004F08BF002AD8D102F010
:1058300097FF201A20EAE070D3E700BF2011002074
:10584000441100206186000038B50446EFF311854D
:10585000202383F31288BFF36F8F437B5B070FD541
:10586000183002F055FF637B204623F00403637376
:10587000FFF79EFD2946BDE838400448FFF7EEBE1D
:1058800085F31188BFF36F8F38BD00BF511300201F
:10589000014B9868704700BF201100202DE9F843A4
:1058A0000446077BEFF31185202383F31288BFF3AF
:1058B0006F8F437B190705D585F31188BFF36F8F71
:1058C000BDE8F883D90943F0080260D14273A368A8
:1058D00013B1204602F055FE04F1180002F018FF43
:1058E000A66D04F15808B04511D04FF0000976B10B
:1058F000304602F046FE06F1180002F009FF30467D
:10590000C6F8AC90FFF754FDA66DB045EFD1DFF8B7
:10591000C480D8F808309C4241D1EFF30589B9F131
:10592000000918BF4FF00109D8F818602A4A9642BA
:1059300000D00EB9D8F80C60B34202D0304600F067
:105940007DF82046C8F8146001F003FD204600F001
:10595000CDF8B9F1000F02D02048FFF701FDD8F8CB
:1059600008309C4231D1EFF3058373BB227BD20711
:1059700018D42846FFF702FDFB07A1D5002383F3C7
:105980001188BFF36F8F0423184602DF98E703F0F6
:105990007F0343F00803437302F0EBFD97E74FF0FA
:1059A0000009C1E785F31188BFF36F8F83F3118876
:1059B000BFF36F8F0423184602DFEFF3118020231B
:1059C00083F31288BFF36F8FD4E785F31188BFF399
:1059D0006F8FD1E7201100203811002080090020AE
:1059E0000122044BC01A044BC0105843034B1A54F5
:1059F000704700BF300A0020ABAAAAAA51130020AA
:105A0000C3897F2B12D80A4B1B6863B1094B90F9ED
:105A10000E201B689A4209DB437BDB0606D1064B4E
:105A2000C31A18BF012303F0010070470023FAE7EF
:105A3000FC010020481100202008002070B50E4B0A
:105A40000E4C1E7C054606EB460304EBC3042046C1
:105A500002F05EFE00220A4B28469A55FFF7D0FF5F
:105A600048B1084B2046BDE870401A680649013A23
:105A7000D31700F087B870BD20110020300A002035
:105A800051130020FC010020E159000038B5EFF36C
:105A90001185202383F31288BFF36F8F104B114AB7
:105AA0009C681068A04206D1FFF7C8FF85F31188F3
:105AB000BFF36F8F38BD00211B7C11600A4AD35C95
:105AC000002BF3D02046FFF79BFF0028EED0637B2E
:105AD000DB0602D12046FFF7E5FC2046E4E700BFE5
