:10000000203B00206D110000335500005911000005
:100010005911000059110000591100005911000038
:10002000000000000000000000000000D9120000E5
:100030005911000000000000711200005911000069
:100040006D1400006D1400006D1400006D140000AC
:100050006D1400006D1400006D1400006D1400009C
:100060006D1400006D1400006D1400006D1400008C
:100070006D1400006D1400006D1400006D1400007C
:100080006D1400006D1400006D1400006D1400006C
:100090006D1400006D1400006D1400006D1400005C
:1000A0006D1400006D1400006D1400006D1400004C
:1000B0006D1400006D1400006D1400006D1400003C
:1000C0006D1400006D1400006D1400006D1400002C
:1000D0006D1400006D1400006D1400006D1400001C
:1000E0006D1400006D1400006D1400006D1400000C
:1000F0006D1400006D1400006D1400006D140000FC
:100100006D1400006D1400006D1400006D140000EB
:100110006D1400006D1400006D1400006D140000DB
:100120006D1400006D1400006D1400006D140000CB
:100130006D1400006D1400006D1400006D140000BB
:100140006D1400006D1400006D1400006D140000AB
:100150006D14000053B94AB9002908BF00281CBF1C
:100160004FF0FF314FF0FF3000F00CB8ADF1080C4C
:100170006DE904CE00F008F8DDF804E0DDE90223C3
:1001800004B07047704700BF2DE9F04786468C46A3
:100190000846089E154674461946002B40F0C1805B
:1001A0008542B2FA82F245D94AB1C2F1200300FA7F
:1001B00002FC954094402EFA03F343EA0C0C4FEAFC
:1001C000154EA8B2230CBCFBFEF80EFB18CC08FBA6
:1001D00000F943EA0C43994528D9EB1808F1FF3799
:1001E00004D2994502D9A8F102072B44A3EB0903D5
:1001F000A4B2B3FBFEFC0EFB1C330CFB00F044EA84
:100200000344A04214D92C190CF1FF3304D2A042AC
:1002100002D9ACF102032C44241A43EA07401EB170
:10022000D440002334607360BDE8F0874746DDE7C3
:100230006346F1E792BB431B01214FEA154EAFB273
:10024000200CB3FBFEFC0EFB1C330CFB07F840EA52
:100250000343984561D9EB180CF1FF3004D298455F
:1002600002D9ACF102002B44A3EB0803A4B2B3FB08
:10027000FEFC0EFB1C330CFB07F744EA0344A742C9
:100280004DD92C190CF1FF3304D2A74202D9ACF19D
:1002900002032C44E41B43EA0040C0E7C2F1200300
:1002A0009540944020FA03F12EFA03F34FEA154EDD
:1002B0009040AFB20343B1FBFEFC0EFB1C10190CC7
:1002C0000CFB07F841EA0041884522D969180CF176
:1002D000FF3004D2884502D9ACF102002944A1EBD9
:1002E00008019BB2B1FBFEFC0EFB1C110CFB07F7D7
:1002F00043EA01439F420ED9EB180CF1FF3104D2BF
:100300009F4202D9ACF102012B44DB1B41EA0041C0
:1003100093E76046E3E76146F7E76046A4E7634694
:10032000B8E7834206D916B9002108467CE7C6E93A
:1003300000E0F9E7B3FA83F78FB9834201D372453E
:1003400008D8BEEB020460EB030301209C461EB9F3
:10035000002169E73846FAE7C6E9004CF8E7C7F13B
:10036000200CBB400EFA07F522FA0CF42EFA0CF121
:10037000BA401C4320FA0CF3B8404FEA1449014339
:100380001FFA84FEB3FBF9F809FB18300B0C08FBCD
:100390000EFA43EA00439A4540D9E31808F1FF30CA
:1003A00004D29A4502D9A8F102002344A3EB0A0320
:1003B00089B2B3FBF9F809FB183308FB0EFE41EADA
:1003C00003418E452CD9611808F1FF3304D28E45C4
:1003D00002D9A8F10203214443EA0040A1EB0E0137
:1003E000A0FB02984145CE46434602D306D14D4577
:1003F00004D20138B9EB020E68EB0403002EA7D03B
:10040000B5EB0E0261EB030101FA0CFC22FA07F3D3
:10041000F9404CEA0303C6E9003199E74046C5E7D5
:100420004346D9E708B5174804F095FF00F08EF968
:1004300018BB154804F08FFF00F04AF9322004F091
:1004400028FE00F04DF9322004F023FE0F4804F09E
:1004500082FF00F0E3F84FF4806000F0BDF840F256
:10046000044000F0B9F80A4800F00CF9094B186094
:100470004FF4FA6004F00DFEFAE7074804F06BFF52
:10048000002008BD78750000AF750000CB75000036
:10049000FC080020F80800208C75000030B50A4BDD
:1004A000C0F38700D3E9032400239A4202D16FF0FE
:1004B000060005E014F82350854202D100200B60AD
:1004C00030BD0133F1E700BF0009002010B50D4B2E
:1004D000DC685A6922445C6894420ED91A69800823
:1004E000141F1C6102F8040C1A69106861F31F20C4
:1004F00010605A6901325A6110BD6FF003029A61AF
:10050000FAE700BF0009002010B5094BD9685A6905
:100510005C680A44944295BF6FF003029A689A613E
:1005200042F8210082BFDA680132DA6010BD00BFF4
:1005300000090020F7B5274F04463B780E46012BF3
:1005400026D1B0F5085F04D36FF00403BB6103B09C
:10055000F0BD01A9FFF7A2FFA50505F0FE4526F0B5
:100560007F431D4345F0004568B9019A3B6953F844
:10057000221066F31F2143F82210284603B0BDE87D
:10058000F040FFF7C1BF31462046FFF79FFFF4E779
:1005900000F08EF8202004F0AAFD204604F089FD2A
:1005A00000F08EF800F084F82D2004F0A0FD42F257
:1005B0001403A4F58054A4B29C4207D8304604F03A
:1005C00088FD03B0BDE8F04000F07AB8B0B204F0A6
:1005D00070FDF6E70009002037B50F4D04462B7873
:1005E000012B14D101A9FFF759FF48B1204604F0AF
:1005F00089FD01462046FFF769FF084603B030BD7C
:100600002B69019A53F82210C1F31721F5E703B0C3
:10061000BDE8304004F076BD0009002030B500246C
:100620009DB070221449684606F098FA134B6D4647
:10063000C3E90544DC601C7000F042F86968288852
:100640000134FFF777FF0E2C05F10805F6D140F2D3
:100650000440FFF7C1FFA0F5AA43013B012B04D8DA
:100660000122074B1A701DB030BDB0F5AA4FFAD168
:100670000022034BF6E700BF1C71000000090020B8
:10068000B411002018B1034B0360002070476FF0D5
:10069000010070470000002010B4134682681468FF
:1006A0000A46A446014910BC604700BF987200008A
:1006B00000220C21014804F05BBD00BF086D000062
:1006C00001220C21014804F053BD00BF086D000059
:1006D00000220721014804F04BBD00BF286D000037
:1006E00001220721014804F043BD00BF286D00002E
:1006F000012310B588B01446CDE90002059204AA82
:10070000CDE90331CDE90623CDF808D070B159B158
:1007100006AA02A90A48FFF7BFFF70B101462246A8
:10072000084804F018FE08E00A46F2E711B1014655
:1007300006AAEFE7044804F00EFE08B010BD00BFA3
:10074000686D000005760000DF75000008B51048F0
:1007500006F09AF828B90F4804F0FDFD4FF0FF307D
:1007600008BD0D4806F090F808B90C48F4E70C48AD
:1007700006F08AF808B90B48EEE70C21084804F0A7
:10078000E8FC0548072104F0E4FC0020E8E700BF8E
:10079000686D000020760000286D00002F760000B4
:1007A000086D00003F760000014B1B68184700BF32
:1007B000F0030020014B1860704700BFF0030020D9
:1007C00030B585B004460D4610220021684606F07B
:1007D000D2F902238DF80230044B2A46214668469E
:1007E000019304F0FBF905B030BD00BFA90700007C
:1007F00080B505460E461746984603F0DDFD0346D4
:1008000006F034FA0446DFF81890424649F8003002
:1008100039463046A84754F8090000F013FD00BFE0
:10082000080000002DE9F047058B04462807904694
:1008300011D4022905F0070540F0CC80204604F0D1
:1008400097FD78B10138218B042811D8DFE800F03A
:10085000C2106D85950001290CBF45F0100545F0CB
:100860002005258388F31188BFF36F8FBDE8F087DB
:1008700001F0070AAA4500F0A5800027B9463E46C8
:10088000A368002B00F0BC8041F00801218388F3AD
:100890001188BFF36F8FA168002900F0BA800D683E
:1008A000002900F0B680334652462046D1F8048035
:1008B000C047002D76D02B6829461D46F0E701F091
:1008C00007035A1F012A1BD8002221F00701062B1B
:1008D000276889B2C4E9002209D13B4603E0628B54
:1008E000013262831B68002BF9D141F002012046DE
:1008F000218304F03DFD00287AD041F0200176E00C
:10090000042B0AD121F0070189B22046218304F08B
:100910002FFD10B141F020012183218B01F0070A46
:10092000AA454FD00027B946AAE7236921F007015D
:1009300041F00601062DD3F8009021832DD1B9F1A5
:10094000000F3FD041F00801218388F31188BFF3E5
:100950006F8F20463949C84729E021F007012369F4
:1009600041F0040189B2042DD3F804902183E6D02C
:1009700000274FF0040A3E4682E721F00701236971
:1009800041F0050189B2052DD3F808902183D6D016
:1009900000274FF0050A3E4672E700274FF0060A8F
:1009A0003E466DE72B4687E7B9F1000FD1D1EFF353
:1009B0001188202383F31288BFF36F8F238B23F0DA
:1009C00008032383258BEA062ED525F01003238305
:1009D00005F007056669218B002EBFF670AF002376
:1009E0002768C4E9003321F0070141F001012183A8
:1009F000218B4FF0000901F0070AAA457FF440AFB0
:100A0000002F9CD041F00801218388F31188BFF3A7
:100A10006F8F002FC8D03D68394633465246204676
:100A200004F0D2FC2F46F4E7AB067FF51BAF25F0B0
:100A30002003238305F0070500E700BFF5530000FE
:100A4000014B036000207047AC72000008B50448F9
:100A500004F081FCBDE80840024804F07CBC00BF03
:100A60004F76000084760000014803F075BF00BF98
:100A7000AC72000038B5044618B90F4B0F485B68DC
:100A800098476168B1F5683F10D0B1F5680F0DD097
:100A90000B4DA9420AD011F46861206807D00146C5
:100AA000084805F02FFF00232360656038BD14223D
:100AB00006F061F8F9E700BFEC050020B27600000F
:100AC0002C5F5CA91C0E002008B560B34368B3F529
:100AD000683F0ED0B3F5680F18D0144A934220D067
:100AE00000684FF0FF324FF0FF3303F00BF858B1BE
:100AF00015E001220368D3E8EF1F002903D1C3E802
:100B0000E02F0028F7D10AD1002008BD0368084A69
:100B10001B7803F5807352F82330002BF4D005487E
:100B2000F3E70548F1E76FF4E040EEE72C5F5CA9DE
:100B300000000350E98FFFFFEA8FFFFF08B520B3E5
:100B40004368B3F5683F09D0B3F5680F13D0114A75
:100B500093421DD0006803F04DF814E000220368B2
:100B6000D3E8EF1F012903D1C3E8E02F0028F7D114
:100B700009D0094808BD00210368084A1B7803F51D
:100B8000807342F823100020F4E76FF4E040F1E7AF
:100B90000348EFE72C5F5CA9E98FFFFF00000350DB
:100BA000EA8FFFFF10B5044618B91D4B1D485B685E
:100BB00098476368B3F5683F2FD0B3F5680F2CD022
:100BC000194A934219D1236803BB4FF0FF324FF00B
:100BD000FF332146154802F067FF08B923681BB9A7
:100BE0000F4B13485B68984714220021206805F0DA
:100BF000C2FF4FF46863636008E0B3F5683F0DD847
:100C00003A2B03D040F6BA629342DED1206805F059
:100C1000C4FE636843F03A03636010BD054AF3E71E
:100C2000EC050020B27600002C5F5CA91C0E0020B1
:100C3000D87600003A00003A08B50649402314224D
:100C4000054805F051FEBDE808400449044803F09A
:100C5000F5BE00BF1C0900201C0E0020B47200006D
:100C6000C872000008B50348034A0021121A04F0B4
:100C700058FC08BDA8060020DC110020074808B574
:100C8000074A0849121A04F04EFCBDE8084006481D
:100C9000064A0749121A04F046BC00BF00000020B3
:100CA000A8060020D47B00000000002000000020E7
:100CB000D47B000038B505460C4699B1D1E9012333
:100CC0000F48096804F047FBD4E90423E1680D48A4
:100CD00004F041FBE1690C4804F03DFBA1690B48BD
:100CE00004F039FB012D05D1EFF3058108481039D7
:100CF00004F031FB21462846BDE8384002F090BDA3
:100D000005770000357700006577000075770000F3
:100D1000A477000030BFFFF7FDBF00BF2DE9F04111
:100D200005460B4EDFF82C80324606EB0807CC1B3D
:100D30002046094905F012FFA01942460021083C4F
:100D400005F019FFC5F8A44007F10800BDE8F081DF
:100D5000000000000400000068700000054B5A69A4
:100D60009B689A421FBF044A536843F08053536004
:100D7000704700BFAC0F002000ED00E010B5204C24
:100D8000204804F0E8FAA36A990137D51E4804F018
:100D9000E2FA1E20A36ADA0103D51C4804F0DBFA4C
:100DA0001F20174CA36ADB0203D5194804F0D3FABD
:100DB0000220A36A1C0303D5164804F0CCFA2120B4
:100DC0000F4CA36A590303D5134804F0C4FA222038
:100DD000A36A9A0303D5114804F0BDFA2320084CF6
:100DE000A36ADB0303D50E4804F0B5FA2420A36AF6
:100DF0006FEA03436FEA1343A36210BD1D20C9E7E6
:100E000000ED00E0B8770000D1770000E577000042
:100E1000007800002B7800004A780000707800000D
:100E20008B78000070B5244C064624480D4604F02B
:100E300092FAA36AD90435D5214804F08CFA172018
:100E4000A36A1A0503D51F4804F085FA18201A4C26
:100E5000A36A9B050FD51C4804F07DFAA16BA36A19
:100E6000180407D5194804F076FA1EB1A36A23F4D2
:100E70000043A3621920104CA36A590503D51448F6
:100E800004F069FA1A20A36ADA050DD5114804F0B6
:100E900062FA1B20084A936A43F47F43936200235B
:100EA0002B7070BD1620CBE7A36A9B04F2D50A48CD
:100EB00004F051FA1C20EDE700ED00E0B7780000E7
:100EC000CE780000E0780000F47800000E79000091
:100ED00024790000407900005979000070B5264C53
:100EE000064626480D4604F036FAA36AD80640D5D1
:100EF000234804F030FA1120A36A190703D52148CA
:100F000004F029FA12201C4CA36A9A070FD51E4838
:100F100004F021FA616BA36A1B0607D51B4804F095
:100F20001AFA1EB1A36A23F08003A3621320124CA5
:100F3000A36ADE0703D5164804F00DFA1420A36A4D
:100F40009C0603D5134804F006FA15200A4B9A6A4A
:100F5000D10658BF9A6A9A6A920642BF5A6A22F428
:100F600000525A629A6A42F0FF029A6200232B7082
:100F700070BD1020C0E700BF00ED00E089790000DF
:100F8000A0790000E0780000D4790000ED7900003D
:100F9000047A0000597900002DE9F0415B4B0446CA
:100FA0005F6800258AB0C7F3080685F31188BFF390
:100FB0006F8F02F07F43B3F17F4F06D102F00C0335
:100FC000082B13D1524804F0C6F900252C464FF0E7
:100FD0000008F31E8DF80780092B00F28580DFE8FA
:100FE00003F00A797D7583838383838110074CBF67
:100FF0000C460125EBE74748444E04F0ACF98DF868
:101000000780F36A9A0704D5434804F0A4F9002343
:101010002FE0F36A002B01DA4048F6E7F36A5B0041
:10102000F5D53F4804F097F97369A26943F48073DA
:101030007361BFF34F8FBFF36F8F736932F8022C68
:1010400023F480737361BFF34F8FBFF36F8F4DF63F
:1010500002739A4208D0B36ADBB24BB301200DF1A0
:101060000701FFF73BFF33E021682E4804F073F9D6
:1010700023689DF80720C2B902AE04F1200732466A
:1010800020686168083403C2BC421646F7D1099A49
:10109000B5B3C2F3080121B96FEA52226FEA4222C6
:1010A0000992184602A9FFF705FE0AB0BDE8F081D3
:1010B000B36A13F47F4F05D001200DF10701FFF74C
:1010C000B1FE05E0B36AB3F5803FA0D3FFF756FE4B
:1010D0000346CEE700200DF10701C2E700200DF125
:1010E0000701ECE7104890E7104B17F4F87F104920
:1010F000104818BF1946A6F1100204F02CF986E733
:1011000022F4FF7222F00102CAE700BF00ED00E006
:10111000527A00007E7A0000967A0000B87A0000C9
:10112000C77A0000E77A0000047B0000397A0000EB
:10113000247A0000297B0000064B5A6942F0100215
:101140005A615A6942F480625A615A6922F008026F
:101150005A61704700ED00E0EFF30880EFF309817A
:1011600001B57246FFF718FF01BD00BF002080F3F4
:101170001488BFF36F8F002080F30A8880F30B88F8
:10118000104880F3088800200F49087001F004FD22
:1011900000200E490860BFF34F8F00F02DF820208B
:1011A00080F311880A484FF40061401880F30988E1
:1011B000EFF314800221084380F31488BFF36F8F8C
:1011C00000F0F0F8203B0020DA11002094ED00E060
:1011D000E0110020002318460649D1F89020C2F300
:1011E0000722934200DB7047C1F89830C1F8A00095
:1011F0000133F6E700ED00E010B572B6002484F389
:101200001388FFF7E7FF23464FF0FF300C4A03F146
:1012100020010133102B42F82100F8D100234FF0B8
:10122000FF30074A03F160010133102B42F821001F
:10123000F8D162B6BFF34F8FBFF36F8F10BD00BF01
:1012400000E100E0084B9B6883420BD1EFF305837C
:1012500043B1064B5A6842F080525A605A6A22F4EF
:1012600000425A6203F0AEB8AC0F002000ED00E07F
:1012700016498A684FF030001044EFF3098C80E87B
:10128000F01F202080F31288BFF36F8F104F4FF0B4
:1012900000664A698A603E60D2F8A4000D4C206066
:1012A000D2F8A8000023C2F8A83080F3118802F118
:1012B000300090E8F01F8CF3098802F1000004B5BB
:1012C00004F042F9BDE8044070470000AC0F002074
:1012D00004ED00E0380E00201EF0040F0CBFEFF309
:1012E0000880EFF30980816911F8021C0229FFD000
:1012F00001B5724604F019F901BD00BF40B20028E3
:1013000007DB01234109034A00F01F00834042F834
:101310002130704700E100E040B200280CDB0122E0
:101320000649430900F01F008240203341F8232082
:10133000BFF34F8FBFF36F8F704700BF00E100E036
:10134000054B420953F82220012300F01F0003FA45
:1013500000F01040704700BF00E100E040B20028FC
:1013600001F10101ACBF00F16040064B4FEA4111B1
:10137000C9B2ABBF00F5614000F00F0080F8001368
:101380001954704714ED00E0044B054A23F07F0325
:101390009360BFF34F8FBFF36F8F70470000000063
:1013A00000ED00E008B5FFF7EFFF074AD2F88830FC
:1013B00023F47003C2F88830FFF754FCFFF75EFC9B
:1013C00000F048F802F0F6FA00ED00E042F8203CA8
:1013D000009B0B4942F81C3C019B21F0010142F8A3
:1013E000183C029B42F8081C42F8143C4FF08073F2
:1013F00042F8043C0023203A0265C0F8A830704748
:10140000F107000000B50E4B15469860D0F8A420F7
:101410000C4B0E461A60D0F8943083F30B882C46A0
:1014200086F309880020044B9847204600210022BB
:101430000023024C2047000059550000F10700002E
:10144000AC0F0020380E00201022014B1A617047AB
:1014500000ED00E0002320210348C2180133452B92
:1014600082F80013F9D1704700E100E008B5EFF30E
:101470000583064A103B02EBC30152F8330049686A
:101480008847BDE80840FFF769BC00BFA86D0000B1
:101490001FB5094C094A23460121094800F0FAF812
:1014A00000230393074B0121E41A01A8019302943E
:1014B00000F0FAF804B010BD000007200000002082
:1014C000D8720000A806002010B50C7A0B6804F052
:1014D0001F0223F01F031A43CB68640923F01F0384
:1014E000054943EA440343F00103C1F89800C1F8F9
:1014F0009C20C1F8A03010BD00ED00E010B5074BF6
:10150000D3F89030C3F30723013B984202D8FFF78A
:10151000DBFF10BD6FF01500FBE700BF00ED00E042
:101520002DE9F04F0F46144606464FF000084D4D8A
:1015300085B0B84580F29280D6F80490B9F1000FDA
:1015400036D0B9F11F0F40F2878019F01F0F40F01D
:101550008380D6F800A01AF01F0F7DD1504604F00A
:1015600037F8834609EB0A00013804F031F8834567
:1015700072D11BF1160F6FD05C456DDDC5F898B0C8
:10158000D5F89C10C5F898B0D5F8A03021F01F010F
:1015900043F01F0AD6E900321A44994202F1FF399A
:1015A0001ED1CA4508D131465FFA8BF004F019F814
:1015B00008F101080C36BCE73146C5F898B0D5F8FB
:1015C0009C3022F01F0203F01F031343C5F89C3028
:1015D000E0B204F006F810F1160F3DD0441CE7E726
:1015E000C5F898B0D5F8A020013B23F01F0302F006
:1015F0001F021343CA453146E0B2C5F8A030E8D017
:1016000003F0EFFF10F1160F26D0C5F898B0D5F80B
:101610009C209DF808300AF1FF3A62F304038DF82C
:101620000830D5F8A0309DF808205B0863F3471216
:101630008DF80820D6E900321344009323F01F03ED
:101640005344A3EB0903013023F01F036946C0B2E2
:101650000393FFF753FFBEE76FF01504204605B074
:10166000BDE8F08F00ED00E00522044BC3F89420A4
:10167000BFF34F8FBFF36F8F704700BF00ED00E0E7
:10168000BFF35F8F0022024BC3F89420704700BF66
:1016900000ED00E010B5034C2278FFF741FF207009
:1016A00010BD00BFB51100202DE9F74F294D8A4626
:1016B00006464FF00008AB46274FD0451BDAD6F858
:1016C0000490B9F1000F3FD031680846019103F052
:1016D0007FFF0199044609EB0100013803F078FF10
:1016E00084424FF014021D4B08D002FB08F36FF048
:1016F00015024BF8032003B0BDE8F08F14F1160F6C
:101700002C60F8D01978A142F5DD02FB08B0C7F8CB
:101710009840C7F89840D7F89C4000F10801007B3A
:1017200064F304000871D7F8A0000C79400860F356
:1017300047140C71D7F89C1021F01F016960D7F88D
:10174000A01021F01F01296108F1010814350C36A1
:10175000B3E700BF3C0E002000ED00E0B511002013
:10176000F0B54149414CD1F890302568C3F30723C7
:101770009D4287B075D80020FFF782FF3C4BC1F82F
:10178000C030854216D13B4C01A82570FFF758F9AF
:1017900000250646384FAE4213D100202378324947
:1017A000D1F89020C2F30722934254DBFFF75CFF8D
:1017B00000202FE0616801EB0011FFF785FE01308A
:1017C000DFE70199280101EB0513DA683A40B2F529
:1017D000001F21D0B2F5800F2BD0B2F5801F38D179
:1017E0005A689B680958013B22F01F0003440120FE
:1017F000844623F01F0340EA4C10CDE902218DF806
:10180000100002A920780593FFF778FE00281DDA62
:101810006FF0150007B0F0BD5A689B680958013B8E
:1018200022F01F0003444FF0020C012023F01F039D
:10183000E1E75A689B680958013B22F01F00034406
:101840004FF0000C062023F01F03D4E72378013368
:10185000237001359FE7C1F89830C1F8A00001332B
:101860009EE74FF0FF30D5E700ED00E0E4720000A6
:10187000AAFF4400B51100200000F0FF08B5024B9C
:101880001B689847002008BD500E0020034B044AF7
:101890001860937843F0020393707047500E002055
:1018A0001404002008B50649064821F00701C1F1DB
:1018B000005202F5E02203F0F4FC002008BD00BF56
:1018C000273B0020540E0020054B03EB8000D0F88E
:1018D000003223F0E04343F04053C0F80032704739
:1018E00000258450052370B5144D154E2C78013415
:1018F000B4FBF3F303EB8303E41A04F07BFA114A1D
:10190000137823B156F82430C01A072814D94FF0A1
:101910005023D3F8141141B10021C3F81411D3F8A6
:1019200014312C700CB9012313702C7804F062FA76
:1019300046F82400012070BD0020FCE7B71100200C
:10194000600E0020B6110020012208B50B4B0C4997
:10195000C3F8002502230020C1F8D036FFF7B4FFFA
:101960001046FFF7B1FFC1F80427C1F80429C1F8F8
:10197000002BBDE8084000F099B800BF00100050EF
:101980000040005007B54FF480620B4B0B49C3F881
:10199000B8254FF400620A48C3F83C250DF1070250
:1019A00004F06FFA002803DB9DF8070001F0EAF964
:1019B00003B05DF804FB00BF00A002502CA0025051
:1019C00028A1025048B1054B054A1B68B3FBF2F34E
:1019D0005843044B43F0010318477047D4050020D7
:1019E00040420F0090720000002170B5104C114D64
:1019F000114E000714F8013B03F01F025B090FD0E2
:101A0000012B0FD1334603EB8203D3F800220131BF
:101A100022F0E04202430429C3F80022EAD170BD5B
:101A20002B46F0E70023803253F82230FFDE00BF60
:101A3000507B000000258450002884502DE9F0419F
:101A4000064601200D46FFF7CFFF4FF47F03D3F882
:101A50003021D3F83431072A20D1023B032B02D89E
:101A6000114AD35CD3B14FF050244FF00108002746
:101A70000520C4F81886C4F8147604F0CDF9404661
:101A8000C4F8148604F0C8F9C4F81476C4F81876BB
:101A900030462B46BDE8F041002118474FF0502357
:101AA0000022C3F81426F3E74C7B000001490248EA
:101AB00003F0ADBC0C730000740E002008B54FF0AD
:101AC000FF323F230348C0E9002301F047F900201B
:101AD00008BD00BF900E0020084B70B5C31A0D461C
:101AE00007499B10044659434022064803F0B1FDC4
:101AF0002B4601462046BDE870401847AC0E00203A
:101B0000B76DDBB6E86C0000402373B50B4C009357
:101B1000041B0B460D460A49A41061430646094AB8
:101B2000094803F0C2FD011E05DA30462B4602B01B
:101B3000BDE87040184702B070BD00BFAC0E002079
:101B4000B76DDBB615570000E86C00002DE9F047D3
:101B50000022012107460520FFF700FC124801F092
:101B600031F90446D0B901F061F925464FF01C0A5D
:101B70004FF00C08DFF834903E6949460AFB0560D7
:101B800003F045FC031E0CDB012308FB05661D4426
:101B9000042DB367F0D12046BDE8F0876FF0040450
:101BA000F9E71C46F7E700BFDD1C000018730000D2
:101BB0001FB500220123CDE902236B46084ACDF868
:101BC00000D0CDF804D003F09EFD002805DB4FF4D3
:101BD00080420023684602F091F805B05DF804FBEE
:101BE0003F57000010B5EFF31184202383F31288D0
:101BF000BFF36F8F074A136823F00201DB07116000
:101C000002D4012004F060F984F31188BFF36F8FD0
:101C100010BD00BF4C0F00200C22104B014602FBF0
:101C20000033002030B4D3E91C521867EFF3118061
:101C3000202484F31288BFF36F8F9C6F04F0C004DC
:101C400044F002049C6780F31188BFF36F8F1DB1CD
:101C50002B4630BC0248184730BC7047AC0E002001
:101C6000E86C000010B4EFF31182202383F3128894
:101C7000BFF36F8F1748016841F002040460C80782
:101C800007D482F31188BFF36F8F012010BC04F0DA
:101C90000CB94FF05021D1F80C04D1F80C14C9073D
:101CA000EFD5EFF3118083F31288BFF36F8F0A49EA
:101CB0008B6F03F0C00343F002038B6780F311883E
:101CC000BFF36F8F82F31188BFF36F8F002010BCBA
:101CD000FFF7A2BF4C0F0020AC0E0020092813D83C
:101CE000DFE800F005101212121212120E0C074B50
:101CF000986F10F0070007D1FFF78EBF0220FBE7B7
:101D00000320F9E70120F7E7704700BFAC0E002081
:101D10002DE9F041012207463649D1E8EF3FC1E8FD
:101D2000E02F0028F9D133B9334934484B60CB60F8
:101D30008A6003F07FFB7B1E012B2BD8012F07D17C
:101D40004FF05023D3F81C3403F00303022B21D0AF
:101D500004F02AFE0546F8B9294B1B78E3B14FF091
:101D6000502302220646C3F808234FF05024DFF820
:101D70009480D4F81824D4F81834D20315D503F07D
:101D80000303022B01D0012F0FD16DB386F311880D
:101D9000BFF36F8FBDE8F081EFF31186202383F34B
:101DA0001288BFF36F8F0125DFE7C5B1304603F01E
:101DB000F3FBD4F81835DBB2012BDAD1D4F80421C7
:101DC000002AD6D00022C4F80421D4F8042102222B
:101DD000C4F818252022C8F88021A360C9E7002193
:101DE000212004F051FEE4E74FF050230222C3F813
:101DF0000423CFE7A80E0020980E0020C80E002074
:101E0000DA11002000E100E008B5074804F03CFDCD
:101E100038B10648FFF73AFD0448FEF7CBFC002036
:101E200008BD6FF01200FBE7486D0000311E000096
:101E30000A2838B50446074D04D1AB680D21284661
:101E40005B689847AB6803485B68E1B298472046F7
:101E500038BD00BF486D0000F0B545681646A8685B
:101E60002A7C01F01F0487B044EA4214002868D09D
:101E7000B6F5001F04D1214604F06EFB002051E0AE
:101E80000020B6F5800F01AA0190506037D1B3F160
:101E9000007F14BF052304238DF804300023CDE90F
:101EA00004230393EB680DF1030723FA01F111F00A
:101EB000010139D1B6F1A07F36D104F01F036209C8
:101EC00003F1800326D0012A3ED1214A52F8233063
:101ED000DB0729D43A462146A86804F0D0FA163028
:101EE0001AD002972146A86803AA04F094F90028A2
:101EF00018DB01222146A86804F0DCFABEE7B3F142
:101F0000C06F05D0B3F1007F14BF01230223C3E7E4
:101F10000323C1E70F4AD9E73946A86801F0ACF9B5
:101F20000028DEDA07B0F0BD3A462146A86804F082
:101F3000A6FA0028D6D19DF80310A86801F092F9FE
:101F4000D0E76FF08500EDE751F82330FFDE00BFEA
:101F500000288450002584504209034670B502D001
:101F6000012A17D070BD0D4E326951680029F9D091
:101F7000012503F01F030C689D400029F2D08A68F8
:101F80002A4002D030464B6898472CB1236821463E
:101F90001C46F2E7024EE7E72346F8E7286D00000B
:101FA000086D000038B54568A86890B104F07AFA69
:101FB000014670B9A86801F023F9044658B90246F1
:101FC0000649A86804F058FA224605210D20FFF7BB
:101FD000C5F9002038BD6FF00400FBE7591F000071
:101FE0002DE9F04340F206364768D00648BF4FF06F
:101FF000030C3B7C02EA060658BFC2F3401C87B0C4
:1020000001F01F05B6F5837F144645EA43158DF8A8
:1020100003C044D00DD8062E16D005D8A6B1022E86
:102020003FD06FF0150037E0B6F5807FF9D101267B
:102030000AE040F20222964235D0B6F5407F34D015
:10204000B6F5007FEDD102260123220303FA01F148
:102050002DD57B689960B86880BB05F01F036D09BA
:102060002AD0012D73D13C4A02EB830284F48033E1
:10207000D2F80012C3F30043C4F3404444EA4304DB
:1020800021F4706144EA8C0421F00F0144EA062334
:102090000B43C2F80032002007B0BDE8F0830726EA
:1020A000D2E70426D0E70526CEE70326CCE7630374
:1020B00044BF7B68D960CEE7284AD5E729460DF1B1
:1020C000020204F0DCF914F4403F80460CD12946AA
:1020D000B86804F0EDF9B8F1000FDCD19DF80210FA
:1020E000B86801F0BFF8D6E74FF0000901ABCDE9C1
:1020F0000199CDE90439CDF80C902946B86803AAB6
:1021000004F089F84845C6DB14F4003314D09DF878
:10211000033084F48034C4F300448DF80E308DF81D
:102120000C608DF80D404B462946B86803AA04F0B0
:102130002AF90028CFDAAEE7CDE904330DF1030325
:1021400003932946B86803AA04F065F8F1E78033E1
:1021500050F82330FFDE00BF002884500025845053
:10216000036803F01F025B09026004D0012B0348DF
:1021700018BF002070470248704700BF00288450F5
:10218000002584502DE9F04F1546834640F2FF1894
:10219000DFF87891DFF878A185B000EB810159452F
:1021A00003D1002005B0BDE8F08FDBF80030C3F3A9
:1021B000C322082AC3F3080400F2A180444519F899
:1021C00002704FEA136311D0192B1DD94E2B40F02A
:1021D0009980C5F81445012603A80394FFF7C0FFB2
:1021E000039B06FA03F3836032464DE0192B09D9AD
:1021F0004E2B40F087804FF0FF33C5F814350BF1BC
:10220000040BCCE74FF0FF34192B7BD8DFE803F049
:102210000D1218301B21307A7A7A7A33607A7A7A02
:102220007A7A7A7A7A7A636E7174C5F80C45601C92
:10223000D1D1E4E7C5F81445661CE0D00026D3E709
:10224000C5F80845F3E7621CC5F80845D7D0002655
:1022500004E0631CC5F80C45D1D0012603A8039403
:10226000FFF77EFF0122039B02FA03F3C3600BE03A
:10227000C5F81045E0E7C5F80845002FDCD1601C23
:10228000BDD0002606273246DBF80030039403F465
:102290000040002818BF002203A818BF01260193A0
:1022A0000092FFF75DFF039C019B00EB8400D0F8D8
:1022B0000042C3F3412C009A3B0243EA8C031343D0
:1022C00004EA0A04234343EA4603C0F8003296E7CF
:1022D000C5F80C45D1E7C5F86045621CDBF8003055
:1022E0008DD0C3F30043002BB7D074E7C5F8644525
:1022F000F3E7C5F86845F0E7C5F86C45EDE76FF022
:1023000015004FE76FF085004CE700BF777B0000BA
:10231000F0F0FCFF2DE9F04104460D46476804F05B
:1023200043FB4FF0200888B9264B1B7873B1642615
:10233000606803F087FAF0B9012003F06DFD013EFB
:10234000F6D10021212004F09FFBF0E7EFF3118686
:10235000314688F31288BFF36F8F606803F072FA1A
:10236000A8B986F31188BFF36F8FEFE786F3118862
:10237000BFF36F8FE5E7EFF31186314688F31288DC
:10238000BFF36F8F606803F05DFA0028EED0FB6941
:1023900000201D706368FA691B68C3F84425012298
:1023A000C3F84825C3F82001D3F82041C3F85801E9
:1023B000D3F858019A6081F31188BFF36F8FBDE89D
:1023C000F08100BFDA1100202DE9F04F9A464368F2
:1023D0008DB000938B88074604699804894693461C
:1023E0002CD44FF0FF324FF0FF3304F1380001F0EE
:1023F00085FCC4F82C90D7F810807D6898F885305B
:10240000D5F800C023B1D8F82830994500F0AA804B
:10241000B9F804E01EF4006F17D06FF08505A36AC9
:1024200013B19B889B0405D40023E36204F13800B8
:1024300001F030FC28460DB0BDE8F08F236C002B76
:10244000CFD1E36A9942CCD1D5E71EF0090F02D073
:102450006FF01505E3E7CEF34513082BF8D1D9F853
:1024600000300193019A9E4B9A42F1D99D4B9C45B5
:1024700007D94FF05022D2F8582512F0030F18BF99
:102480009C4602AE04350FCD0FC60FCD0FC6019B83
:1024900095E80300634528BF63469C46924B86E857
:1024A00003009C451BD28F4B9C4518D28F4B9C45FB
:1024B00015D28F4B9C4500F2CF808E4B9C4500F28D
:1024C000CD808D4B9C4500F2CB808C4B9C4500F21F
:1024D000C9808B498B4B8C4A8C4588BF13461EF0B4
:1024E000020F07930EF0040300F0BE80002B14BF10
:1024F000032302238DF82030CEF300138DF8213012
:10250000D8F80030D3F80835591C14D01EF0020F4B
:1025100003F01F004FF001024FEA5313CEF34001C6
:1025200040F0A880002B00F0A380934240F0D380BD
:10253000764B8240DA6098F885302BB1404601F046
:1025400037F9002388F885303B464046704A02A997
:1025500004F08DF8051EFFF662AF0123C8F828903D
:1025600088F88530012384F88430009BD96B4A1C9D
:1025700002D0986B03F00AFCBBF1000F40F083809F
:10258000C4F85CB00023236604F1700204F160011A
:1025900004F15C0003F01DFAE066BAF1000F7BD194
:1025A000C4F864A00023A36604F1780204F1680172
:1025B00004F1640003F00DFA002504F128062A4610
:1025C00001216067A565304603F04BFA384603F0F9
:1025D000F9FA2A462B46206E834265D1002319461C
:1025E000A56EA94267D19A4238BF1A464FF4FA53F2
:1025F0004FF0000803FB02F5A36A4FF4004C1B6880
:102600004146B5FBF3F540F2E730C8354FF47A7236
:102610000023E5FB0C01FDF79DFD04F14806024691
:102620000B46304601F06AFB024618B9A56D15F15C
:10263000740F47D12046C4F8808001F0B9F86FF0DC
:102640007301384684F8858003F0AAFA304601F019
:102650007BFB6FF07305E2E62E4B40E72E4B3EE727
:102660002E4B3CE72E4B3AE7003B18BF012341E7D6
:102670002C4B5EE72BB1012B2FD1244B82409A606B
:1026800059E7284BFAE7DBF80030E365002B3FF40D
:1026900079AFDBF8043076E7DAF800306366002BB8
:1026A00080D0DAF804307EE7E16D01EBC3014968C0
:1026B00001330A4490E7606E00EBC10040680131CD
:1026C00003448EE7002D3FF4AAAE38691146283046
:1026D00003F0C7F9A3E6C960FFDE00239B60FBE7B8
:1026E00047E801000024F4000048E80100127A00E5
:1026F000FF083D007F841E003F420F001FA107001E
:102700008FD0030048E8010090D0030000288450D7
:10271000855C000000093D0080841E0040420F00DF
:1027200020A107000025845000F01F0240090DD0B1
:1027300001280DD1094B03EB8203D3F80002084AAC
:10274000024042EA8102C3F800227047054BF2E7DB
:102750000023803253F82230FFDE00BF002884506F
:10276000F0F0FCFF002584500123834070B5DC436A
:102770000B4AD2E8EF1F01EA0405C2E8E65F002E2B
:10278000F7D14FF4803282400648C0F80823BFF3E7
:102790005F8FBFF36F8F0B4214BF0120002070BD0D
:1027A000780F00200050015070B40E4922F07F468F
:1027B000D1E90034D01AC31844F10004C1E900344F
:1027C000A6F50013B3F5400F09D2074B1B681A0A90
:1027D0001B069C19054B42F10005C3E9004570BC7E
:1027E00001F0F4BFB80600207C0F0020C0060020D6
:1027F000D9B101230D4A8340D2E8EFCF4CEA030C54
:10280000C2E8E1CF0029F7D14FF48033084A834072
:10281000C2F80433074BD3E8AF3FC340DB0742BFE6
:102820004FF40012044BC3F800217047780F0020CA
:1028300000500150740F002000E100E00D4B1868BB
:10284000010A0006BFF35F8F0B4BD3F8043518184D
:1028500041F10001B3F5801F0AD2084BD3E90023F0
:10286000904271EB030303D210F1807041F100013B
:10287000704700BF7C0F002000500150C0060020B0
:102880002DE9F04F85B016461F4604469DF840A03E
:10289000FFF76AFF0190FFF7D1FFB04271EB07032A
:1028A00052D23B4B301A67EB0101984271F10001A3
:1028B0004DD2384B03EB0413D3E902239F4208BFE8
:1028C000964258D04FF48038334908FA04F820462D
:1028D00026F07F4BC1F8488303F080FA4FF00309DC
:1028E000584604F15005AD00ADB205F1502504F590
:1028F000A87305F580350293029A20F07F4341F8D2
:102900002230C1F84483D1F80435244AC01A033870
:1029100020F07F4090422ED9286868B1D1F8043564
:10292000A3EB0B0020F07F40B0F5000F039322D9FA
:10293000204603F053FA039BBAF1000F07D109EBCD
:10294000030009F10109D7E7BAF1000F09D06FF0D0
:10295000150520460199FFF74BFF284605B0BDE855
:10296000F08F01230E4AA340D2E8EF0F1843C2E8CC
:10297000E10F0029F8D107490E982301C8500F9B99
:1029800001EB04120025C2E902675360E1E700BFD2
:1029900001008000A806002000500150FDFF7F00CC
:1029A000740F00207FB500254FF0FF304FF0FF314E
:1029B000194C1A4B0226C4F80833C4F84833184B94
:1029C000C4F80855C3E902014FF480334FF40012F4
:1029D000C4F80433134B0121C4F804631520C3F871
:1029E00080212A46FEF7BAFC1520FEF787FC01235A
:1029F0000D4AA360236013600C4B0D4A00932846D8
:102A00000023CDE90155FFF73BFF3046FFF780F982
:102A1000284604B070BD00BF0050015003000F00F5
:102A2000A806002000E100E0780F0020A9270000A0
:102A3000FFFF7F002DE9F7432E4BD3F804239007C7
:102A40000BD5D3F8042142B10022C3F804212A4A4D
:102A5000D3F80431136801331360264AD2F80433E3
:102A6000D90326D5254BD3E8EF1F21F00100C3E899
:102A7000E40F002CF7D1CB0702D4D2F84031C3B118
:102A800000251C4CC4F84051D4F84031FFF7D6FE65
:102A9000EFF31182202383F31288BFF36F8F184B5B
:102AA000D3E90267B042B94106D282F31188BFF37D
:102AB0006F8F03B0BDE8F0834FF0FF38D3E900100B
:102AC0004FF0FF391D60C3E902894FF48033C4F829
:102AD0004833C4F84051D4F8403182F31188BFF331
:102AE0006F8F0029E5D0009032463B462846884744
:102AF000DFE700BF005001507C0F0020740F002062
:102B0000A806002030B5431C124C85B005D0844285
:102B1000A8BF0446012CB8BF0124FFF78FFE0E4B5F
:102B20000C4DD3E90013401AB0F5000F0FD2221854
:102B3000AA4228BF2A46002052180849CDE90100C0
:102B4000009143F10003FFF79BFE05B030BD2A461C
:102B5000F1E700BFFFFF7F00B8060020A9270000B3
:102B600008B5FFF76BFE024B1B68C01A08BD00BF1B
:102B7000B80600204FF47F03D3F83021D3F8343166
:102B8000072A05D1023B032B02D8024AD05C7047CA
:102B900000207047A47B000008B5FFF7EBFF58B199
:102BA000644BD3F8202A3AB90D21C3F8201A012129
:102BB000C3F81C19C3F81C290022D30003F57F03B6
:102BC000D3F80013013107D0D3F800130132D3F842
:102BD0000433202A0B60F0D1FFF7CCFF002840F02F
:102BE000A080FFF7C7FF40B1534B544AC3F83025CC
:102BF0004FF050230122C3F858254FF47F03D3F838
:102C00003021D3F83431072A09D1023B032B06D8EF
:102C10004B4AD35C1BB100224A4BC3F84C25FFF74B
:102C2000A9FF50B14FF05023D3F80024D10742BF81
:102C30000022C3F81421C3F818214FF47F03D3F8FE
:102C40003021D3F83431072A09D14FF05023D3F87B
:102C50000024D20744BF6FF00102C3F80024FFF73D
:102C600089FF18B16522334BC3F80C274FF47F035B
:102C7000D3F83021D3F83431072A16D1314BD3F8A9
:102C80002034002B11DA4FF050230322C3F818250B
:102C900001229A60D3F80421002AFBD00022C3F855
:102CA00004210122DA60C3F818254FF47F03D3F81A
:102CB0003021D3F83431072A23D1023B032B02D829
:102CC000214AD35CEBB17E221A4B1B49C3F80C2777
:102CD000C3F83C297F231D4AC2F818310023C1F8EC
:102CE000043EC1F8083E01F54821C1F81031C2F890
:102CF0002431C2F82C3102F5FF1202F58052C2F8DD
:102D0000A032134AD2F88C3043F44063C2F88C30BE
:102D1000104A114B1168C3F84415D269C3F84C2509
:102D200008BD2922034BC3F80C270322C3F83C2714
:102D300057E700BF00400050009003504400EFBE32
:102D4000A07B0000002003509C7B0000002000506E
:102D500000ED00E00080FF0000600050014B1860B3
:102D6000704700BF800F002010B5054B144618684F
:102D700003F054F80028A4BF2070002010BD00BF4D
:102D8000800F00200123024A8340C2F804357047B7
:102D900000700150014B00201B681847840F002071
:102DA000014B1B68184700BF840F0020014B09200E
:102DB0001B681847840F0020014B08201B68184728
:102DC000840F002010B5144C237913BB0123237109
:102DD000124B0028206018BF184600F037F8D0B911
:102DE00023680F48002B08BF184600F0B9F890B9C7
:102DF00023680C48002B08BF184600F0F9F850B9BA
:102E000023680948002B08BF1846BDE8104000F0B1
:102E100063B86FF0770010BD840F0020952D00007F
:102E2000AD2D0000A12D0000B92D000008B5064B06
:102E30001B6843B10520FEF783FA20B9BDE80840BE
:102E40000520FEF75BBA08BD840F0020074B024641
:102E5000187938B91A6001221A714FF05023C3F85B
:102E6000142570476FF07700704700BF8C0F00206B
:102E70004FF050230022C3F80021D3F80021012293
:102E800008491A60096811B1C3F804237047D3F8E0
:102E90000021002AFBD00022C3F80021D3F8003122
:102EA000704700BF8C0F00204FF05023D3F804234D
:102EB000D2070DD5D3F8002152B10022C3F800216A
:102EC000D3F800210122C3F80823024B1B681847DE
:102ED000704700BF8C0F0020054B0246187918B9C7
:102EE0001A6001221A7170476FF07700704700BFB7
:102EF000940F00204FF050230022C3F82021D3F874
:102F0000202101229A61094A126822B14FF480728D
:102F1000C3F804237047D3F82021002AFBD00022F5
:102F2000C3F82021D3F82031704700BF940F002050
:102F30004FF05023D3F80423D2050ED5D3F8202127
:102F40005AB10022C3F82021D3F820214FF4807217
:102F5000C3F80823014B1B6818477047940F0020E3
:102F6000074B0246187938B91A6001221A714FF0DE
:102F70005023C3F8802570476FF07700704700BF7B
:102F80009C0F00204FF050230022C3F82421D3F8D7
:102F9000242101221A62094A126822B14FF40072F8
:102FA000C3F804237047D3F82421002AFBD0002261
:102FB000C3F82421D3F82431704700BF9C0F0020B0
:102FC0004FF05023D3F8042392050ED5D3F82421D3
:102FD0005AB10022C3F82421D3F824214FF40072FF
:102FE000C3F80823014B1B68184770479C0F00204B
:102FF000074B0246187938B91A6001221A714FF04E
:103000005023C3F8182570476FF07700704700BF52
:10301000A40F00204FF0502310B5D3F818141E4C05
:1030200011F4803FD3F818241AD002F00302022AC8
:1030300004D0012A01D002F0B7FF01224FF0502343
:10304000C3F818250022C3F80421D3F80421012273
:103050009A6022688AB9D3F80421002AFBD014E0D0
:10306000D3F81424D207E8D5D3F81C2402F00302C5
:10307000013A012ADFD822681AB10222C3F80423D8
:1030800010BDD3F80421002AFBD00022C3F804218C
:10309000D3F80431F4E700BFA40F0020F8B54FF0D7
:1030A000502301250026D3F80443184F04F082046E
:1030B00004B9F8BDB4FA84F0C0F11F00830003F531
:1030C00080739BB203F15023196805FA00F224EAD9
:1030D00002040029ECD01E601B684FF05023012829
:1030E000C3F808230ED1D3F81824D3F8182402F01B
:1030F0000302012A06D10221C3F81815C3F80413EC
:103100009A60D5E73B68C0B29847D1E7A40F00208A
:10311000036803F01F025B09026004D0012B03481F
:1031200018BF002070470248704700BF0028845035
:1031300000258450034A4309D35C00F01F00184463
:10314000C0B27047A87B0000034611F0010010B523
:10315000CCB20BD1A207C4F340000DD5074A106AC8
:1031600058601062003818BF012005E004490A6A5F
:103170001A600A62002AEDD010BD00BF00288450FA
:1031800000258450F7B504460846FFF7D3FF06B282
:1031900004EB4606B38A0D46DB072BD5204603F029
:1031A00017F82946204602F072FF58B1204602F077
:1031B00084FF0022276800B207EB8003C3F81025C4
:1031C000C3F810252946204602F0A0FF002101A8DF
:1031D000B1820195FFF79CFF019B00EB8300D0F8C3
:1031E0000022064B134043F00203C0F800320846A9
:1031F00003B0F0BD6FF01500FAE700BFF0F0FCFF80
:1032000070B590F88C40054690F88D6024BB21463F
:103210006022143003F0AFFC2146114B286853F8AC
:1032200036608E420ED10024C0F87C41D0F87C314B
:1032300040F30730FEF762F80123204685F88C3012
:10324000AB6770BDCBB29B0003F580727C2B04BFD3
:10325000845083580131E4E76FF07700F1E700BF55
:10326000C474000090F88D00024B03EB800002F064
:10327000EFBD00BFD805002010B5064B90F88D00BB
:103280000C4603EB800002F0C9FD0028A4BF2070AB
:10329000002010BDD80500202DE9F04F814659F8D7
:1032A00004BB90F88D40DBF804136B4BC9B2804629
:1032B00053F8342058468BB041F0004102F061FFD2
:1032C000051E36DA0023CDE90833634B08A803EB6B
:1032D000C4035B6819460193FFF736FF042303EB31
:1032E000C40303935D4B0DF1200A02930023029A5D
:1032F000009312F8013B58490292039A02EBD30261
:103300008A5C03F0070322FA03F3DA0719D4009B5F
:103310000AF1040A9BB14FF000410022584602F026
:1033200030FF019908A8FFF70FFF0028DAD125F038
:1033300000450124002D78D10BB0BDE8F08F0123AA
:10334000D5E7009B464A13440493DAF8001000299D
:10335000DDD091FAA1F1B1FA81F1049B1C7841EA28
:1033600044142046FFF7E6FE08EB4000878AC808B1
:10337000BB08059301231AF8002001F0070103FAA6
:1033800001F122EA01020AF8002007A80794FFF7DA
:10339000BFFE079A059B803250F82220C7F38206B1
:1033A0005B073746C2F3014223D54846D6B22146D1
:1033B0003A4602F08CFE07A80794FFF7A9FE079B88
:1033C000803350F82330C3F301439E4207D10021DC
:1033D000204602F04DFE3146204602F049FE07A885
:1033E0000794FFF795FE0122079B02FA03F303629D
:1033F000ABE7022A0DD10321204602F039FE06F088
:103400000503012BEBD13A462146484602F05FFE08
:10341000E5E702212046059202F02AFE032EF2D0B3
:10342000059A032ADBD1022EECE795FAA5F3B3FA4D
:1034300083F304FA03F225EA020503F5A2725BF8AE
:10344000222008EB43034846B3F87C10C2F3014244
:1034500002F03DFE6EE700BFC4740000B87B0000C0
:10346000B87B0000036803F01F025B09026004D010
:10347000012B034818BF002070470248704700BF67
:10348000002884500025845002464B692748834217
:103490004AD00FD8264A934246D009D8254A9342AB
:1034A00042D0254A93420CBF00206FF015007047B0
:1034B000224AF7E72248834236D004D8214A934271
:1034C00032D0214AEEE7214883422AD191F82300E5
:1034D00020B912681E4B9A4207D0704791F8240019
:1034E00010BB12681A4B9A421FD10B685A1C01D0AC
:1034F000082B16D14B685A1C01D0092B11D18B68AF
:103500005A1C01D00A2B0CD191F8213023B1CB6881
:103510005A1C01D00B2B04D1CB695A1C04D00C2BA4
:10352000C1E76FF0150070470020704780841E00CF
:1035300020A1070048E8010090D0030040420F009E
:103540000024F40000093D0000127A000048E80160
:1035500000A0005037B51446421C054618D001297A
:1035600002D1BBB103F04FF801A80195FFF77AFF34
:10357000019B0A4A00EB8300D0F80052A30043EA03
:1035800041030B432A40134343F44073C0F8003215
:1035900003B030BD03F043F8E6E700BFF0F0FCFFF6
:1035A0002DE9F84F91F8213007460C46002B00F02A
:1035B000968091F822806569674B9D4200F0A88053
:1035C00000F29880654B9D4200F0A58000F28A8051
:1035D000634B9D4200F0A280624B9D420CBF4FF0B6
:1035E00080654FF0804594F8232097F8223062F3ED
:1035F000000387F82230227CDBB262F3410387F8B4
:10360000223094F823600EBB237E0121012B94BF4E
:103610000023012332462068FFF79CFF33463246E1
:103620006068FFF797FF33463146A27EA068FFF738
:1036300091FF0121237C3246E06883F00103FFF70C
:1036400089FF0B463246E069FFF784FF94F821308A
:10365000002B6CD04FF0FF337B6294F8211094F86C
:1036600012E0207E627E00296BD0E668217C94F80F
:10367000249094F820C03B68B9F1000F12D1D4E92E
:1036800000BAD4F80890E469C3F808B5C3F80CA5EB
:10369000C3F81095C3F86C45C3F81465C3F86815F2
:1036A000C3F86485003A18BF01220228C3F8C0E5B8
:1036B000C3F8245548D0032849D0012801D142F04D
:1036C0000202C3F85425C3F860C57B68002B41D0C3
:1036D0003868BDE8F84F40F30730FDF70FBE4FF0F4
:1036E000020868E7204B9D420CBF4FF080554FF019
:1036F000804578E71D4B9D4213D01D4B9D4213D052
:103700001C4B9D420CBF4FF000454FF080456AE7CF
:103710004FF0005567E74FF0006564E74FF0007524
:1037200061E74FF020655EE74FF0A0555BE7E36887
:103730007B62227C97F8223062F3410387F82230C3
:103740008BE74FF0FF3692E742F00402B9E742F010
:103750000602B6E7BDE8F88F80841E0020A10700AE
:1037600048E8010090D0030040420F000024F4001C
:103770000048E80100127A00431C07B512D040F25D
:103780001F1398420ED0019001A8FFF76BFE019B1A
:1037900000EB8300D0F80022044B134043F00203F7
:1037A000C0F8003203B05DF804FB00BFF0F0FCFF8E
:1037B00038B50446006840F30730FDF7ADFD636897
:1037C00043B12146154A51F8043BC3F80823206849
:1037D00002F031FF2368D3F80805D3F80C15D3F8AD
:1037E000105594F82230DB0714D4FFF7C5FF2846A4
:1037F000FFF7C2FF0846FFF7BFFF606AFFF7BCFF95
:103800002368D3F86C05D3F81415FFF7B5FF084605
:10381000FFF7B2FF002384F8203038BD52010800C2
:1038200038B5EFF31185202383F31288BFF36F8F30
:10383000064B9C6803F03BF885F31188BFF36F8F4C
:103840002046BDE83840FDF7FDBC00BFAC0F0020AE
:1038500038B50A4B53F82040013053F82050A542A8
:1038600000D838BD606830B1037FDB0701D402F0B7
:10387000F3FF0834F3E723689847FAE7D4740000AD
:10388000012270B52A4B032086B01A70FFF7E0FFC3
:10389000FEF778F8FDF7DAF80420FFF7D9FF254C9A
:1038A000254D2646AE4204F1300410D300F090FCC2
:1038B000204C224EAC4226D300F09EFCFCF7B2FD19
:1038C0001F4A137B23F00103137306B070BD54F835
:1038D0000C3C059354F8103C049354F8143C0393A7
:1038E00054F8183C029354F81C3C019354F8203CC3
:1038F000009354E90A2354E90C0100F05FFA54F8EC
:10390000303C5E65CDE7D4E90A23B3F1FF3F08BF41
:10391000B2F1FF3F05D052EA0301206803D100F065
:1039200027FD3034C6E73146183000F0BFFEF8E717
:10393000DA110020D06F0000D06F0000816A000013
:1039400078070020B02370B5144E86B003FB0066E4
:10395000134B012205930F23CDE903320023CDE958
:10396000013314234FF4A0720E4D0F4903FB005591
:10397000044602FB00110D4B3046009500F01EFA84
:10398000737B2C7423F004037373094B013403EB32
:10399000C423EE606B6006B070BD00BFC806002097
:1039A000BA7B0000AC0F0020E01900207569000010
:1039B000E0110020BFB50020FFF74AFF294B03F5B7
:1039C000006282F3088883F30A880024E023264DEE
:1039D000264F85F82230EC772C766C76AC7685F81D
:1039E00020406B6A43F4E0236B6285F82340FDF7C7
:1039F000A3FBFDF729FD4FF0FF33AB62EB62FDF750
:103A0000AFFEFDF745FD1A4800F03EFAFDF79CFFBA
:103A10000120FFF71DFF0220164DFFF719FF00F0F0
:103A20001FFC154B15495D61154B4FF40052059372
:103A300001232846CDE90343CDE901443B460094E8
:103A400000F0BCF906466A7B284622F004026A733D
:103A500002F0EAFF2046FFF775FF3A463146284656
:103A6000FDF7D0FCE011002000ED00E081380000FF
:103A70002808002078070020AC0F0020201B002021
:103A8000BF7B0000002038B5054C064DAC4200D38A
:103A900038BD204602F00EFF0028F9DB1C34F5E7A4
:103AA000580600205806002073B50C46EFF311812C
:103AB000202585F31288BFF36F8FC5685DB125603F
:103AC0002B68C360836901338361002081F311880F
:103AD000BFF36F8F11E052EA030603D16FF00B00C2
:103AE0002560F3E7CDE900230246083000F0B6FA7E
:103AF00018B9034B9B681B69236002B070BD00BFFF
:103B0000AC0F00202DE9F341044617461E46EFF3A3
:103B10001188202383F31288BFF36F8FC368334A61
:103B20007BB180689168884219D057EA060318D1A2
:103B300088F31188BFF36F8F6FF00F0002B0BDE8FC
:103B4000F081916891F90E100133E360936821616F
:103B5000A36088F31188BFF36F8F0020EEE721691F
:103B6000F2E791F90E1090F90E306FF07E02994253
:103B7000A8BF19469142B8BF11468B422DDD02F015
:103B800004FF054622464146CDE90076184800F07C
:103B900065FA0028E1D0EFF31186202383F3128821
:103BA000BFF36F8FA068D0B1236821699C420AD00F
:103BB0004BB193F90E309942A8BF19466FF07E03BE
:103BC0009942B8BF194602F0E0FE40B131460848BC
:103BD00000F0D8FA6FF00A00B0E70025D2E7002D18
:103BE000F4D186F31188BFF36F8FF3E7AC0F002099
:103BF000DB110020F8B583680546002B40D0234A2E
:103C0000926893423FD1C368012B03D9013BC36043
:103C10000020F8BDEFF31187202383F31288BFF350
:103C20006F8F0169806802F0B0FE2C68A54207D151
:103C30000023C5E9023387F31188BFF36F8FE7E7ED
:103C4000002CF5D0D4E90032002613605A60637B63
:103C5000C4E9006623F002036373A66004F1180050
:103C600002F050FFAC6094F90E3020462B61C4F88E
:103C7000AC6002F0D9FE3946054800F083FAC7E788
:103C80006FF01500C5E74FF0FF30C2E7AC0F002022
:103C9000DB11002070B5EFF31186202383F3128827
:103CA000BFF36F8F0468A0421BD0D4B1D4E90032B7
:103CB000002513605A60637BC4E9005523F00203BA
:103CC0006373A56004F1180002F01CFF2046C4F8DD
:103CD000AC5002F0A9FE3146BDE87040064800F045
:103CE00051BAD0E902329A4218BF0133836086F399
:103CF0001188BFF36F8F70BDDB11002013B5EFF398
:103D00001181202484F31288BFF36F8F846844B13B
:103D1000013C846081F31188BFF36F8F002002B0F3
:103D200010BD52EA030406D181F31188BFF36F8FEF
:103D30006FF00F00F3E7CDE900230246014800F0E1
:103D40008DF9ECE7DB1100202DE9F0410546EFF39A
:103D50001187202383F31288BFF36F8F00236FF046
:103D60000A081E462C68A54216D0ACB1D4E9003230
:103D700013605A60637BC4E9006623F00203637337
:103D8000A66004F1180002F0BDFE2046C4F8AC8025
:103D900002F04AFE0123E5E70022AA602BB1394672
:103DA000BDE8F041044800F0EDB987F31188BFF396
:103DB0006F8FBDE8F08100BFDB1100202DE9F04FCF
:103DC000984685B000F15803C0E91633129B0025D0
:103DD00003730423D61D26F007064373119B01EBE2
:103DE000060A0F46C0E90655514685608373C573C0
:103DF0000446DDF838B0DDF84C90FCF78FFF109BDF
:103E0000073020F00700C4E92576C4F89C0002932F
:103E10000F9BAAEB0006CDE900B332464346394674
:103E20002046FDF7D3FA0F9BC4E9188BA366109BBD
:103E30006565E366EFF31183202282F31288BFF3F6
:103E40006F8F104F3A6A3C62226783F31188BFF389
:103E50006F8FB9F1000F11D01F22494604F1740091
:103E600002F091FE84F89350BB680BB1D3F8A030F8
:103E70003046C4F8A03005B0BDE8F08F84F87490E7
:103E8000F2E700BFAC0F002040F201138381002352
:103E9000C0E92533C0F8A030014B9860704700BFDF
:103EA000AC0F00206FF00A01094A9368C3F8AC1008
:103EB0000849C3F8A8004B6843F080534B600023C7
:103EC00083F31188BFF36F8F9368D3F8AC0070470A
:103ED000AC0F002000ED00E070B590F90D20437BA1
:103EE000002A36DBD90634D11B4C63F07F0322460F
:103EF000437352F8183FE169934207D1C0E90021AA
:103F00000860E06111E09942F8D01B68002BF5D001
:103F100090F90E5093F90E60B542F4D0AE42F2DD46
:103F20005968C0E9003108605860A569954200D021
:103F300005B9E568A3685A7BD20604D1DA897F2ADD
:103F400001D9AA6932B1AB4202D0284600F00AFB7F
:103F5000656170BD6361FCE7AC0F002038B590F976
:103F60000D200146002A437B04DA03F07F034373EC
:103F700002F020FD0D4D2A4652F8184FAB689442CE
:103F800000D004B9EC688B4207D05A7BD20604D12A
:103F9000DA897F2A01D9A2692AB1A34202D0204638
:103FA00000F0E0FA23466B6138BD00BFAC0F002083
:103FB000B3F1FF3F08BFB2F1FF3F03D00249183011
:103FC00000F074BB704700BF816A000070B590F9C3
:103FD0000D200146002A437B04DA03F07F0343737C
:103FE00002F0E8FC1C4C4B7B224663F07F034B73D2
:103FF00052F8183FE069934207D1C1E900200160FF
:10400000E16111E09842F8D01B68002BF5D091F9DE
:104010000E5093F90E60B542F4D0AE42F2DD58680E
:10402000C1E9003001605960A569A368954200D0DC
:1040300005B9E5688B4207D05A7BD20604D1DA89EC
:104040007F2A01D9AA692AB1AB4202D0284600F0E2
:1040500089FA2B46636170BDAC0F0020F8B5DDE92D
:1040600006670D4B0C46986811460C4A1060EFF33A
:104070001182202282F31288BFF36F8F9D68284639
:1040800002F0AAFC284632463B46FFF791FF204645
:10409000BDE8F840FFF706BFAC0F0020D00F0020AE
:1040A000F8B50446EFF31187202383F31288BFF39A
:1040B0006F8F437B49B203F01F02002A0CBF012619
:1040C000002639D103F07F032D4D437302F072FCBB
:1040D0002A46437B817363F07F03437352F8183F92
:1040E000934227D1E869C4E900200460EC610FE045
:1040F0009842F8D01B68002BF5D093F90EC06145AB
:10410000F6D08C45F4DD5968C4E900310C605C6080
:10411000AC69944200D004B9EC68AB689C4202D010
:10412000204600F01FFA6C6187F31188BFF36F8F90
:104130003046F8BDE869DEE79B071ED5856802F0CA
:1041400039FC81732B689D4209D16B68C4E9005327
:104150001C606C60E8E76A689342F6D01B68002B2D
:10416000F3D093F90E209142F5D08A42F3DD5A68DC
:10417000C4E9003214605C60D6E78173D4E700BF05
:10418000AC0F002049B9EFF3058030B9054B5A69EF
:104190009B689A4201D0FFF785BE81F31188BFF377
:1041A0006F8F7047AC0F0020034648B9EFF30582CC
:1041B00032B9064A51699268914201D0FFF772BE46
:1041C00083F31188BFF36F8F704700BFAC0F0020DF
:1041D000EFF31181202383F31288BFF36F8F054B18
:1041E0009A68D37B013BD37381F31188BFF36F8F40
:1041F000704700BFAC0F002070B5EFF3118620238D
:1042000083F31288BFF36F8F144DAB68DA7B0132F2
:10421000DA732A4652F8184F944200D004B9EC6879
:104220005A7BD20604D1DA897F2A01D9A2692AB140
:10423000A34202D0204600F095F923466B6186F335
:104240001188BFF36F8FEFF31180202383F312885F
:10425000BFF36F8FBDE87040FFF7A6BFAC0F002023
:10426000024B03F11802C3E906227047AC0F00208D
:1042700070B5EFF31186202383F31288BFF36F8F9D
:104280001B4CA168E0690B68814214BF1A460022EA
:1042900049680B605960A368E1692AB9154AC3E906
:1042A00000210B60E3610CE093F90E0092F90E50CF
:1042B000A84218D0854216DD5168C3E900210B6081
:1042C0005360A5690B4B9D4200D005B9E568A36812
:1042D0009D4202D0284600F045F965613046BDE8B0
:1042E0007040FFF7DFBD8A42D8D01268D5E700BF23
:1042F000AC0F0020C40F0020F8B550EA01030646B9
:104300000C4603D1FFF7B4FF0020F8BDEFF311878F
:10431000202383F31288BFF36F8F124D124BA868CE
:104320001860FFF71BFEA868234632460F49183075
:1043300000F0BCF9AA680446537B384643F00403F6
:104340005373FFF7AFFDAB68D3E90A23B3F1004F16
:1043500008BF002AD8D102F0FDFB201A20EAE07045
:10436000D3E700BFAC0F0020D00F0020816A00000F
:1043700038B50446EFF31185202383F31288BFF389
:104380006F8F437B5B070FD5183002F0BBFB637B5D
:10439000204623F004036373FFF79EFD2946BDE822
:1043A00038400448FFF7EEBE85F31188BFF36F8FE6
:1043B00038BD00BFDB110020014B9868704700BF7B
:1043C000AC0F00202DE9F8430446077BEFF311857D
:1043D000202383F31288BFF36F8F437B190705D522
:1043E00085F31188BFF36F8FBDE8F883D90943F0D7
:1043F000080260D14273A36813B1204602F0E2FACA
:1044000004F1180002F07EFBA66D04F15808B045D7
:1044100011D04FF0000976B1304602F0D3FA06F120
:10442000180002F06FFB3046C6F8AC90FFF754FD61
:10443000A66DB045EFD1DFF8C480D8F808309C42B3
:1044400041D1EFF30589B9F1000918BF4FF0010917
:10445000D8F818602A4A964200D00EB9D8F80C60F5
:10446000B34202D0304600F07DF82046C8F8146010
:1044700001F06FF8204600F0CDF8B9F1000F02D03E
:104480002048FFF701FDD8F808309C4231D1EFF306
:10449000058373BB227BD20718D42846FFF702FDA1
:1044A000FB07A1D5002383F31188BFF36F8F04238B
:1044B000184602DF98E703F07F0343F008034373D5
:1044C00002F078FA97E74FF00009C1E785F3118809
:1044D000BFF36F8F83F31188BFF36F8F04231846E8
:1044E00002DFEFF31180202383F31288BFF36F8F75
:1044F000D4E785F31188BFF36F8FD1E7AC0F0020AD
:10450000C40F0020280800200122044BC01A044BCD
:10451000C0105843034B1A54704700BFD8080020FE
:10452000ABAAAAAADB110020C3897F2B12D80A4BA1
:104530001B6863B1094B90F90E201B689A4209DB96
:10454000437BDB0606D1064BC31A18BF012303F0D9
:10455000010070470023FAE7E0050020D40F002097
:10456000C806002070B50E4B0E4C1E7C054606EBAF
:10457000460304EBC304204602F0C4FA00220A4BAF
:1045800028469A55FFF7D0FF48B1084B2046BDE8B2
:1045900070401A680649013AD31700F087B870BD19
:1045A000AC0F0020D8080020DB110020E00500201F
:1045B0000945000038B5EFF31185202383F31288F5
:1045C000BFF36F8F104B114A9C681068A04206D150
:1045D000FFF7C8FF85F31188BFF36F8F38BD002147
:1045E0001B7C11600A4AD35C002BF3D02046FFF7F6
:1045F0009BFF0028EED0637BDB0602D12046FFF74D
:10460000E5FC2046E4E700BFAC0F0020D00F0020FF
:10461000DB110020EFF31181202383F31288BFF315
:104620006F8F0A4A136A834207D11B6F136281F3AB
:104630001188BFF36F8F70471346002BF7D01A6FA6
:104640008242F9D1026F1A67F1E700BFAC0F002078
:10465000024B1868984208BF00207047E40500200C
:10466000034B1B680BB9FEF77BBA0020704700BFF5
:10467000D80F002030B570B10B4B5B6898420AD060
:10468000036843B1D3E90421D0E90445121941EB91
:104690000501C3E90421D0E9003213605A60002308
:1046A000C0E9003330BD00BFE4050020B3F1FF3F97
:1046B00008BFB2F1FF3F2DE9F84F04469946154671
:1046C0001F467AD08160EFF31188202383F312888C
:1046D000BFF36F8FB9F1000FDFF8E4A020DBFFF725
:1046E000BFFFDAE90027013549F100092D1849EB30
:1046F000E07306464FF00109C4E90453AD1843EBDB
:104700000707FFF7A5FF0346DFF8B8E0DEF804A0CF
:10471000EBB9C4E900EACAF80040CEF8044028E04A
:104720006FF00103DAE900125B1A4FF0FF3161EB21
:1047300002025B1B62EB0902012B72F10001BCBF9C
:10474000012300224FF00009C0E90432D9E7D3E980
:10475000041CD4E904208A4270EB0C0B24DA891A79
:104760005A686CEB0000C3E90410C4E9003214601D
:104770005C60FFF76DFF84420ED1134B1B685BB981
:10478000B9F1000F02D1FFF76BFF0646304602F089
:10479000A2F90021FEF7B6F988F31188BFF36F8FF5
:1047A00028463946BDE8F88F521A60EB0C009A454E
:1047B000C4E90420ADD01B68AAE700252F46EFE727
:1047C000F0080020E4050020D80F00202DE9F04774
:1047D000EFF31185202383F31288BFF36F8FDFF887
:1047E000A0900026C9F800000027FFF731FFDFF88E
:1047F0009480D9F80030D8E900ECD91750B1D0E94D
:104800000442A34271EB020A1BDAE41A62EB0102D2
:10481000C0E90442002413EB0E034CEB01012046D7
:10482000C8E90031C9F8004002F055F92146FEF709
:1048300069F985F31188BFF36F8FBDE8F047FFF783
:10484000B9BE14EB0E024CEBE473C0E90467C8E98F
:104850000023FFF70FFF85F31188BFF36F8F836885
:104860009847EFF31185202383F31288BFF36F8FEE
:10487000D9F800301B1BC9F80030FFF7E9FEB8E794
:10488000D80F0020F008002010B5EFF3118420238A
:1048900083F31288BFF36F8FFFF7E2FE0346054AEA
:1048A000D2E90001181841EBE37184F31188BFF3DA
:1048B0006F8F10BDF008002010B50A4C23681BB1A3
:1048C00001232360002010BD00F0F4F80028F7D089
:1048D0000138072803D8044B53F8200010BD0348C3
:1048E00010BD00BFDC0F0020EC740000FE8FFFFF46
:1048F000BFF34F8F0549064BCA6802F4E0621343C9
:10490000CB60BFF34F8F00BFFDE700BF00ED00E0BD
:104910000400FA0530B44FF0FE3200250B4B0C4C6E
:104920000C494968C3F80024C3F80424C3F80824D8
:10493000C3F80C24C3F81024C3F81424C3F81824B3
:10494000C3F81C24C4F8005530BC084700508450FC
:1049500000408450EC050020024BD0E90012C3E96E
:1049600000127047EC05002010B5044650B1636892
:1049700013F0685F05D0064A934202D000236260BC
:10498000236010BD034B04485B689847EFE700BF06
:104990002C5F5CA9EC0500200C750000C8B14368D1
:1049A0000D4A934213D013F0685F0ED0012350E8F4
:1049B000002F194640E8001C9CF0000FF7D1012A97
:1049C000F5D0BFF35F8F002070470448704704485C
:1049D00070476FF4E04070472C5F5CA9E98FFFFFE0
:1049E000EA8FFFFF034680B1426809498A420AD034
:1049F00012F0685F05D0BFF35F8F002210461A6087
:104A0000704704487047044870476FF4E0407047AF
:104A10002C5F5CA9E98FFFFFEA8FFFFF10B504460A
:104A200020B10023034A2360626010BD0248FFF7F3
:104A300071FFF6E73A00003A3475000070B5194C82
:104A4000D0F804C00668C4F804C0D0F808C0C06834
:104A5000C4F808C0E06026600868134B134D186066
:104A60004868D5F818215860886812F0685F986027
:104A7000C8680969D860196112D000230C4A05F58D
:104A80008A70C5F81431C5F8B831C5F81821C5F8D1
:104A9000BC21B047236805F5DC70BDE870401847BD
:104AA00070BD00BF08060020F4050020F40F0020B0
:104AB0002C5F5CA908B500F011F830B900F010F8CF
:104AC00038B9054AC2F80C0A08BD00F037F80320CF
:104AD00008BD042008BD00BF00508450002070476E
:104AE00010B5114800F048F800B110BD0F4800F0B3
:104AF00043F80028F9D10E4C204600F03DF800287C
:104B0000F3D10C4B0C481C6000F036F8014600282D
:104B1000EBD100F02DF8044608B1204610BD00F09E
:104B20003FF82046FAE700BF480600204406002070
:104B300040060020380600203C06002008B5084842
:104B400000F024F8074800F021F8074800F01EF8AC
:104B5000064800F01BF8BDE8084000F00BB800BFA5
:104B60004806002044060020400600203C060020A5
:104B700000207047704700BF08B5034B02681B68F0
:104B800010689847002008BD0806002008B5034BB0
:104B900002685B6810689847002008BD080600207E
:104BA00070B5094C094D2069AB68984718B1084B9E
:104BB00008485B6898470021074AEB681160206944
:104BC000BDE87040184700BFF4050020080600202B
:104BD000EC05002058750000F00F00202DE9F04F83
:104BE00043688DB015468046029383789A0740F15A
:104BF0000D8100240E78002E00F00A81252E0BD0A6
:104C00004B1C0393013441463046029B98470028D1
:104C1000C0F2F6800399EDE74E788B1C252E0393A6
:104C2000F0D00027B946BB46BBF11F0F38D8A6F11C
:104C30002003102B0AD8DFE803F02A0909300909FC
:104C4000092109090928092D09091F00A6F13003C6
:104C5000092B33D92A2E37D11BF0400F55F8043BCE
:104C600040F08280002BA7BF4BF0200B9946C3F188
:104C700000094BF0280B01E04BF0010B039B13F8EC
:104C8000016B0393002ECFD130E04BF0020B4BF0C1
:104C9000040BF3E74BF0080BF0E74BF0100BEDE7DC
:104CA000BBF17F0F19D8A6F13003092BD2D81BF026
:104CB000400F03D00A2101FB0737DFE70A214BF041
:104CC000200B01FB0939D9E72E2E06D11BF0400F2E
:104CD00040F09E804BF0400BD0E76C2E31D02BD8AB
:104CE000682E36D06A2E3CD04C2E3AD0002F46F09B
:104CF0002003B8BF2BF04002A3F16501BCBF002721
:104D00001FFA82FB022901D9612B2FD10735072712
:104D1000DFF8ACA225F0070508351BF0080F66D0B8
:104D20000AEB070B56465E4563D1A4EB0A0AA9EBD2
:104D3000070906EB0A026FE1742E9FD07A2E9DD0F0
:104D4000D4E71BF0800F18BF4BF4007B4BF0800BB7
:104D500094E71BF4807F18BF4BF4007B4BF4807BFF
:104D60008CE74BF4207B89E71F4687E7A6F16301B8
:104D7000122900F2F080DFE811F013004F00EE007E
:104D8000EE00EE00EE004F00EE00EE00EE00EE0052
:104D9000EE00FE00E900EE00EE001B00EE00AF00AA
:104DA00055F8043B01270DF1180A8DF81830B4E7C7
:104DB00055F804AB834BBAF1000F08BF9A461BF0BD
:104DC000400F504614BF39464FF0FF3101F0EBFE63
:104DD0000746A2E741462020029B984700280FDBA8
:104DE000013EB742F6D34C44B146A41B98E74E4669
:104DF000F7E7414616F8010B029B9847002892DA24
:104E000098F8023043F0040388F802304FF0FF3482
:104E100020460DB0BDE8F08F1BF0800F34D01BF49E
:104E2000007F2CD0073525F00705AA4669685AF897
:104E3000080B2BF010050029ADB237DA404245F4DB
:104E4000806561EB41010DF1180B0A235A4601F010
:104E5000B6FEA0EB0B0301936B0662D5019B25F018
:104E600001019F4289B240F3A180002E00F0998099
:104E700015F0100240F09C80BB460D4623E0AA4688
:104E80005AF8040BC117D4E7AA461BF4807F5AF8DE
:104E9000041B01D10846F5E71BF4007F19BF48B297
:104EA00041F3C01108B241F3C031C2E750EA010337
:104EB000C9D11BF0400FC6D0002FC4D12BF0110276
:104EC000BB46019795B240F2064115EA01021CBFAC
:104ED0000BF1010B00222CE02BF010020A231FFA29
:104EE00082FB1BF0800C49D01BF4007115BF073505
:104EF000AA4625F007055AF8040B1EBFAA466968A2
:104F00005AF8080B50EA010545D12BF016051BF0A5
:104F1000400FADB242D0002F40D12BF017020197C5
:104F200095B215F0100248D0019B002E42D103F13A
:104F3000010B29075AD4EB0706D5D9456FDDA9EB3C
:104F40000B030199CB465F185B4649E04BF0100B11
:104F500010237826C5E7782B04D1C6F1780343F0F7
:104F60001003BEE741462520029B98470028FFF624
:104F700047AF023447E608230026B2E7AA461BF4EF
:104F800080715AF8040BBDD01BF400711ABFC0B277
:104F9000614680B2B6E72BF0060295B20DF1180B10
:104FA00054E725F01105BB46ADB28CE70D46B8E7D6
:104FB0003B460D4603F1020BBBE7DDF804B082E788
:104FC000CB7B0000C47B0000CDE9043241462020A9
:104FD000029B98470028FFF613AF049B059A013304
:104FE0009945F1DCA4EB0B019B46CC180AB3414672
:104FF0003020029B98470028FFF602AF8EB901349B
:105000002744391B019B994224DC1D4655BB019A5C
:10501000A9EB0B09554622441446914433E0019F05
:1050200092E7023441463046029B98470028E7DA6F
:10503000E6E640F206410D42E2D015F0020F04F11F
:105040000104414614BF2B20202015F4806F18BFA7
:105050002D20E9E741463020029B01349847002883
:10506000CFDACDE606AB013D4146585D029B98473D
:105070000028CBDAC4E641462020029B0134984741
:105080000028FFF6BDAEA9EB0403002BF3DCC1E55D
:105090007047014640F2E73008B54FF47A720023BA
:1050A00000EBC1304914FBF755F8BDE8084001F0AA
:1050B000EBBC07B540BAADF800000222684601A972
:1050C000FBF716FBBDF8040040BA80B203B05DF8F0
:1050D00004FB07B5042200BA00900DEB02016846FC
:1050E000FBF706FB019800BA03B05DF804FB07B5B7
:1050F00001228DF8000001A96846FBF7F9FA03B018
:105100005DF804FB10B50446FBF7D2FA2020FFF748
:10511000EEFF2046FFF7CDFFFBF7D2FAFBF7C8FA08
:105120006D20FFF7E4FF0020FFF7E1FF42F21403D8
:10513000A4F58054A4B29C424FF0000006D8FFF7BB
:10514000C8FF0446FBF7BCFA204610BDFFF7B1FFCD
:10515000F7E7012330B4046903FA01F22368856894
:1051600023EA020323602B684FF4202230BC184747
:10517000012303FA01F103691B68194218BF82F089
:10518000010212B18368DB68184783681B69FBE77B
:10519000836800EBC101B3F5004F2CBF51F822002A
:1051A00031F81200704700EBC1018068B0F5004F84
:1051B0002CBF41F8223021F812307047012208B587
:1051C000FFF7E6FFD04008BD836800EBC101B3F5EF
:1051D000004F08D34B681AB143F001034B6070478E
:1051E00023F00103FAE74B881AB143F001034B8027
:1051F000704723F00103FAE753000122FFF7D3BF02
:105200008368481CB3F5004F34BF042308230833D8
:10521000A0EBD300B0FA80F0C0F11F0070472DE979
:10522000F0410D4686680446FFF7C8FFB6F5004F0B
:10523000014601D3012832D02046FFF7E1FF04EBFD
:1052400080010E6996B90122E36882401343E3604E
:1052500002220D612B4629462046FFF7A4FF0322B8
:1052600029462046BDE8F041FFF79DBF02223146A6
:105270002046FFF78DFF0746034629462046FFF7E5
:1052800092FF0322334629462046FFF78CFF39461A
:105290002B462046FFF787FF02223146E1E7BDE8B3
:1052A000F081B2F5802F2CBF082304232DE9F041B3
:1052B0000026D21A8C18CD1D25F0070524F007040E
:1052C000641BE408056021462846AC60EE60FFF7E9
:1052D00097FF421D9200013002F107074FEAD707FE
:1052E0003146A2F1100205F11000B8BF324601F0BC
:1052F00042FC3A4631462846FFF77EFF33463246A7
:1053000031462846FFF74FFFA4EB070828463146F1
:105310000122FFF759FF42463946FFF76DFF3B4632
:10532000324639462846FFF73EFF21462846FFF71A
:1053300063FF4346324621462846FFF734FF2146A5
:1053400028460122FFF740FF3946BDE8F041FFF74C
:1053500066BF002070470FB407B504A951F8040BCD
:105360000191FBF72DFA03B05DF804EB04B0704730
:10537000038B13F0070305D10368002B0CBF00203B
:1053800003207047022B05D1408BB0FA80F0400912
:1053900080007047012B05D10368002B0CBF002053
:1053A000052070470020704710B50C4600B111B9B8
:1053B0006FF0150010BD081D00F093F80028F9D11A
:1053C000A368032BF6D9F3E72DE9F0410D46074614
:1053D0001946281D90461E4600F094F8044638B140
:1053E0003346424629463846A446BDE8F041604768
:1053F000BDE8F08110B4EFF31182202484F3128809
:10540000BFF36F8F416110BC0121FBF70BBA38B5B8
:105410000C46054658B151B10B6843B14B6833B1E6
:105420001C22002101F0A7FB00202C6138BD6FF089
:105430001500FBE770B505460E46FFF7B5FF041EE5
:1054400014DBEFF31182202383F31288BFF36F8FF5
:105450004FF6FF716B8B2C8B8B4204F0070407D146
:1054600082F31188BFF36F8F6FF00A04204670BD7E
:10547000022C0CD101336B8382F31188BFF36F8F41
:105480000023224631462846FFF79EFFEEE7062C12
:1054900014D8DFE804F004131313041A04000023E3
:1054A00033606B683BB9C5E90066ACB90221284698
:1054B000FBF7B8F9DAE71E606E60F6E782F3118851
:1054C000BFF36F8F6FF00404D0E782F31188BFF34E
:1054D0006F8F6FF08504C9E782F31188BFF36F8F78
:1054E000C4E7034658B1426802F00302012A03D020
:1054F000032A04D1026812B10020986070476FF04F
:10550000150070474268034602F00302032A4FF079
:105510000002816014BF104600685A6070477047EF
:10552000FEE701F028BB01F019BB01460068FBF75C
:10553000C1BB08B5FBF7EEFBBDE80840FBF70EBCAE
:1055400000210120FBF7B6BBD0F8943083F30B8821
:1055500070476FF08500704761B662B680F31188BE
:10556000BFF36F8F704708B572B6002383F31188BD
:10557000BFF36F8FFCF7B6F950B1BFF34F8F30BF59
:1055800000BF00BF00BF00BF00BF00BF00BF00BF23
:1055900062B6BFF36F8F08BD10B5044672B6002324
:1055A00083F31188BFF36F8FFCF79CF950B1BFF301
:1055B0004F8F20BF00BF00BF00BF00BF00BF00BFB4
:1055C00000BF00BF84F31188BFF36F8F62B610BDB8
:1055D00040E800F313F4803FD8B208BF6FF0150025
:1055E000704730B50C684B6885B00A894D890094C6
:1055F000013B24F01F04234402F01F0242EA45123B
:1056000023F01F0369468DF808200393FBF776FF0C
:1056100005B030BD08B5FCF731F9002008BD4FF0EA
:105620005023012270B50C460546C3F8142600200D
:10563000FCF7DAF928462346BDE8704000211847F8
:105640000C220369C9B201FB0233986F00F0070016
:10565000704770B5C9B20369EFF31185202484F354
:105660001288BFF36F8F0C2606FB0134A46F14F071
:10567000C00408D0A24206D085F31188BFF36F8F13
:105680004FF0FF3070BD012206FB01339A6785F3AE
:105690001188BFF36F8F436803EBC1035B689847C2
:1056A0000020EFE78022FFF7D4BFF8B5069F04691A
:1056B000C9B2EFF31186202585F31288BFF36F8FEF
:1056C0000C2505FB0144A56F05F0070CBCF1010F8B
:1056D0000CD1A76786F31188BFF36F8FC4E91C2331
:1056E000436853F8313098470020F8BD05F0C005F5
:1056F000AF4286F31188BFF36F8F0CBF6FF0770056
:105700004FF0FF30F1E713B580240094FFF7CDFF91
:1057100002B010BD10B41C240069CBB203FB04001E
:10572000002110BC1047032000F0BFBB022000F096
:10573000BCBB032000F0C8BB022000F0C5BB104674
:10574000FEF7A8BA00F049BCFDF764BC436800202E
:105750005B681B690B607047436802EA01005B6885
:1057600021EA020198600020D96070474368002058
:105770005B6899607047436800205B68D960704738
:1057800043685A68536821EA03000B409060002088
:10579000D360704710B503695868F8B1884219D1D1
:1057A0009C680868A142586000D198600020086099
:1057B0002AB15A680A609A68596002B99960002053
:1057C00010E0814206D10868206098688142EDD1DE
:1057D0009C60EBE7044600680028F2D1002AE8D17B
:1057E0006FF0150010BDFDF757BD30B5436813606D
:1057F000057A446804EBC504A34202D36FF00100AC
:1058000030BD5C798C4201D00833F0E70020F7E727
:1058100043681B68D3F88004C3F88004704742686B
:105820001368D3F8100150B10020126A12780A7080
:10583000C3F81001D3F8102101221A6070474FF00D
:10584000FF30704702680346D2F8580140B95B68E0
:10585000DB0706D4D2F82001003818BF01207047BA
:105860000120704743681B68D3F80423D20517D57D
:10587000D3F82021A2B1EFF31182202181F3128805
:10588000BFF36F8FD3F8201131B10021C3F820117D
:10589000D3F820110121D96082F31188BFF36F8FF3
:1058A000D3F85831704713B501AA0446FFF79DFF9E
:1058B000002805DB019B226819791868FCF762FC57
:1058C00002B010BD6FF085007047F8B505460022A4
:1058D00001210820FBF742FD0820FBF70FFD6C6853
:1058E0000121E068FFF7DFFF6B6819682369C1F8E1
:1058F0002435A27D637D207D1343228B0243134315
:10590000C1F86C356E68D6E9004313F001033CD052
:105910002F6904F10C0107F1080204F5907000F002
:10592000B0FA002830DB387AFDF72CFA0823C4F8E7
:105930000035F369C4F844350023C4F84835012321
:10594000A360D4F85831002BFBD00026C4F80065C2
:105950006B683146D868FFF7A6FF6D683146E86886
:105960002C68FFF7A0FF0823C4F800352A7A52B943
:105970002B6AC4F834350123C4F83835C4F8102133
:10598000D4F8102123600020F8BD0822C4F80025B7
:10599000F269C4F84425C4F848350123A360D4F85B
:1059A0002031002BFBD00023C4F82031D4F8203163
:1059B0000123E3604FF48073C4F80433C1E700228D
:1059C00001210920FBF7CABC002201210B20FBF7B3
:1059D000C5BC10B50B6813B91846136005E0036821
:1059E0005C681CB114600368186810BD083303605C
:1059F0000B68013B0B60EDE713B501AA0446FFF706
:105A0000F4FE002805DB019B226819791868FCF771
:105A1000B9FB02B010BD38B50469456894F885300B
:105A20002BB12046FDF7C4FE002384F88530686B57
:105A30000121FFF7E1FF002038BD03460A4619792E
:105A40000123006803FA01F103691B68194218BFBA
:105A500082F0010212B18368DB68184783681B6912
:105A6000FBE710B504460068D0B18368C3B149B103
:105A700001210830FFF7E1FF23681869BDE81040F5
:105A800000F0E6BE12B98388DB0409D4006900F097
:105A9000DFFE20680021BDE810400830FFF7CDBFD1
:105AA00010BD10B5012200210446FFF7DAFFA369FB
:105AB00033B9636004F11000BDE81040FEF7EAB8A6
:105AC00010BD10B50069836A8B4207D190F88440FD
:105AD0003CB92830FFF7E5FF204610BD6FF01500F8
